:0400000099EF00F084
:100008005C82FACF60F0FBCF61F0E9CF62F0EACF13
:1000180063F0E1CF64F0E2CF65F0D9CF66F0DACFD4
:1000280067F0F3CF68F0F4CF69F0F6CF6AF0F7CF56
:100038006BF0F8CF6CF0F5CF6DF05CC06EF05DC082
:100048006FF05EC070F05FC071F00E01C2BBCAAB4A
:1000580003D002ECA4F043D0C2B9CAA903D042EC41
:10006800A5F03DD0F2AC3BD0C5B3CDA303D0C5ECD1
:10007800A6F035D0C5B1CDA103D0F5EC8FF02FD0C7
:10008800C5B9CDA90BD001D82AD00500FA6E010157
:10009800DE51FD6EDF51FE6EE0510DD0C5BBCDAB1C
:1000A8000DD001D81CD00500FA6E0101DB51FD6EA0
:1000B800DC51FE6EDD51FF6EFA501200C6B7CEA7B6
:1000C80003D008ECA5F00BD0C6B5CEA503D09CECA8
:1000D800A3F005D0C6B1CEA102D0B6ECA3F071C092
:1000E8005FF070C05EF06FC05DF06EC05CF06DC018
:1000F800F5FF6CC0F8FF6BC0F7FF6AC0F6FF69C078
:10010800F4FF68C0F3FF67C0DAFF66C0D9FF65C0B7
:10011800E2FF64C0E1FF63C0EAFF62C0E9FF61C0BB
:0E012800FBFF60C0FAFF5C921100BBEFA1F07C
:10FEF6000020342020202020202020202020202008
:10FF060020003E34202020202020202020202020D9
:10FF16002020002043616C69622E204D6F646520AD
:10FF2600202020003E43616C69622E204D6F64657F
:10FF3600202020200020466F6C6C6F772061204CBB
:10FF4600696E652020003E466F6C6C6F77206120DD
:10FF56004C696E652020002053656E736F727320A6
:10FF660052657669657720003E53656E736F7273CE
:10FF76002052657669657720002D2D2057656C63C4
:10FF86006F6D65203A29202D2D00322D20434E59C4
:10FF96002020426F6F6C2E202D3400312D20434ED1
:10FFA600592053656E736F2E202D3400342D204D4D
:10FFB6006963726F70686F6E65202D3400332D4C47
:10FFC600617365722053656E736F2E2D3400466122
:10FFD6006C7365203A28005472756520203A290012
:10FFE60072696768743A006C6566743A002D2D2D47
:09FFF6000058414D006D6D000042
:020000040001F9
:100000000FECA3F0F28EF28C000E33ECA6F0000E93
:100010000001736F000E726F000E756F000E746F2B
:1000200047ECA6F082EC8DF0010E3DECA6F0090E37
:100030000101F96F1E0EF86FE40EE82EFED7F82FBF
:10004000FCD7F92FFAD700F0000E3DECA6F027EC14
:1000500096F0010E29ECA6F054ECA5F0000E00017C
:10006000796F000E34ECA4F07F0E0001796FFF0E63
:100070007A6F2CECA3F0000E0201036F000E026FEA
:1000800003BF06D0035115E10A0E025DD8B011D0AE
:10009000090E0101F96F1E0EF86FE40EE82EFED76F
:1000A000F82FFCD7F92FFAD700F00201024B032BEF
:1000B000E7D754ECA5F0010E3DECA6F0090E0101C6
:1000C000F96F1E0EF86FE40EE82EFED7F82FFCD75E
:1000D000F92FFAD700F0000E3DECA6F0000E020159
:1000E000056F000E046F000E016F000E006F000E12
:1000F000076F000E066FB7ECA6F0B7ECA6F0E90E9E
:100100000001725D030E7359D8A006D0000E736F04
:10011000000E726FBCECA6F0B7ECA6F000017351B4
:1001200004E1040E725DD8A006D0000E736F030EBA
:10013000726FBCECA6F0B7ECA6F072C004F273C00C
:1001400005F292D0000E0001796F000E34ECA4F09D
:100150004C0E0001796FFF0E7A6F2CECA3F0000EAD
:100160000001796F010E34ECA4F05D0E0001796F8F
:10017000FF0E7A6F2CECA3F04BD2000E0001796FCA
:10018000000E34ECA4F03B0E0001796FFF0E7A6F85
:100190002CECA3F0000E0001796F010E34ECA4F0FA
:1001A0006E0E0001796FFF0E7A6F2CECA3F0ABECB2
:1001B000A6F00009D8A42CD2000E0201016F010E96
:1001C000006F0DD0090E0101F96F1E0EF86FE40EDD
:1001D000E82EFED7F82FFCD7F92FFAD700F0ABECBA
:1001E000A6F00009D8B4EED7000E0001736F000E20
:1001F000726FBCECA6F054ECA5F00AD2000E000120
:10020000796F000E34ECA4F02A0E0001796FFF0E16
:100210007A6F2CECA3F0000E0001796F010E34EC24
:10022000A4F0F70E0001796FFE0E7A6F2CECA3F0AC
:10023000EFD1000E0001796F000E34ECA4F0190E1E
:100240000001796FFF0E7A6F2CECA3F0000E000115
:10025000796F010E34ECA4F0080E0001796FFF0EE7
:100260007A6F2CECA3F0D4D104C2F8F105C2F9F1F5
:100270000101F951000AD8A4CBD1F851000AD8B431
:1002800061D7010AD8B479D7030AD8B4B7D7010A1D
:10029000D8B4CFD7BDD1B7ECA6F0B7ECA6F0E90E35
:1002A0000001725D030E7359D8A006D0000E736F63
:1002B000000E726FBCECA6F0B7ECA6F00001735113
:1002C00004E1040E725DD8A006D0000E736F030E19
:1002D000726FBCECA6F0B7ECA6F00201065100016B
:1002E000721906E10201075100017319D8B447D110
:1002F000B7ECA6F072C006F273C007F254ECA5F09A
:100300003ED1000E0001796F000E34ECA4F0A10E76
:100310000001796FFF0E7A6F2CECA3F0030E000141
:10032000796F010E34ECA4F01F0EF4ECA4F072C04F
:1003300079F073C07AF0000E00017B6F08EC9AF040
:10034000090E0001796F010E34ECA4F01E0EF4ECDE
:10035000A4F072C079F073C07AF0000E00017B6FD8
:1003600008EC9AF00F0E0001796F010E34ECA4F046
:100370001D0EF4ECA4F072C079F073C07AF0000E98
:1003800000017B6F08EC9AF00B0E0001796F010EF3
:1003900034ECA4F0060E0001796FFF0E7A6F2CEC9E
:1003A000A3F0050E0001796F010E34ECA4F0060EE7
:1003B0000001796FFF0E7A6F2CECA3F0F7D0000EDE
:1003C0000001796F000E34ECA4F0900E0001796FFB
:1003D000FF0E7A6F2CECA3F0000E0001796F010E76
:1003E00034ECA4F0ED0E0001796FFF0E7A6F2CEC67
:1003F000A3F0050E0001796F010E34ECA4F0010E9C
:10040000B2ECA2F01CECA5F0090E0001796F010E10
:1004100034ECA4F0E60E0001796FFF0E7A6F2CEC3D
:10042000A3F00F0E0001796F010E34ECA4F0000E62
:10043000B2ECA2F01CECA5F0B9D0000E0001796F6F
:10044000000E34ECA4F0C30E0001796FFF0E7A6F3A
:100450002CECA3F0020E0001796F010E34ECA4F035
:10046000000E4AECA4F09BC0A0F09CC0A1F080EC70
:1004700097F0050E0101F96F0F0EF86FF10EE82EDF
:10048000FED7F82FFCD7F92FFAD7070E0001796FA6
:10049000010E34ECA4F0010E4AECA4F09BC0A0F0D5
:1004A0009CC0A1F080EC97F0050E0101F96F0F0ED2
:1004B000F86FF10EE82EFED7F82FFCD7F92FFAD7F8
:1004C0000C0E0001796F010E34ECA4F0020E4AEC20
:1004D000A4F09BC0A0F09CC0A1F080EC97F00E0EA1
:1004E0000001796F010E34ECA4F0FB0E0001796F6E
:1004F000FF0E7A6F2CECA3F059D0000E0001796F3B
:10050000000E34ECA4F0B20E0001796FFF0E7A6F8A
:100510002CECA3F0020EB2ECA2F00009D8B421D06A
:10052000040E0001796F010E34ECA4F0DD0E000121
:10053000796FFF0E7A6F2CECA3F0010E3DECA6F064
:10054000090E0101F96F1E0EF86FE40EE82EFED7BA
:10055000F82FFCD7F92FFAD700F0000E3DECA6F0EB
:1005600025D0040E0001796F010E34ECA4F0D40EF6
:100570000001796FFF0E7A6F2CECA3F017D006C242
:10058000F8F107C2F9F10101F951000AD8A40ED01F
:10059000F851000AD8B4B5D6010AD8B410D7030A66
:1005A000D8B44BD7010AD8B4A8D7070AABECA6F049
:1005B0000009D8A420D0000E0201016F000E006FC8
:1005C0000DD0090E0101F96F1E0EF86FE40EE82E32
:1005D000FED7F82FFCD7F92FFAD700F0ABECA6F036
:1005E0000009D8B4EED704C272F005C273F0BCECB7
:1005F000A6F054ECA5F0090E0101F96F1E0EF86F7C
:10060000E40EE82EFED7F82FFCD7F92FFAD700F02A
:10061000020100050111D8A46ED53DD60001886FF6
:10062000FF0E00017B6F010E7C6F88513AECA0F049
:10063000000E00017B6F000E7C6F88513AECA0F039
:10064000FF0E00017B6F000E7C6F88513AECA0F02A
:10065000090E00017B6F000E7C6F88513AECA0F010
:10066000100E00017B6F000E7C6F88513AECA0F0F9
:10067000110E00017B6F000E7C6F88513AECA0F0E8
:10068000240E00017B6F010E7C6F88513AECA0F0C4
:10069000250E00017B6FFF0E7C6F88513AECA0F0B5
:1006A000750E00017B6F000E7C6F88513AECA0F054
:1006B000FF0E00017B6F010E7C6F88513AECA0F0B9
:1006C0004E0E00017B6F2C0E7C6F88513AECA0F02F
:1006D000480E00017B6F000E7C6F88513AECA0F051
:1006E000300E00017B6F200E7C6F88513AECA0F039
:1006F000FF0E00017B6F000E7C6F88513AECA0F07A
:10070000300E00017B6F090E7C6F88513AECA0F02F
:10071000540E00017B6F000E7C6F88513AECA0F004
:10072000310E00017B6F040E7C6F88513AECA0F013
:10073000320E00017B6F030E7C6F88513AECA0F003
:10074000400E00017B6F830E7C6F88513AECA0F065
:10075000460E00017B6F250E7C6F88513AECA0F0AD
:10076000600E00017B6F000E7C6F88513AECA0F0A8
:10077000270E00017B6F000E7C6F88513AECA0F0D1
:10078000500E00017B6F060E7C6F88513AECA0F092
:10079000510E00017B6F000E7C6F88513AECA0F087
:1007A000520E00017B6F960E7C6F88513AECA0F0E0
:1007B000560E00017B6F080E7C6F88513AECA0F05A
:1007C000570E00017B6F300E7C6F88513AECA0F021
:1007D000610E00017B6F000E7C6F88513AECA0F037
:1007E000620E00017B6F000E7C6F88513AECA0F026
:1007F000640E00017B6F000E7C6F88513AECA0F014
:10080000650E00017B6F000E7C6F88513AECA0F002
:10081000660E00017B6FA00E7C6F88513AECA0F051
:10082000FF0E00017B6F010E7C6F88513AECA0F047
:10083000220E00017B6F320E7C6F88513AECA0F0E3
:10084000470E00017B6F140E7C6F88513AECA0F0CC
:10085000490E00017B6FFF0E7C6F88513AECA0F0CF
:100860004A0E00017B6F000E7C6F88513AECA0F0BD
:10087000FF0E00017B6F000E7C6F88513AECA0F0F8
:100880007A0E00017B6F0A0E7C6F88513AECA0F063
:100890007B0E00017B6F000E7C6F88513AECA0F05C
:1008A000780E00017B6F210E7C6F88513AECA0F02E
:1008B000FF0E00017B6F010E7C6F88513AECA0F0B7
:1008C000230E00017B6F340E7C6F88513AECA0F050
:1008D000420E00017B6F000E7C6F88513AECA0F055
:1008E000440E00017B6FFF0E7C6F88513AECA0F044
:1008F000450E00017B6F260E7C6F88513AECA0F00C
:10090000460E00017B6F050E7C6F88513AECA0F01B
:10091000400E00017B6F400E7C6F88513AECA0F0D6
:100920000E0E00017B6F060E7C6F88513AECA0F032
:10093000200E00017B6F1A0E7C6F88513AECA0F0FC
:10094000430E00017B6F400E7C6F88513AECA0F0A3
:10095000FF0E00017B6F000E7C6F88513AECA0F017
:10096000340E00017B6F030E7C6F88513AECA0F0CF
:10097000350E00017B6F440E7C6F88513AECA0F07D
:10098000FF0E00017B6F010E7C6F88513AECA0F0E6
:10099000310E00017B6F040E7C6F88513AECA0F0A1
:1009A0004B0E00017B6F090E7C6F88513AECA0F072
:1009B0004C0E00017B6F050E7C6F88513AECA0F065
:1009C0004D0E00017B6F040E7C6F88513AECA0F055
:1009D000FF0E00017B6F000E7C6F88513AECA0F097
:1009E000440E00017B6F000E7C6F88513AECA0F042
:1009F000450E00017B6F200E7C6F88513AECA0F011
:100A0000470E00017B6F080E7C6F88513AECA0F016
:100A1000480E00017B6F280E7C6F88513AECA0F0E5
:100A2000670E00017B6F000E7C6F88513AECA0F0DE
:100A3000700E00017B6F040E7C6F88513AECA0F0C1
:100A4000710E00017B6F010E7C6F88513AECA0F0B3
:100A5000720E00017B6FFE0E7C6F88513AECA0F0A5
:100A6000760E00017B6F000E7C6F88513AECA0F08F
:100A7000770E00017B6F000E7C6F88513AECA0F07E
:100A8000FF0E00017B6F010E7C6F88513AECA0F0E5
:100A90000D0E00017B6F010E7C6F88513AECA0F0C7
:100AA000FF0E00017B6F000E7C6F88513AECA0F0C6
:100AB000800E00017B6F010E7C6F88513AECA0F034
:100AC000010E00017B6FF80E7C6F88513AECA0F0AC
:100AD000FF0E00017B6F010E7C6F88513AECA0F095
:100AE0008E0E00017B6F010E7C6F88513AECA0F0F6
:100AF000000E00017B6F010E7C6F88513AECA0F074
:100B0000FF0E00017B6F000E7C6F88513AECA0F065
:100B1000800E00017B6F000E7C6F88513AECA0F0D4
:100B2000290E0001876F960E866F7F0EE82EFED786
:100B3000862FFCD7872FFAD7120000017551800B42
:100B40007E6F75517525846F74BF84818451D8B4CC
:100B50000DD08429D8A408D0000E726F000E736FD8
:100B6000000E746F000E756F748F08D0000E726FD8
:100B7000000E736F000E746F000E756F7951800B4D
:100B80007E1B795179257F6F78BF7F817F51D8B4E3
:100B90000DD07F29D8A408D0000E766F000E776F95
:100BA000000E786F000E796F788F08D0000E766F88
:100BB000000E776F000E786F000E796F7F51D8B4FA
:100BC00003D08451D8A409D0000E726F000E736F49
:100BD000000E746F000E756F120078517203F3CF20
:100BE00089F0F4CF8AF08951806F816B826B836BBF
:100BF0008A51856F866B876B886B77517303F3CF50
:100C000089F0F4CF8AF089518027000E8123822356
:100C100083238A518527000E8623872388237651D4
:100C20007403F3CF89F0F4CF8AF089518027000E46
:100C30008123822383238A518527000E86238723DD
:100C4000882382C083F081C082F080C081F0806BF5
:100C500076517303F3CF89F0F4CF8AF0895180275E
:100C60008A518123000E8223000E83237751720361
:100C7000F3CF89F0F4CF8AF0895180278A518123FC
:100C8000000E8223000E832382C083F081C082F095
:100C900080C081F0806B76517203F3CF89F0F4CF7E
:100CA0008AF0895180278A518123000E8223000E09
:100CB000832378517303F3CF89F0F4CF8AF08951FD
:100CC00085278A518623000E8723000E88237751BB
:100CD0007403F3CF89F0F4CF8AF0895185278A51C4
:100CE0008623000E8723000E882378517403F3CFE8
:100CF00089F0F4CF8AF089517A6F8A517B6F7C6BCF
:100D00007D6B7CC07DF07BC07CF07AC07BF07A6B21
:100D10007A5185277B5186237C5187237D518823F7
:100D200080C07AF081C07BF082C07CF083C07DF00F
:100D3000190E05D0D8907D337C337B337A33E82E7F
:100D4000F9D77A5185277B5186237C5187237D51A2
:100D5000882382C083F081C082F080C081F0806BE4
:100D60007F5184C07AF07B6B7A27000E7B23820E42
:100D70007A25896FFF0E7B218A6F0FD0D890853737
:100D800086378737883783BF8581D890803781370A
:100D9000823783378907D8A08A0787AFEFD7000E3D
:100DA0007F6F83AF16D0FF0E80157A6FFF0E81150F
:100DB0007B6FFF0E82157C6F7F0E83157D6F7A51DE
:100DC0007B117C117D11D8A402D085A102D0010E27
:100DD0007F6F7F51D8B41FD0010E8527000E862368
:100DE0008723882388A117D085C07AF086C07BF03E
:100DF00087C07CF088C07DF07D357D337C337B33CC
:100E00007A337AC085F07BC086F07CC087F07DC0E5
:100E100088F0894B8A2B8ABF0DD08A5103E189293A
:100E2000D8A008D0000E856F000E866F800E876FE9
:100E30007F0E20D08ABF05D08A510EE18905D8B037
:100E40000BD0000E856F000E866F000E876F000EB0
:100E5000886F000E7E6F0FD089C084F0FF0E85175B
:100E6000FF0E86177F0E8717000E881784B1878FB5
:100E7000D8908431886F7E51881385C072F086C007
:100E800073F087C074F088C075F012001250800BA8
:100E90001B6E12501224216E11BE21802150D8B435
:100EA0000DD02128D8A408D0000E0F6E000E106EB1
:100EB000000E116E000E126E118E08D0000E0F6E15
:100EC000000E106E000E116E000E126E1650800B8A
:100ED0001B1A16501624206E15BE20802050D8B440
:100EE0000DD02028D8A408D0000E136E000E146E6A
:100EF000000E156E000E166E158E08D0000E136EC5
:100F0000000E146E000E156E000E166E2050D8B432
:100F100003D02150D8A409D0000E0F6E000E106E21
:100F2000000E116E000E126E120015500F02F3CF5C
:100F300026F0F4CF27F026501C6E1D6A1E6A1F6A29
:100F40002750226E236A246A256A14501002F3CFB8
:100F500026F0F4CF27F026501C26000E1D221E225C
:100F60001F2227502226000E23222422252213503E
:100F70001102F3CF26F0F4CF27F026501C26000EE6
:100F80001D221E221F2227502226000E2322242249
:100F900025221EC01FF01DC01EF01CC01DF01C6AC3
:100FA00013501002F3CF26F0F4CF27F026501C2662
:100FB00027501D22000E1E22000E1F2214500F0269
:100FC000F3CF26F0F4CF27F026501C2627501D2201
:100FD000000E1E22000E1F221EC01FF01DC01EF09C
:100FE0001CC01DF01C6A13500F02F3CF26F0F4CF83
:100FF00027F026501C2627501D22000E1E22000E10
:101000001F2215501002F3CF26F0F4CF27F0265000
:10101000222627502322000E2422000E25221450BF
:101020001102F3CF26F0F4CF27F0265022262750C6
:101030002322000E2422000E252215501102F3CF88
:1010400026F0F4CF27F02650176E2750186E196A35
:101050001A6A19C01AF018C019F017C018F0176AE8
:101060001750222618502322195024221A502522C4
:101070001CC017F01DC018F01EC019F01FC01AF0D8
:10108000190E05D0D8901A32193218321732E82EBC
:10109000F9D71750222618502322195024221A500B
:1010A00025221EC01FF01DC01EF01CC01DF01C6AB2
:1010B000205021C017F0186A1726000E1822820E41
:1010C0001724266EFF0E1820276E0FD0D8902236D8
:1010D0002336243625361FBE2280D8901C361D3676
:1010E0001E361F362606D8A0270624AEEFD7000EE0
:1010F000206E1FAE16D0FF0E1C14176EFF0E1D14AF
:10110000186EFF0E1E14196E7F0E1F141A6E1750E4
:10111000181019101A10D8A402D022A002D0010E63
:10112000206E2050D8B41FD0010E2226000E23229C
:101130002422252225A017D022C017F023C018F0A2
:1011400024C019F025C01AF01A341A321932183294
:10115000173217C022F018C023F019C024F01AC0AB
:1011600025F0264A272A27BE0DD0275003E126283E
:10117000D8A008D0000E226E000E236E800E246EC2
:101180007F0E20D027BE05D027500EE12604D8B010
:101190000BD0000E226E000E236E000E246E000E89
:1011A000256E000E1B6E0FD026C021F0FF0E2216FA
:1011B000FF0E23167F0E2416000E251621B0248E56
:1011C000D8902130256E1B50251222C00FF023C06D
:1011D00010F024C011F025C012F012002B50800B2B
:1011E000386E2B502B243A6E2ABE3A803A50D8B42F
:1011F0000DD03A28D8A408D0000E286E000E296E13
:10120000000E2A6E000E2B6E2A8E06D0000E286E5F
:10121000000E296E000E2A6E000E2B6E2F50800BD2
:10122000396E38503918D8A4388C2F502F24396E85
:101230002EBE39803950D8B40DD03928D8A408D062
:10124000000E2C6E000E2D6E000E2E6E000E2F6EF8
:101250002E8E06D0000E2C6E000E2D6E000E2E6E01
:10126000000E2F6E3A50395CD8B022D038AC02D084
:10127000800E381A3AC03BF039C03AF03BC039F022
:1012800028C03BF02CC028F03BC02CF029C03BF01C
:101290002DC029F03BC02DF02AC03BF02EC02AF013
:1012A0003BC02EF02BC03BF02FC02BF03BC02FF0EB
:1012B000000E3B6E3A50306E316A301E311E304A9D
:1012C000312A3950326E336A30503226315033224F
:1012D00033BE2CD0335004E11A0E325CD8A026D095
:1012E000285029102A102B10D8B402D0010E01D09A
:1012F000000E3B6E000E286E000E296E000E2A6E48
:10130000000E2B6E39C03AF015D03BA005D0D89016
:101310003B3001093B6E02D0D8903B3228B03B8E67
:101320002B342B322A32293228323A2A39503A5C6D
:10133000D8A0EBD738BC29D03A50D8A409D0000E99
:10134000286E000E296E000E2A6E000E2B6E120003
:101350002C5028262D5029222E502A222F502B2265
:101360002BA083D03BA006D0D8903B323B50010944
:101370003B6E02D0D8903B3228B03B8E2B342B32C0
:101380002A32293228323A2A70D02C50285C2D502B
:1013900029582E502A582B50800A306E2F50800A20
:1013A0003058D8B036D028C030F029C031F02AC02B
:1013B00032F02BC033F0301E311E321E331E302A65
:1013C000000E3122322233222C503024346E2D5024
:1013D0003120356E2E503220366E2F503320376E2E
:1013E000FF0E3424286EFF0E3520296EFF0E3620A6
:1013F0002A6EFF0E37202B6E800E381A3B6C3B5046
:10140000D8A40FD0010E2826000E29222A222B2232
:1014100008D02C50285E2D50295A2E502A5A2F5071
:101420002B5A285029102A102B10D8A41CD03B501E
:10143000D8A419D0000E286E000E296E000E2A6E58
:10144000000E2B6E1200D890283629362A362B36FD
:101450003BBE28803BA002D0D88001D0D8903B363C
:101460003A50D8A43A062AAEEED7000E396E3BAEFB
:101470000AD03BC030F07F0E3016D8A402D028A08E
:1014800002D0010E396E3950D8B420D0010E282672
:10149000000E29222A222B222BA018D028C030F09F
:1014A00029C031F02AC032F02BC033F0333433324C
:1014B00032323132303230C028F031C029F032C0FF
:1014C0002AF033C02BF03A28D8A43A2A3A28D8B4C4
:1014D00003D03A50D8A40DD0000E286E000E296E0D
:1014E000000E2A6E000E2B6E3A50D8A402D0000EC9
:1014F000386E3AA002D02A8E01D02A9ED8903A3077
:101500002B6E38BE2B8E28C028F029C029F02AC0A7
:101510002AF02BC02BF01200050E0001B96F280E27
:10152000B86F030EBB6FC00EBA6F020EBD6F940E84
:10153000BC6F020EBF6F4E0EBE6F020EC16FB20EB9
:10154000C06F020EC36F940EC26F020EC56F260EDF
:10155000C46F200EB06F4E0EB16F000EB26F000E52
:10156000B36F20EE08F0A251D926A351DA22B05170
:10157000DE5CB151DE58B251DE58B351DE58D8A00E
:101580001200BA51B825A46FBB51B921A56FA4C0F0
:10159000C8F0A5C0C9F0CA6BCB6BA2C089F0A3C0CC
:1015A0008AF05DEC9EF0A2C098F0A3C099F03CECEC
:1015B00092F0000120EE0CF0A251D926A351DA22BC
:1015C000DF50D8B422D020EE1BF0A251D926A3516F
:1015D000DA22DECFA4F0DECFA5F0DECFA6F0DECF9C
:1015E000A7F0BE51A425A86FBF51A521A96F000E79
:1015F000A621AA6F000EA721AB6FA851C827A95139
:10160000C923AA51CA23AB51CB2320EE0EF0A2511D
:10161000D926A351DA22DF50D8B42BD020EE1BF00C
:10162000A251D926A351DA22DECFA4F0DECFA5F055
:10163000DECFA6F0DECFA7F0C051A425A86FC15120
:10164000A521A96F000EA621AA6F000EA721AB6FDE
:10165000D890A835AC6FA935AD6FAA35AE6FAB3554
:10166000AF6FAC51C827AD51C923AE51CA23AF519A
:101670002AD020EE0DF0A251D926A351DA22DF5054
:10168000D8B422D020EE1BF0A251D926A351DA22E1
:10169000DECFA4F0DECFA5F0DECFA6F0DECFA7F040
:1016A000BC51A425A86FBD51A521A96F000EA6218C
:1016B000AA6F000EA721AB6FA851C827A951C92353
:1016C000AA51CA23AB51CB2320EE0FF0A251D92649
:1016D000A351DA22DF50D8B422D020EE1FF0A2515D
:1016E000D926A351DA22DECFA4F0DECFA5F0DECFDB
:1016F000A6F0DECFA7F0C251A425A86FC351A52143
:10170000A96F000EA621AA6F000EA721AB6FA851EA
:10171000C827A951C923AA51CA23AB51CB2320EE14
:1017200010F0A251D926A351DA22DF50D8B412000A
:10173000C451C827C551C923000ECA23000ECB23AC
:1017400020EE08F0A251D926A351DA22C851DE5C5E
:10175000C951DE58CA51DE58CB51DE58D8A012000C
:1017600020EE08F0A251D926A351DA22DECFA4F050
:10177000DECFA5F0DECFA6F0DECFA7F0C8C0A8F080
:10178000C9C0A9F0CAC0AAF0CBC0ABF0A81FA91F5E
:10179000AA1FAB1FA82B000EA923AA23AB23A45179
:1017A000A825B46FA551A921B56FA651AA21B66F7E
:1017B000A751AB21B76FB4C08BF0B5C08CF0B6C0E9
:1017C0008DF0B7C08EF020EE13F0A251D926A351B0
:1017D000DA22DF508F6FA2EC96F08BC0C6F08CC07F
:1017E000C7F0000120EE0FF0A251D926A351DA2252
:1017F000DF50D8B40AD020EE17F0A251D926A35159
:10180000DA22DE50C627DD50C723710E956FC6C0A1
:1018100072F0C7C073F01AEC9CF072C096F073C0FF
:1018200097F0A2C0D9FFA3C0DAFFDF5006ECA0F00A
:101830001200E2C046F0E3C047F0461E471E464A8B
:10184000472A0101325146240001DC6F0101335166
:1018500047200001DD6F000E136E000E146EA80EFF
:10186000156E410E166EDCC001F0DDC002F0000EF8
:1018700002BEFF0E036E046E010E30EC93F001C049
:101880000FF002C010F003C011F004C012F046ECDB
:1018900087F00FC02CF010C02DF011C02EF012C038
:1018A0002FF0EAC101F0EBC102F0000E02BEFF0E04
:1018B000036E046E010E30EC93F001C028F002C0FC
:1018C00029F003C02AF004C02BF0EEEC88F028C009
:1018D00048F029C049F02AC04AF02BC04BF0000E56
:1018E000136E000E146E980E156EC10E166E2EC17C
:1018F00001F02FC102F0000E02BEFF0E036E046E57
:10190000010E30EC93F001C00FF002C010F003C0E4
:1019100011F004C012F046EC87F00FC02CF010C09C
:101920002DF011C02EF012C02FF048C028F049C091
:1019300029F04AC02AF04BC02BF0EEEC88F028C00A
:101940003CF029C03DF02AC03EF02BC03FF0EFEC48
:1019500097F03CC04EF03DC04FF0DCC02EF1DDC032
:101960002FF14FBE0AD0210E4E5C030E4F58D8A067
:1019700004D0030E4F6E200E05D04FAE04D0000EE3
:101980004F6E000E4E6E4EC0EAF14FC0EBF1E0C05C
:1019900046F0E1C047F0461E471E464A472A01016D
:1019A000305146240001DA6F010131514720000116
:1019B000DB6F000E136E000E146EA80E156E410E36
:1019C000166EDAC001F0DBC002F0000E02BEFF0EA0
:1019D000036E046E010E30EC93F001C00FF002C0F4
:1019E00010F003C011F004C012F046EC87F00FC0F5
:1019F0002CF010C02DF011C02EF012C02FF0E8C155
:101A000001F0E9C102F0000E02BEFF0E036E046E8B
:101A1000010E30EC93F001C028F002C029F003C0A1
:101A20002AF004C02BF0EEEC88F028C048F029C062
:101A300049F02AC04AF02BC04BF0000E136E000E86
:101A4000146E980E156EC10E166E2CC101F02DC1CC
:101A500002F0000E02BEFF0E036E046E010E30ECAB
:101A600093F001C00FF002C010F003C011F004C0E9
:101A700012F046EC87F00FC02CF010C02DF011C012
:101A80002EF012C02FF048C028F049C029F04AC0FB
:101A90002AF04BC02BF0EEEC88F028C03CF029C0B7
:101AA0003DF02AC03EF02BC03FF0EFEC97F03CC079
:101AB0004CF03DC04DF0DAC02CF1DBC02DF14DBE35
:101AC0000AD0210E4C5C030E4D58D8A004D0030E52
:101AD0004D6E200E05D04DAE04D0000E4D6E000EA2
:101AE0004C6E4CC0E8F14DC0E9F14EC001F04FC062
:101AF00002F060ECA4F04CC001F04DC002F076ECB6
:101B0000A4F01200020E0001D16FA00ED06F920E51
:101B1000E82EFED7D02FFCD7D12FFAD700F0D6EC85
:101B2000A6F0D2ECA6F0CEECA6F0000E0001D26F2B
:101B3000020ED26501D022D0D251010DE50EF32460
:101B4000D96E010EF420DA6ED251270D360EF32431
:101B5000E16E010EF420E26EDFCFE7FFD251270DD8
:101B6000020EF326000EF422360EF324D96E010E77
:101B7000F420DA6E010EDF6ED22BDAD7D0ECA6F0AD
:101B8000020E0001D16FA00ED06F920EE82EFED78C
:101B9000D02FFCD7D12FFAD700F001018451FDECF2
:101BA000A5F0020E0001D16FA00ED06F920EE82EAC
:101BB000FED7D02FFCD7D12FFAD700F0840E00012A
:101BC000CE6F010ECF6FD0ECA3F0020E0001D16FEB
:101BD000A00ED06F920EE82EFED7D02FFCD7D12FBB
:101BE000FAD700F0840E0001726F010E736F000EC1
:101BF000756F320E746FD9ECA5F0A30E0001D16F92
:101C0000570ED06F020EE82EFED7D02FFCD7D12F63
:101C1000FAD700F0D4ECA6F0020E0001D16FA00EAE
:101C2000D06F920EE82EFED7D02FFCD7D12FFAD747
:101C300000F001015D51FDECA5F0020E0001D16F35
:101C4000A00ED06F920EE82EFED7D02FFCD7D12F4A
:101C5000FAD700F05D0E0001CE6F010ECF6FD0EC11
:101C6000A3F0020E0001D16FA00ED06F920EE82EED
:101C7000FED7D02FFCD7D12FFAD700F05D0E000190
:101C8000726F010E736F000E756F320E746FD9ECA8
:101C9000A5F0020E0001D16FA00ED06F920EE82EBB
:101CA000FED7D02FFCD7D12FFAD700F0D8ECA6F072
:101CB000020E0001D16FA00ED06F920EE82EFED75B
:101CC000D02FFCD7D12FFAD700F0360E0001CE6FFF
:101CD000010ECF6FD0ECA3F0020E0001D16FA00E69
:101CE000D06F920EE82EFED7D02FFCD7D12FFAD787
:101CF00000F0360E0001726F010E736F000E756FEB
:101D0000320E746FD9ECA5F0020E0001D16FA00E57
:101D1000D06F920EE82EFED7D02FFCD7D12FFAD756
:101D200000F0360E00019A6F010E9B6F000E9C6F43
:101D3000000E9D6F000E9E6F000E9F6FD1EC9FF006
:101D40005D0E00019A6F010E9B6F000E9C6F000EDE
:101D50009D6F000E9E6F000E9F6FD1EC9FF0840E62
:101D600000019A6F010E9B6F000E9C6F000E9D6F1D
:101D7000000E9E6F000E9F6FD1EC9FF01200800E40
:101D800000017B6F010E7C6F89C0D9FF8AC0DAFF2A
:101D9000DF503AECA0F0FF0E00017B6F010E7C6F6C
:101DA00089C0D9FF8AC0DAFFDF503AECA0F0000EFC
:101DB00000017B6F000E7C6F89C0D9FF8AC0DAFFFB
:101DC000DF503AECA0F0FF0E00017B6F060E7C6F37
:101DD00089C0D9FF8AC0DAFFDF503AECA0F0830E49
:101DE00000017B6F89C0D9FF8AC0DAFFDF50DFECCA
:101DF0009EF00001906F830E7B6F905104097C6F01
:101E000089C0D9FF8AC0DAFFDF503AECA0F0FF0E9C
:101E100000017B6F070E7C6F89C0D9FF8AC0DAFF93
:101E2000DF503AECA0F0810E00017B6F010E7C6F59
:101E300089C0D9FF8AC0DAFFDF503AECA0F0800EEB
:101E400000017B6F010E7C6F89C0D9FF8AC0DAFF69
:101E5000DF503AECA0F0940E00017B6F6B0E7C6FAC
:101E600089C0D9FF8AC0DAFFDF503AECA0F0830EB8
:101E700000017B6F000E7C6F89C0D9FF8AC0DAFF3A
:101E8000DF503AECA0F0910E0001726F000E736FFC
:101E900020EE03F08951D9268A51DA22DECF74F080
:101EA000DDCF75F0E0ECA4F00CD0910E0001726F64
:101EB000000E736FCAEC98F00009D8B402D0000E7F
:101EC0001200830E00017B6F89C0D9FF8AC0DAFF40
:101ED000DF50DFEC9EF00009D8B4E7D7830E000195
:101EE0007B6F010E7C6F89C0D9FF8AC0DAFFDF509B
:101EF0003AECA0F0920E00017B6F89C0D9FF8AC036
:101F0000DAFFDF50DFEC9EF000018F6F8F517F0B07
:101F10008BC0D9FF8CC0DAFFDF6E8F45010B8DC0FF
:101F2000D9FF8EC0DAFFDF6E810E7B6F000E7C6FF3
:101F300089C0D9FF8AC0DAFFDF503AECA0F0FF0E6B
:101F400000017B6F060E7C6F89C0D9FF8AC0DAFF63
:101F5000DF503AECA0F0830E00017B6F89C0D9FFFF
:101F60008AC0DAFFDF50DFEC9EF00001906F830E35
:101F70007B6F9051FB0B7C6F89C0D9FF8AC0DAFF61
:101F8000DF503AECA0F0FF0E00017B6F010E7C6F7A
:101F900089C0D9FF8AC0DAFFDF503AECA0F0000E0A
:101FA00000017B6F010E7C6F89C0D9FF8AC0DAFF08
:101FB000DF503AECA0F0FF0E00017B6F000E7C6F4B
:101FC00089C0D9FF8AC0DAFFDF503AECA0F0800E5A
:101FD00000017B6F000E7C6F89C0D9FF8AC0DAFFD9
:101FE000DF503AECA0F0010E12000E01CD9196AE3A
:101FF00001D1969E000E596E20EE03F05050D92666
:102000005150DA22DECF04F0DDCF05F004C0D9FF55
:1020100005C0DAFF010EDF6E000E506E000E516E2D
:1020200012000001D7B31200D5C050F0D6C051F055
:10203000D5C0D9FFD6C0DAFFDF50586E20EE01F0D0
:10204000D551D926D651DA22DECF52F0DDCF53F06A
:10205000050ED527000ED623BA0ED51908E1010EBC
:10206000D619D8A404D0B50ED56F010ED66FD7916E
:10207000D351D51904E1D451D619D8B4D783978058
:10208000020E596E12009782020E596E120097AC22
:1020900006D00001D92B040ED3ECA2F01200D89088
:1020A0005B30056E5A30046E0450926E5AA003D015
:1020B0000B0E596E1200030E596E120097AC06D02B
:1020C0000001D92B040ED3ECA2F0120097825AC063
:1020D00004F05BC005F005C004F0056A060E0416A6
:1020E000000E0516F00E04105A6E05505B6E5A80F5
:1020F000010E566E020E596E12005604D8B41AD054
:1021000052C0D9FF53C0DAFFDECF5AF0DDCF5BF00B
:1021100020EE03F05250D9265350DA22DECFDEF003
:10212000DDCFDFF020EE02F05250D9265350DA22F4
:10213000DF50576E5AC092FF5AA003D0050E596E59
:102140001200030E596E120097AC07D00001D92B74
:10215000979C050ED3ECA2F0120057065728D8A47E
:102160000ED0050E5226000E5322582E04D0000E1B
:10217000D3ECA2F012009782020E596E1200DEC05C
:10218000D9FFDFC0DAFFDF50926E0001DE4BDF2B9C
:10219000120097AC07D00001D92B040ED3ECA2F0AB
:1021A000979C12009786080E596E1200080E596E01
:1021B00097861200DEC0D9FFDFC0DAFF92CFDFFFC3
:1021C0000001DE4BDF2B010E575ED8B404D0979A86
:1021D000060E596E03D0978AF1ECA5F0978812008D
:1021E000000ED3ECA2F012000001D92B060ED3ECA6
:1021F000A2F012005950000AD8B413D7010AD8B47B
:1022000042D7030AD8B479D7010AD8B49DD7070AB0
:10221000D8B4E6D7010AD8B4BCD7030AD8B4C6D715
:10222000010AD8B4DDD70F0AD8B4C4D7020AD8B48B
:102230002ED7010AD8B442D7D7D7070E0001AE6F08
:10224000760EAD6F030EB06FC00EAF6F020EB26FA1
:10225000940EB16F020EB46F4E0EB36F020EB66FD6
:10226000B20EB56F020EB86F940EB76F020EBA6F52
:10227000260EB96FAF51AD25A16FB051AE21A26F3F
:10228000A1C0BBF0A2C0BCF0BD6BBE6B9DC089F00D
:102290009EC08AF05DEC9EF09DC098F09EC099F0C3
:1022A0003CEC92F0000120EE0CF09D51D9269E519D
:1022B000DA22DF50D8B422D020EE1BF09D51D9266F
:1022C0009E51DA22DECFA1F0DECFA2F0DECFA3F066
:1022D000DECFA4F0B351A125A56FB451A221A66F02
:1022E000000EA321A76F000EA421A86FA551BB2744
:1022F000A651BC23A751BD23A851BE2320EE0EF04A
:102300009D51D9269E51DA22DF50D8B42BD020EE31
:102310001BF09D51D9269E51DA22DECFA1F0DECFEF
:10232000A2F0DECFA3F0DECFA4F0B551A125A56FBA
:10233000B651A221A66F000EA321A76F000EA42103
:10234000A86FD890A535A96FA635AA6FA735AB6F32
:10235000A835AC6FA951BB27AA51BC23AB51BD23F3
:10236000AC512AD020EE0DF09D51D9269E51DA2293
:10237000DF50D8B422D020EE1BF09D51D9269E51BB
:10238000DA22DECFA1F0DECFA2F0DECFA3F0DECFE7
:10239000A4F0B151A125A56FB251A221A66F000EE4
:1023A000A321A76F000EA421A86FA551BB27A6519A
:1023B000BC23A751BD23A851BE2320EE0FF09D5191
:1023C000D9269E51DA22DF50D8B422D020EE1FF059
:1023D0009D51D9269E51DA22DECFA1F0DECFA2F0A8
:1023E000DECFA3F0DECFA4F0B751A125A56FB85181
:1023F000A221A66F000EA321A76F000EA421A86F33
:10240000A551BB27A651BC23A751BD23A851BE236C
:1024100020EE10F09D51D9269E51DA22DF50D8B41B
:1024200022D020EE23F09D51D9269E51DA22DECF14
:10243000A1F0DECFA2F0DECFA3F0DECFA4F0B95141
:10244000A125A56FBA51A221A66F000EA321A76FE7
:10245000000EA421A86FA551BB27A651BC23A751EC
:10246000BD23A851BE23BBC09DF0BCC09EF0BDC023
:102470009FF0BEC0A0F0120098C0D9FF99C0DAFF4B
:10248000DF5000019C6F000E896F9C5170ECA2F030
:1024900000019A6F9B6B20EE11F09851D92699514B
:1024A000DA229AC0DEFF9BC0DDFF460E7B6F9C5197
:1024B000DFEC9EF000019A6F9B6B010E9A27000ED5
:1024C0009B2320EE15F09851D9269951DA229AC013
:1024D000DEFF9BC0DDFF20EE15F09851D926995103
:1024E000DA22DECF8BF0DDCF8CF020EE11F09851A8
:1024F000D9269951DA22DF508D6F5DEC98F00001FA
:1025000020EE1BF09851D9269951DA228BC0DEFFBC
:102510008CC0DEFF8DC0DEFF8EC0DEFF510E7B6FF4
:102520009C511EEC9BF07BC092F07CC093F0F2ECCF
:10253000A2F0000120EE17F09851D9269951DA2225
:1025400092C0DEFF93C0DDFF20EE17F09851D92630
:102550009951DA22DECF8BF0DDCF8CF020EE11F036
:102560009851D9269951DA22DF508D6F5DEC98F0A1
:10257000000120EE1FF09851D9269951DA228BC024
:10258000DEFF8CC0DEFF8DC0DEFF8EC0DEFF010EE1
:10259000896F9C5170ECA2F000019A6F9B6B20EE4A
:1025A00013F09851D9269951DA229AC0DEFF9BC0C8
:1025B000DDFF710E7B6F9C511EEC9BF07BC092F097
:1025C0007CC093F0F2ECA2F0000120EE19F09851DB
:1025D000D9269951DA2292C0DEFF93C0DDFF20EEAA
:1025E0000FF09851D9269951DA22DF50D8B414D07F
:1025F00020EE17F09851D9269951DA22DECF9AF0C1
:10260000DDCF9BF020EE19F09851D9269951DA22AE
:102610009A51DE5E9B51DD5A20EE19F09851D92671
:102620009951DA22DECF8BF0DDCF8CF020EE13F063
:102630009851D9269951DA22DF508D6F5DEC98F0D0
:10264000000120EE23F09851D9269951DA228BC04F
:10265000DEFF8CC0DEFF8DC0DEFF8EC0DEFF12000D
:10266000096E0950D8A404AE1AD001C005F002C00A
:1026700006F003C007F004C008F0051E061E071E82
:10268000081E052A000E06220722082205C00BF0AC
:1026900006C00CF007C00DF008C00EF008D001C055
:1026A0000BF002C00CF003C00DF004C00EF001509E
:1026B000021003100410D8A409D0000E016E000E01
:1026C000026E000E036E000E046E1200960E0A6E6D
:1026D00006D00A2AD8900E320D320C320B32000E80
:1026E0000B14056E000E0C14066E000E0D14076E12
:1026F000FE0E0E14086E0550061007100810D8B410
:102700000DD0E7D70A2A010E0B26000E0C220D224F
:102710000E22D8900E320D320C320B32000E0B14FA
:10272000056E000E0C14066E000E0D14076EFF0EE3
:102730000E14086E0550061007100810D8B407D004
:10274000E1D70A06D8900B360C360D360E360DBE84
:1027500003D0020E0A60F5D70AB008D0FF0E0B16A0
:10276000FF0E0C167F0E0D16FF0E0E16D8900A32B5
:102770000AC005F0066A076A086A05C008F0076A19
:10278000066A056A05500B1206500C1207500D120E
:1027900008500E120950D8A404AE01D00E8E0BC002
:1027A00001F00CC002F00DC003F00EC004F01200E6
:1027B00000019C6FFF0E00017B6F010E7C6F9C512E
:1027C0003AECA0F04F0E00017B6F000E7C6F9C5125
:1027D0003AECA0F04E0E00017B6F2C0E7C6F9C51EA
:1027E0003AECA0F0FF0E00017B6F000E7C6F9C5155
:1027F0003AECA0F0B60E00017B6FB40E7C6F9C51DA
:102800003AECA0F091C0D9FF92C0DAFFDF50D8A413
:1028100005D0000E00019A6F000E04D0000E0001DA
:102820009A6F0C0E996F99C098F0000E9B6F000E76
:102830009D6F2F0E9D6501D050D098519D5DD8A001
:1028400008D08FC0D9FF90C0DAFF9B51DE18D8A402
:1028500023D09DC095F0070E9517010E966F952B0E
:1028600002D0D8909637952FFCD700019651FF0AD9
:10287000976F9DC072F0736B000E756F080E746FCA
:10288000D8EC9DF0000172519325D96E73519421BB
:10289000DA6E9751DF161FD09DC095F0070E951781
:1028A0009DC072F0736B000E756F080E746FD8ECDC
:1028B0009DF0000172519325D96E73519421DA6E07
:1028C000DF50966F952B02D0D8909633952FFCD77A
:1028D000000196B19B2B9D2BACD7B00E7B6F93C0A4
:1028E0007CF094C07DF0060E7E6F9C51B6EC9CF09F
:1028F0001200890E00017B6F010E7C6FA7C0D9FF0B
:10290000A8C0DAFFDF503AECA0F0800E00017B6F28
:10291000010E7C6FA7C0D9FFA8C0DAFFDF503AECE8
:10292000A0F0FF0E00017B6F010E7C6FA7C0D9FFE6
:10293000A8C0DAFFDF503AECA0F0000E00017B6F78
:10294000000E7C6FA7C0D9FFA8C0DAFFDF503AECB9
:10295000A0F0910E00017B6FA7C0D9FFA8C0DAFFDD
:10296000DF50DFEC9EF00001A96F20EE01F0A751CF
:10297000D926A851DA22A9C0DFFF000E7B6F010E15
:102980007C6FA7C0D9FFA8C0DAFFDF503AECA0F0F7
:10299000FF0E00017B6F000E7C6FA7C0D9FFA8C09F
:1029A000DAFFDF503AECA0F0800E00017B6F000EE2
:1029B0007C6FA7C0D9FFA8C0DAFFDF503AECA0F0C7
:1029C000600E00017B6FA7C0D9FFA8C0DAFFDF50FF
:1029D000DFEC9EF00001AA6F600E7B6FAA51120916
:1029E0007C6FA7C0D9FFA8C0DAFFDF503AECA0F097
:1029F000000E0001A26F000EA36F800EA46F3E0EAA
:102A0000A56FA7C0D9FFA8C0DAFFDF509EEC9EF0EB
:102A1000010E00017B6FFF0E7C6FA7C0D9FFA8C01D
:102A2000DAFFDF503AECA0F01200000E0001721540
:102A30007A6F000E73157B6F800E74157C6F7F0E9E
:102A400075157D6F7A517B117C117D11D8A408D04A
:102A5000000E726F000E736F000E746F000E756FB4
:102A6000000E76157A6F000E77157B6F800E781545
:102A70007C6F7F0E79157D6F7A517B117C117D11F2
:102A8000D8A408D0000E766F000E776F000E786F16
:102A9000000E796F75AF1DD072C07AF073C07BF0F5
:102AA00074C07CF075C07DF07A1F7B1F7C1F7D1F7A
:102AB0007A2B000E7B237C237D23000E7A25726FF8
:102AC000000E7B21736F000E7C21746F800E7D21C0
:102AD000756F79AF1DD076C07AF077C07BF078C083
:102AE0007CF079C07DF07A1F7B1F7C1F7D1F7A2BC5
:102AF000000E7B237C237D23000E7A25766F000E4B
:102B00007B21776F000E7C21786F800E7D21796F9D
:102B1000000E721B000E731B000E741B800E751BC3
:102B2000000E761B000E771B000E781B800E791BA3
:102B30007651725D7751735978517459795175593D
:102B4000D8B002D0D8901200D8801200000E876E44
:102B5000000E866E000E836E000E846E000E856E73
:102B6000020E8C6EE00E886EC70E896E990E8A6E0C
:102B7000E30E8B6E1C0E0F01266F660E216FF80E92
:102B8000196F050E2E6F1F0E116F060E256F000EAA
:102B90002D6F000E186FC00E106F000E206F000E0C
:102BA0002C6F000E0F6F000E176F000E1F6F000EC0
:102BB000246F0E6916691E692369070E2B6F0D6954
:102BC00015691D6922690F0E2A6F0A9B0A9D0A9FCB
:102BD0000B8B0B8D0B8F0C9B0C9F1A911B811C91E7
:102BE000260E0001726F430E736F010E746F81EC3D
:102BF000A6F0920E0001726F460E736F010E746F95
:102C00007AECA6F0C80E0001726F4D0E736F010EC4
:102C1000746F73ECA6F0D60E0001726F420E736FE4
:102C2000010E746F6CECA6F00E01C289130EB76F23
:102C3000170EB56F0F0EFA6F060EF86F100EFB6FC2
:102C4000050EF96F090EFD6F140EB86F1200839018
:102C50008392040E00017B6F400E7A6F260EE82EE1
:102C6000FED77A2FFCD77B2FFAD700F0030E4AEC61
:102C70009DF0680E00017A6FE40EE82EFED77A2FE1
:102C8000FCD700F0030E4AEC9DF0680E00017A6F4D
:102C9000E40EE82EFED77A2FFCD700F0030E4AECA4
:102CA0009DF0680E00017A6FE40EE82EFED77A2FB1
:102CB000FCD700F0020E4AEC9DF0680E00017A6F1E
:102CC000E40EE82EFED77A2FFCD700F0000E0001AC
:102CD000776F280E81ECA3F0680E00017A6FE40E86
:102CE000E82EFED77A2FFCD700F0000E0001776F98
:102CF0000C0E81ECA3F0A70E00017A6F3A0EE82EBD
:102D0000FED77A2FFCD700F054ECA5F0680E000136
:102D10007A6FE40EE82EFED77A2FFCD700F0000E73
:102D20000001776F060E81ECA3F0680E00017A6F48
:102D3000E40EE82EFED77A2FFCD700F054ECA5F075
:102D40008380120000018F51726F736B746B756B0F
:102D5000000E766F2F0E776F3A0E786F000E796F38
:102D60009CECA0F0F40E000172257E6F010E732121
:102D70007F6F000E7421806F000E7521816FE80E49
:102D8000826F030E836F000E846F000E856F1BEC45
:102D90009EF07EC094F07FC095F080C096F081C018
:102DA00097F094C090F095C091F096C092F097C0C3
:102DB00093F00001D89093339233913390338BC0CA
:102DC00072F08CC073F08DC074F08EC075F0E80E98
:102DD000766F030E776F000E786F000E796F9CECA4
:102DE000A0F00001905172257E6F915173217F6F89
:102DF00092517421806F93517521816F94C082F03C
:102E000095C083F096C084F097C085F01BEC9EF0CF
:102E10007EC08BF07FC08CF080C08DF081C08EF0C2
:102E2000120000018D358E35946F9451D8A409D0CD
:102E3000000E8B6F000E8C6F000E8D6F000E8E6F6C
:102E400012008BC08FF08CC090F08DC091F08EC0BE
:102E500092F0200E05D0D8909233913390338F3377
:102E6000E82EF9D78F51936F8D8FFF0E8B17FF0EC2
:102E70008C17FF0E8D17000E8E17960E945F94AF71
:102E800016D09451800A970FD8B009D0000E8B6FDE
:102E9000000E8C6F000E8D6F000E8E6F1200D8909A
:102EA0008E338D338C338B33943FF9D715D01F0E6F
:102EB00094650FD0000E8B6F000E8C6F000E8D6F1F
:102EC000000E8E6F1200D8908B378C378D378E376F
:102ED00094079451D8A4F7D79351D8B408D08E1F33
:102EE0008D1F8C1F8B6D000E8C238D238E238BC02A
:102EF0008BF08CC08CF08DC08DF08EC08EF01200E7
:102F0000000E0001776F040E81ECA3F0910E00011A
:102F1000A05D010EA159D8A007D0F70E796FFF0E62
:102F20007A6F2CECA3F054D00001A051A111D8A4C9
:102F300007D0F30E796FFF0E7A6F2CECA3F048D018
:102F4000010E0001776FA0C072F0A1C073F0000EF7
:102F5000756F0A0E746F4EECA2F000017251300FC3
:102F600081ECA3F0010E0001A26FA15104E10A0E51
:102F7000A05DD8A02AD0A0C072F0A1C073F0000E4E
:102F8000756F0A0E746FC8ECA0F072C0A0F073C029
:102F9000A1F0010E0001776FA0C072F0A1C073F024
:102FA000000E756F0A0E746F4EECA2F000017251A4
:102FB000300F81ECA3F00001A22BD7D7010E776F61
:102FC000300E81ECA3F00001A22B020EA265F6D711
:102FD000000E0001776F060E81ECA3F012003E3464
:102FE0003F34456E4550D8A409D0000E3C6E000E0B
:102FF0003D6E000E3E6E000E3F6E12003CC040F073
:103000003DC041F03EC042F03FC043F0200E05D02D
:10301000D8904332423241324032E82EF9D7405004
:10302000446E3E8EFF0E3C16FF0E3D16FF0E3E1602
:10303000000E3F16960E455E45AE16D04550800AEE
:10304000970FD8B009D0000E3C6E000E3D6E000EFA
:103050003E6E000E3F6E1200D8903F323E323D323F
:103060003C32453EF9D715D01F0E45640FD0000EF7
:103070003C6E000E3D6E000E3E6E000E3F6E120066
:10308000D8903C363D363E363F3645064550D8A4AE
:10309000F7D74450D8B408D03F1E3E1E3D1E3C6CAE
:1030A000000E3D223E223F223CC03CF03DC03DF0A0
:1030B0003EC03EF03FC03FF0120000018D51726FE4
:1030C000736B746B756B000E766F2F0E776F3A0E05
:1030D000786F000E796F9CECA0F0F40E0001722561
:1030E0007E6F010E73217F6F000E7421806F000EC2
:1030F0007521816FE80E826F030E836F000E846F5F
:10310000000E856F1BEC9EF07EC093F07FC094F0A4
:1031100080C095F081C096F093C08FF094C090F07D
:1031200095C091F096C092F00001D89092339133FF
:1031300090338F338BC072F08CC073F0746B756BEF
:1031400093C076F094C077F095C078F096C079F08F
:103150009CECA0F000018F5172257E6F905173217D
:103160007F6F91517421806F92517521816FE80EAC
:10317000826F030E836F000E846F000E856F1BEC51
:103180009EF07EC08BF07FC08CF080C08DF081C03F
:103190008EF01200000120EE02F07251D926735118
:1031A000DA22DE50DE10D8A402D0000E120072C067
:1031B000D9FF73C0DAFFDE50E45DDE50E559D8B0C8
:1031C00036D072C0D9FF73C0DAFFDECF74F0DDCF26
:1031D00075F0741F751F744B752BFF0E7425786F77
:1031E000FF0E7521796F72C0D9FF73C0DAFFDECF91
:1031F00074F0DDCF75F0741F751F744B752BE4519F
:103200007427E5517523785174277951752320EE81
:1032100002F07251D9267351DA227451DE5C755175
:10322000DE58D8B002D0010E1200000E120072C09B
:10323000D9FF73C0DAFFDECF74F0DDCF75F0741FF5
:10324000751F744B752BE4517427E551752320EEDF
:1032500002F07251D9267351DA227451DE5C755135
:10326000DE58D8B002D0010E1200000E1200CCC001
:1032700089F0CDC08AF0F60E00018B6F010E8C6FC5
:10328000F70E8D6F010E8E6FBFEC8EF00009D8B473
:103290001200B00E00017B6FF00E7C6F010E7D6F8F
:1032A000060E7E6FCCC0D9FFCDC0DAFFDF5000EC38
:1032B0009DF0F60E00018F6F010E906FF70E916F6B
:1032C000010E926FF00E936F010E946FCCC0D9FF78
:1032D000CDC0DAFFDF50D8EC93F0CCC0D9FFCDC021
:1032E000DAFFDF500EEC83F0CCC0D9FFCDC0DAFF9F
:1032F000DF5008ECA2F0CCC09DF0CDC09EF01DECDC
:1033000091F0000120EE08F0CC51D926CD51DA22FF
:103310009DC0DEFF9EC0DEFF9FC0DEFFA0C0DEFFBF
:10332000010E7B6FE80E7C6FCCC0D9FFCDC0DAFFF9
:10333000DF503AECA0F0CCC0A2F0CDC0A3F08CECF2
:103340008AF01200000E126E10AE0AD0101E0F1E70
:103350000E1E0D6C000E0E220F221022010E126E98
:103360000CAE0AD00C1E0B1E0A1E096C000E0A229F
:103370000B220C22010E121A000E136E000E146E98
:10338000000E156E000E166E0D500E100F10101060
:10339000D8B42AD0010E116E06D0D8900D360E3654
:1033A0000F361036112A10AEF8D7D89013361436CF
:1033B000153616360D50095C0E500A580F500B5832
:1033C00010500C58D8A009D00D50095E0E500A5A62
:1033D0000F500B5A10500C5A1380D89010320F32E5
:1033E0000E320D32112EE1D71250D8B408D0161E6D
:1033F000151E141E136C000E14221522162213C063
:1034000009F014C00AF015C00BF016C00CF0120041
:10341000000E0001776F040E81ECA3F0010E000195
:10342000776F79C072F07AC073F0000E756F0A0E74
:10343000746F4EECA2F000017251300F81ECA3F0DA
:10344000010E00017C6F2CD07B517C19D8A405D0D3
:10345000010E776F2E0E81ECA3F079C072F07AC066
:1034600073F0000E0001756F0A0E746FC8ECA0F0C7
:1034700072C079F073C07AF0010E0001776F79C0E5
:1034800072F07AC073F0000E756F0A0E746F4EEC16
:10349000A2F000017251300F81ECA3F000017C2BEF
:1034A0007C517B5DD8B0D0D77A51CEE10A0E795DE0
:1034B000D8A008D0C9D7010E776F300E81ECA3F0E9
:1034C00000017C2B040E7C65F6D7000E776F060E8C
:1034D00081ECA3F01200800E00017B6F010E7C6F67
:1034E00086C0D9FF87C0DAFFDF503AECA0F0FF0EAC
:1034F00000017B6F010E7C6F86C0D9FF87C0DAFFA9
:10350000DF503AECA0F0000E00017B6F000E7C6FE4
:1035100086C0D9FF87C0DAFFDF503AECA0F0910EE9
:1035200000017B6F20EE01F08651D9268751DA2207
:10353000DF507C6F86C0D9FF87C0DAFFDF503AECDE
:10354000A0F0000E00017B6F010E7C6F86C0D9FFDA
:1035500087C0DAFFDF503AECA0F0FF0E00017B6F6E
:10356000000E7C6F86C0D9FF87C0DAFFDF503AECCF
:10357000A0F0800E00017B6F000E7C6F86C0D9FF2B
:1035800087C0DAFFDF503AECA0F012000001E751EB
:10359000010D000EF324D96E010EF420DA6E000E38
:1035A000DF6E9DA416D0E751010D000EF324D96EF5
:1035B000010EF420DA6E0101DF8201D80AD0050085
:1035C000FA6EC951FD6ECA51FE6ECB51FF6EFA50B4
:1035D00012009DA217D00001E751010D000EF32447
:1035E000D96E010EF420DA6E0101DF8401D80AD011
:1035F0000500FA6EC651FD6EC751FE6EC851FF6ED2
:10360000FA5012000001E751010D000EF324D96EAB
:10361000010EF420DA6EDF50D8B40DD001D81200BC
:103620000500FA6E0101C351FD6EC451FE6EC55115
:10363000FF6EFA5012002FECA5F0120000018E6F01
:10364000020E0001916F7F0E726F000E736F7B0E82
:10365000746F000E756F010E766F8EC077F0786B09
:103660002BECA2F0840E0001726F000E736F900EAF
:10367000746F000E756F010E766F8EC077F0786BE9
:10368000F2ECA0F0890E0001726F000E736F8F0EC6
:10369000746F000E756F010E766F8EC077F0786BC9
:1036A000F2ECA0F014D07F0E0001726F000E736F69
:1036B000910E746F000E756F030EC9EC9BF0020E35
:1036C00000019119D8B4FBD79151D8B404D00001AE
:1036D0009105D8A4E8D790517E6F7D6B8F517D13F3
:1036E0007DC07BF07EC07CF01200000E00017B6F7D
:1036F0008B5101097C6F89C0D9FF8AC0DAFFDF5086
:103700003AECA0F08D0E0001726F000E736F20EE88
:1037100003F08951D9268A51DA22DECF74F0DDCF49
:1037200075F0E0ECA4F00CD08D0E0001726F000E6D
:10373000736FCAEC98F00009D8B402D0000E1200E2
:10374000130E00017B6F89C0D9FF8AC0DAFFDF50FA
:10375000DFEC9EF000018C6F070E8C17D8B4E4D715
:103760000B0E7B6F010E7C6F89C0D9FF8AC0DAFF18
:10377000DF503AECA0F0000E00017B6F000E7C6F72
:1037800089C0D9FF8AC0DAFFDF503AECA0F0010E01
:1037900012000001776F0001D7B139D074C0D9FF92
:1037A00075C0DAFF020EDF6E20EE01F0D351D9268C
:1037B000D451DA2272C0DEFF73C0DDFFD3C0D9FF5F
:1037C000D4C0DAFF77C0DFFF20EE03F0D351D92653
:1037D000D451DA2274C0DEFF75C0DDFF050ED32799
:1037E000000ED423BA0ED31908E1010ED419D8A4BF
:1037F00004D0B50ED36F010ED46FD793D351D51922
:103800000CE1D451D619D8A408D0D78106D074C001
:10381000D9FF75C0DAFF010EDF6E74C0D9FF75C025
:10382000DAFF020EDE18D8A41200C1ECA6F00E01D9
:10383000CD811200000E00017A6F000E7B6F000E2A
:103840007C6F000E7D6F000E796F000E786F7251E5
:103850007311D8B439D0FF0E746FFF0E756F72C03C
:1038600076F073C077F0745176277551772376C060
:103870007AF077C07BF07C6B7D6B07D0D8907D337E
:103880007C337B337A33784B792B000E7A15746F47
:10389000FF0E7B15756FFF0E7C15766FFF0E7D1585
:1038A000776F7451751176117711D8A4E7D77A51D3
:1038B00078C074F079C075F074C075F0746B7411D1
:1038C000726F7551736F1200000E736F000E726F7E
:1038D00012000E01C59B8C0E0001726F350E736FC6
:1038E000010E746F8FECA6F00E01C599360E000123
:1038F000726F480E736F010E746F88ECA6F0080E9D
:103900009F6E900E9D6E240E9E6E8A0E9B6E000E14
:103910009C6ECA0E0001726F4D0E736F010E746FB4
:103920009DECA6F0900E0001726F4D0E736F010EAC
:10393000746F96ECA6F0960E0001726F4D0E736FC9
:10394000010E746FA4ECA6F0000E0001E66F000EED
:10395000E96F000EE86F080EEC6F000EE76F000EC7
:10396000556E000E546E0E01C58B12000001836F60
:10397000020E00018E6F7BC081F0840E726F000E0C
:10398000736F810E746F000E756F020E766F83C0B9
:1039900077F0786B2BECA2F0890E0001726F000EAD
:1039A000736F7CC074F07DC075F07EC076F083C00C
:1039B00077F0786B2BECA2F0000E0001806F000E08
:1039C0007F6F1AD0840E726F000E736F8E0E746F3D
:1039D000000E756F020EC9EC9BF0020E00018E19ED
:1039E000D8B4FBD78E51D8B41200640E7F19801161
:1039F000D8B412007F4B802B8E05D8B41200E2D7CA
:103A00000001836F020E00018E6F7BC081F0840E77
:103A1000726F000E736F810E746F000E756F020E61
:103A2000766F83C077F0786B2BECA2F0890E0001E3
:103A3000726F000E736F7CC074F07DC075F07EC035
:103A400076F083C077F0786BF2ECA0F0000E000106
:103A5000806F000E7F6F1AD0840E726F000E736F2E
:103A60008E0E746F000E756F020EC9EC9BF0020E85
:103A700000018E19D8B4FBD78E51D8B41200640E51
:103A80007F198011D8B412007F4B802B8E05D8B4DB
:103A90001200E2D70001736F000173A103D0726BB3
:103AA000722B02D00001726B7247724783507219F9
:103AB000FB0B7219836E73A303D0726B722B02D04F
:103AC0000001726B72477247724783507219F70B8D
:103AD0007219836E73A503D0726B722B02D0000132
:103AE000726B723B83507219EF0B7219836E73A75E
:103AF00003D0726B722B02D00001726B8750721967
:103B0000FE0B7219876E8382E40E00D000D0E82E7F
:103B1000FCD700D000D08392E40E00D000D0E82E75
:103B2000FCD700D000D01200130E00017B6F92C0B2
:103B3000D9FF93C0DAFFDF50DFEC9EF00001946FF5
:103B4000070E9417D8A415D0970E726F000E736FDE
:103B5000CAEC98F00009D8B40CD0000120EE05F0B2
:103B60009251D9269351DA22010EDF6E9269936940
:103B700012001E0E00017B6F92C0D9FF93C0DAFFC6
:103B8000DF501EEC9BF07BC095F07CC096F00B0ED6
:103B900000017B6F010E7C6F92C0D9FF93C0DAFFEA
:103BA000DF503AECA0F095C092F096C093F012006E
:103BB000000E0001776F75AF06D0746D751FD8B019
:103BC000752B010E776F73AF06D0726D731FD8B06F
:103BD000732B010E771B000E796F000E786F7451F6
:103BE0007511D8B41CD0010E766F04D0D8907437FC
:103BF0007537762B75AFFAD7D890783779377451F7
:103C0000725D75517359D8A005D07451725F7551AA
:103C1000735B7881D89075337433762FEDD77751F5
:103C2000D8B404D0786D791FD8B0792B78C072F0F1
:103C300079C073F01200000E0001866F000E876FCE
:103C4000000E886F000E896F8251831184118511D7
:103C5000D8B42AD0010E8A6F06D0D8908237833725
:103C6000843785378A2B85AFF8D7D8908637873742
:103C70008837893782517E5D83517F5984518059BD
:103C800085518159D8A009D082517E5F83517F5BD5
:103C90008451805B8551815B8681D89085338433E4
:103CA000833382338A2FE1D786C07EF087C07FF0CE
:103CB00088C080F089C081F01200010E00017B6F86
:103CC00089C0D9FF8AC0DAFFDF50DFEC9EF0000127
:103CD0008B6F20EE0CF08951D9268A51DA228B396C
:103CE0000F0B010BDF6E20EE0EF08951D9268A51A1
:103CF000DA228B39E8461F0B010BDF6E20EE0DF048
:103D00008951D9268A51DA228B41E8423F0B010BB7
:103D1000DF6E20EE0FF08951D9268A51DA228B45C9
:103D2000E846030B010BDF6E20EE10F08951D92617
:103D30008A51DA228B45010BDF6E12000001A66F5B
:103D40000001A5BF1200B80E726FFE0E736FFF0E5A
:103D5000746F430E756FA2C076F0A3C077F0A4C055
:103D600078F0A5C079F015EC95F00001D8A012000C
:103D7000440E956F000E766F000E776F000E786F11
:103D8000430E796FA2C072F0A3C073F0A4C074F0A8
:103D9000A5C075F09DEC85F072C08BF073C08CF0FF
:103DA00074C08DF075C08EF011EC97F08BC096F05A
:103DB0008CC097F00001A65106ECA0F012000001A3
:103DC0007C6F020E0001886F7D0E726F000E736FA4
:103DD0007B0E746F000E756F010E766F7CC077F0EE
:103DE000786B2BECA2F0820E0001726F000E736FE5
:103DF000870E746F000E756F010E766F7CC077F0C2
:103E0000786BF2ECA0F014D07D0E0001726F000E02
:103E1000736F880E746F000E756F020EC9EC9BF005
:103E2000020E00018819D8B4FBD78851D8B404D049
:103E300000018805D8A4E8D787511200F80E0001C8
:103E40007B6F92C0D9FF93C0DAFFDF501EEC9BF06E
:103E50007BC098F07CC099F0000198519911D8B4BA
:103E600018D094C072F095C073F096C074F097C0EB
:103E700075F098C076F099C077F0786B796B9CEC10
:103E8000A0F072C094F073C095F074C096F075C045
:103E900097F0040E00017B6F94C07CF095C07DF01C
:103EA00096C07EF097C07FF092C0D9FF93C0DAFF32
:103EB000DF5099EC9FF01200010E00017B6F010EA4
:103EC0007C6F91C0D9FF92C0DAFFDF503AECA0F0CE
:103ED00091C089F092C08AF0400E00018B6F75ECA2
:103EE0009BF00009D8B41200010E00017B6F020E96
:103EF0007C6F91C0D9FF92C0DAFFDF503AECA0F09E
:103F000091C089F092C08AF0000E00018B6F75ECB1
:103F10009BF00009D8B41200010E00017B6FE80E7F
:103F20007C6F91C0D9FF92C0DAFFDF503AECA0F06D
:103F300012000001806F020E00018B6F7BC081F0C8
:103F40007FC082F07EC083F07DC084F07CC085F0AD
:103F5000860E726F000E736F810E746F000E756F98
:103F6000050E766F80C077F0786B2BECA2F014D042
:103F7000860E0001726F000E736F8B0E746F000E51
:103F8000756F010EC9EC9BF0020E00018B19D8B4BD
:103F9000FBD78B51D8B4120000018B05D8B41200A6
:103FA000E7D79AC086F09BC087F06BEC9AF00001CF
:103FB0009C519D119E119F11D8B41BD09AC092F0B4
:103FC0009BC093F09CC094F09DC095F09EC096F06D
:103FD0009FC097F01EEC9FF0000E00017B6F040E57
:103FE0007C6F9AC0D9FF9BC0DAFFDF503AECA0F09B
:103FF0001200000E00017B6F020E7C6F9AC0D9FF89
:104000009BC0DAFFDF503AECA0F012000001986F7D
:10401000020E0001A16F95C099F097519A6F96C05A
:104020009BF09C0E726F000E736F990E746F000EF2
:10403000756F030E766F98C077F0786B2BECA2F05B
:1040400014D09C0E0001726F000E736FA10E746F7E
:10405000000E756F010EC9EC9BF0020E0001A11954
:10406000D8B4FBD7A151D8B412000001A105D8B42F
:104070001200E7D700017D6F020E0001856F7BC043
:104080007EF07CC07FF0800E726F000E736F7E0E2C
:10409000746F000E756F020E766F7DC077F0786BCF
:1040A0002BECA2F014D0800E0001726F000E736F23
:1040B000850E746F000E756F010EC9EC9BF0020E39
:1040C00000018519D8B4FBD78551D8B4120000017E
:1040D0008505D8B41200E7D7000120EE05F0725133
:1040E000D9267351DA22000EDF6E20EE03F07251F2
:1040F000D9267351DA22000EDE6E000EDD6E20EE40
:1041000008F07251D9267351DA22DE6ADE6ADE6A5D
:10411000DD6A20EE01F07251D9267351DA22000EC9
:10412000DF6E20EE06F07251D9267351DA22000EAE
:10413000DE6E000EDD6E1200000E00017A6F000EC2
:104140007B6F000E7C6F000E7D6F72A108D07651E0
:104150007A2777517B2378517C2379517D23D8901E
:104160007637773778377937D89075337433733338
:1041700072337251731174117511D8A4E6D77AC0D5
:1041800072F07BC073F07CC074F07DC075F01200DB
:10419000000E0001786F000E776F74517511D8B45E
:1041A0001CD0010E766F04D0D89074377537762BFB
:1041B00075AFFAD7D890773778377451725D7551EB
:1041C0007359D8A005D07451725F7551735B7781B4
:1041D000D89075337433762FEDD777C072F078C0EE
:1041E00073F0120077C079F078C07AF0D8900001AF
:1041F00079377A3772C0D9FF73C0DAFF79C0DEFF32
:104200007AC0DDFF72C0D9FF73C0DAFF000EDB8019
:1042100020EE02F07251D9267351DA2276C0DFFF08
:1042200020EE03F07251D9267351DA2274C0DEFFFA
:1042300075C0DDFF1200000ECA6E000ECB6E010EBF
:10424000CC6E000EC86E000EC76EC750C8CF75F09A
:104250000001766B75C076F0756B75110101E16F29
:10426000000176510101E26F0E01CE95C685420E26
:104270000001726F4B0E736F010E746F57ECA6F056
:10428000300EC96E1200000ED06E000ED16E010EFF
:10429000D26E000ECE6E000ECD6ECD50CECF75F02C
:1042A0000001766B75C076F0756B75110101E36FD7
:1042B000000176510101E46F0E01CE91C6815E0EC0
:1042C0000001726F4B0E736F010E746F5EECA6F0FF
:1042D000300ECF6E1200DCECA6F0D80E096E530E35
:1042E0000A6E010E0B6E000E0C6E64ECA5F001C0A0
:1042F0000DF002C00EF00F6A106AA2EC99F009C02E
:10430000E0F00AC0E1F090A005D00001E06DE11FEF
:10431000D8B0E12B000E026E000E016EBDECA5F0D0
:10432000DEECA6F01200E0ECA6F0D80E096E530EFB
:104330000A6E010E0B6E000E0C6E74ECA5F001C03F
:104340000DF002C00EF00F6A106AA2EC99F009C0DD
:10435000E2F00AC0E3F091B205D00001E26DE31F84
:10436000D8B0E32B000E026E000E016ECBECA5F070
:10437000E2ECA6F01200620EF66E4D0EF76E010E24
:10438000F86E01EEE5F010EE0BF00900F5CFEEFF50
:10439000E550E150FAE101EE00F0BA0EEE6AE806EF
:1043A000FDE100EED3F0170EEE6AE806FDE100EE47
:1043B0004CF0100EEE6AE806FDE15C905C920001A4
:1043C00000EF80F0000E6A6E000E6B6E000E6C6ED9
:1043D000000E6D6E000E686E000E696E000E666E49
:1043E000000E0F015F6F000E5D6F000E596F000E23
:1043F0005A6F000E5B6F000E656E000E586F000E58
:10440000566F330E576F840E606E000E5C6F120095
:1044100000018A6F0A0E00017B6F040E7C6F8A51C7
:104420003AECA0F0840E00017B6F8A51DFEC9EF025
:104430000001896F840E7B6F8951EF0B7C6F8A516D
:104440003AECA0F00B0E00017B6F010E7C6F8A51DD
:104450003AECA0F0120077C079F078C07AF0D890EA
:10446000000179377A3772C0D9FF73C0DAFF79C09B
:10447000DEFF7AC0DDFF20EE02F07251D9267351C3
:10448000DA2276C0DFFF20EE03F07251D926735195
:10449000DA2274C0DEFF75C0DDFF12000001745126
:1044A0007511D8B418D0010E766F04D0D890743737
:1044B0007537762B75AFFAD77451725D7551735994
:1044C000D8A004D07451725F7551735BD890753366
:1044D0007433762FF1D772C072F073C073F012008C
:1044E00000018B6F00018951D8A40BD0500E7B6F57
:1044F0008B51DFEC9EF000018A6FD8908A35020F55
:1045000012008905D8A40BD0700E7B6F8B51DFECA5
:104510009EF000018A6FD8908A35020F1200FF0EBC
:104520001200400ED66EC10ED46E800ED36ED350E4
:10453000D4CF75F00001766B75C076F0756B751190
:10454000EA6F7651EB6F0E01CA9BC28B3C0E0001E5
:10455000726F4C0E736F010E746F65ECA6F0900EC7
:10456000D56E12000001726F12D08EA002D0010E23
:104570001200000E12008EA202D0010E1200000ED8
:1045800012008EA402D0010E1200000E12000001D3
:104590007251000AD8B4E9D7010AD8B4ECD7030A9B
:1045A000D8A41200EED7036E978420EE03F050508B
:1045B000D9265150DA22DE50DE10D8B410D020EEC9
:1045C00003F05050D9265150DA22DECF01F0DDCF72
:1045D00002F001C0D9FF02C0DAFF03C0DFFF000E06
:1045E000596E120092C094F093C095F095C094F06B
:1045F0000001956BFF0E9215966F000E9315976F45
:10460000942B03D0D89096379737942FFBD7010E71
:1046100000019625926F000E9721936F1200DAEC3D
:10462000A6F093ECA5F0A6EC95F0E5ECA5F066EC11
:10463000A3F008ECA6F0E2ECA1F0E9ECA3F084EC26
:10464000A5F091ECA2F013ECA6F01BECA1F043EC6A
:10465000A1F069EC9CF0120010D0010E0001776F00
:1046600079C0F6FF7AC0F7FF000EF86E0800F5502B
:1046700081ECA3F00001794B7A2B79C0F6FF7AC068
:10468000F7FF000EF86E0800F5500009D8B41200CC
:10469000E4D72A0E016E8E0EE82EFED7012EFCD72F
:1046A0008DAC90A204D00101344B352B07D08DACDA
:1046B00090B204D001013407D8A035072A0E016E4C
:1046C0008E0EE82EFED7012EFCD71200B50E00018B
:1046D000D56F010ED66FB50ED36F010ED46FD78391
:1046E000D791000ED96F000E956E280E966E000EB3
:1046F000986E270E936E0E01CD91CD93C581C58323
:1047000012000001786F00017751D8A402D0839085
:1047100001D08380E40E00D000D0E82EFCD700D07A
:1047200000D0000178390F0B4AEC9DF00001785160
:104730000F0B4AEC9DF012000E01CE95E1C101F085
:10474000E2C102F0BDECA5F00101BA51BB11BC11F0
:10475000D8B4120001D812000500FA6EBA51FD6EED
:10476000BB51FE6EBC51FF6EFA5012000E01CE918D
:10477000E3C101F0E4C102F0CBECA5F00101BD51B1
:10478000BE11BF11D8B4120001D812000500FA6E94
:10479000BD51FD6EBE51FE6EBF51FF6EFA5012004C
:1047A000CEC072F0CFC073F06CECA0F0CEC0A7F01A
:1047B000CFC0A8F079EC94F0CEC0CCF0CFC0CDF053
:1047C00037EC99F0CEC091F0CFC092F05CEC9FF046
:1047D0001200040EB96E000EB86E000EBA6E4D0EC9
:1047E000B66E000EB56E0E01CE97C687320E000172
:1047F000726F180E736F010E746F50ECA6F0A00E5E
:10480000B76E12000E01CA9B0001EB51D46EEAC0D4
:10481000D3FF0101CC51CD11CE11D8B4120001D873
:1048200012000500FA6ECC51FD6ECD51FE6ECE51D8
:10483000FF6EFA501200080E0001EC6112D0E85130
:10484000010D100EF324D96E010EF420DA6EDF5044
:104850009A6EE82B070EE86502D0000EE86FEC2B8D
:1048600012000E01C599120000017A6F83900001B9
:104870007A51D8A407D0000E776F7951800F81EC60
:10488000A3F01200000E0001776F7951C00F81EC88
:10489000A3F0120000019D6F00019D51270D360EFF
:1048A000F324926F010EF420936F94EC9DF092C06C
:1048B0009EF093C09FF09EC09BF09FC09CF01200A2
:1048C000FF0E0116030E0216A8A80BD0060ED890F4
:1048D00001360236E82EFBD70250A76E01C0A6FFB4
:1048E00012000250A76E01C0A6FF1200FF0E0116B3
:1048F000030E0216ACA80BD0060ED8900136023675
:10490000E82EFBD70250AB6E01C0AAFF1200025086
:10491000AB6E01C0AAFF12000101CF51D011D1111D
:10492000D8B40CD001D80AD00500FA6ECF51FD6E74
:10493000D051FE6ED151FF6EFA5012000F011A9144
:1049400012000101D251D311D411D8B40CD001D826
:104950000AD00500FA6ED251FD6ED351FE6ED451CD
:10496000FF6EFA5012000F010A9F12000101D5518B
:10497000D611D711D8B40CD001D80AD00500FA6EE0
:10498000D551FD6ED651FE6ED751FF6EFA50120012
:104990000F010A9D12000101D851D911DA11D8B4C2
:1049A0000CD001D80AD00500FA6ED851FD6ED9514D
:1049B000FE6EDA51FF6EFA5012000F010A9B1200D0
:1049C000000120EE02F07251D9267351DA2274C030
:1049D000DEFF75C0DDFF72C0D9FF73C0DAFFE4C02F
:1049E000DEFFE5C0DDFF12000001766F76C05FFFDD
:1049F000608E609C608060B0FED764500001756F6F
:104A0000746B63507425726F000E7521736F120002
:104A10000E01CE970101C051C111C211D8B41200CC
:104A200001D812000500FA6EC051FD6EC151FE6E34
:104A3000C251FF6EFA5012000001796F00017951E6
:104A4000D8B406D0010E776F310E81ECA3F01200BE
:104A5000010E0001776F300E81ECA3F0120000010F
:104A6000E751010D080EF324D96E010EF420DA6E21
:104A700099CFDFFFE72B070EE76502D0000EE76F47
:104A8000542A12000F010ABBCBECA4F00F010ABD9F
:104A9000B6ECA4F00F010ABFA1ECA4F00F011AA11B
:104AA00012008CECA4F01200000E0001776F010ED2
:104AB00081ECA3F02A0E0001796F8D0EE82EFED74F
:104AC000792FFCD700D01200C982C7CF08F0C8CF19
:104AD00007F00750036E0850056E03C006F005C0CE
:104AE00001F006C002F01200CF82CDCF08F0CECF89
:104AF00007F00750036E0850056E03C006F005C0AE
:104B000001F006C002F01200010EBF6E000EBE6E74
:104B1000000EC06EC70EBC6E000EBB6E0E01CE93B3
:104B2000A00EBD6E1200000E0E01E16F000EE26FCE
:104B3000000EE36F000EE46F000EE56F000EE66FEF
:104B40001200DCECA6F0000E0001E16F000EE06F39
:104B5000000E026E000E016EBDECA5F01200E0EC3E
:104B6000A6F0000E0001E36F000EE26F000E026E71
:104B7000000E016ECBECA5F01200C9A407D0C990BD
:104B80000250C86E01C0C7FFC98012000250C86E33
:104B900001C0C7FF1200CFA407D0CF900250CE6E45
:104BA00001C0CDFFCF8012000250CE6E01C0CDFFFC
:104BB0001200000120EE03F07251D9267351DA225F
:104BC00074C0DEFF75C0DDFF1200600E0E01D86FED
:104BD000000EDA6F000EDC6F080EDE6F000EDD6F68
:104BE0001200050E5226000E5322582E03D0040E3A
:104BF000596E1200010E596E12000001866F8A0E66
:104C000000017B6F86C07CF0290E3AECA0F0120008
:104C10008C0EA86E010EA76E8F0EA66EAE50F30B13
:104C20000409AE6E12008C0EAC6E010EAB6E8F0ED0
:104C3000AA6EAE50FC0B0109AE6E12000001E44BEF
:104C4000E52B010E01012827000E29232A232B23FF
:104C500012000001726F00017251D8B402D0878433
:104C60001200879412000001726F00017251D8B4D3
:104C700002D086861200869612000001726F000133
:104C80007251D8B402D0848812008498120072C085
:104C900032F173C033F174C030F175C031F11200DC
:104CA00072C0C0F173C0C1F174C0C2F1120072C011
:104CB000BAF173C0BBF174C0BCF1120072C0BDF197
:104CC00073C0BEF174C0BFF1120072C0CCF173C0EA
:104CD000CDF174C0CEF1120072C0CFF173C0D0F12B
:104CE00074C0D1F1120072C0D2F173C0D3F174C09C
:104CF000D4F1120072C0D5F173C0D6F174C0D7F1EF
:104D0000120072C0D8F173C0D9F174C0DAF1120088
:104D100072C0DEF173C0DFF174C0E0F1120072C046
:104D2000DBF173C0DCF174C0DDF1120072C0C6F1BA
:104D300073C0C7F174C0C8F1120072C0C9F173C06A
:104D4000CAF174C0CBF1120072C0C3F173C0C4F1D8
:104D500074C0C5F112008DAE02D0010E1200000E1B
:0D4D60001200292A2B900190019001900172
:104D6E0034C172F035C173F0120072C034F173C0E9
:104D7E0035F112005950D8B41200FCD70E01CD9364
:104D8E0012009D989D8812002FECA5F01200859AB6
:104D9E001200858A12008496120084861200849A6C
:104DAE001200848A1200F29A1200C9901200C98071
:0E4DBE001200CF901200CF80120012001200DF
:020000040020DA
:10000000FF0FFF0FFF0FFF0FFF0FFF0FFF0FFF0F80
:020000040030CA
:0C0000008CFFFFFF9FFFFFDFFFFFFFFFF3
:00000001FF
