:0400000099EF00F084
:100008005C82FACFD3F0FBCFD4F0E9CFD5F0EACFBA
:10001800D6F0E1CFD7F0E2CFD8F0D9CFD9F0DACF08
:10002800DAF0F3CFDBF0F4CFDCF0F6CFDDF0F7CF8A
:10003800DEF0F8CFDFF0F5CFE0F05CC0E1F05DC0B6
:10004800E2F05EC0E3F05FC0E4F00E01C2BBCAABF1
:1000580003D008EC14F043D0C2B9CAA903D0DDEC30
:1000680014F03DD0F2AC3BD0C5B3CDA303D035ECF2
:1000780016F035D0C5B1CDA103D03FEC0CF02FD090
:10008800C5B9CDA90BD001D82AD00500FA6E010157
:100098008951FD6E8A51FE6E8B510DD0C5BBCDAB1B
:1000A8000DD001D81CD00500FA6E01018651FD6EF5
:1000B8008751FE6E8851FF6EFA501200C6B7CEA760
:1000C80003D0B6EC14F00BD0C6B5CEA503D0A2EC85
:1000D80013F005D0C6B1CEA102D0BCEC13F0E4C039
:1000E8005FF0E3C05EF0E2C05DF0E1C05CF0E0C04C
:1000F800F5FFDFC0F8FFDEC0F7FFDDC0F6FFDCC0AC
:10010800F4FFDBC0F3FFDAC0DAFFD9C0D9FFD8C0EB
:10011800E2FFD7C0E1FFD6C0EAFFD5C0E9FFD4C0EF
:0E012800FBFFD3C0FAFF5C92110069EF12F0EA
:100F000000202020202048454C4C4F20202020202D
:100F1000200050524F4752414D4D45204D4F4920E2
:100F20002121002D2D2D0058414D00001250800B25
:100F30001B6E12501224216E11BE21802150D8B494
:100F40000DD02128D8A408D0000E0F6E000E106E10
:100F5000000E116E000E126E118E08D0000E0F6E74
:100F6000000E106E000E116E000E126E1650800BE9
:100F70001B1A16501624206E15BE20802050D8B49F
:100F80000DD02028D8A408D0000E136E000E146EC9
:100F9000000E156E000E166E158E08D0000E136E24
:100FA000000E146E000E156E000E166E2050D8B492
:100FB00003D02150D8A409D0000E0F6E000E106E81
:100FC000000E116E000E126E120015500F02F3CFBC
:100FD00026F0F4CF27F026501C6E1D6A1E6A1F6A89
:100FE0002750226E236A246A256A14501002F3CF18
:100FF00026F0F4CF27F026501C26000E1D221E22BC
:101000001F2227502226000E23222422252213509D
:101010001102F3CF26F0F4CF27F026501C26000E45
:101020001D221E221F2227502226000E23222422A8
:1010300025221EC01FF01DC01EF01CC01DF01C6A22
:1010400013501002F3CF26F0F4CF27F026501C26C1
:1010500027501D22000E1E22000E1F2214500F02C8
:10106000F3CF26F0F4CF27F026501C2627501D2260
:10107000000E1E22000E1F221EC01FF01DC01EF0FB
:101080001CC01DF01C6A13500F02F3CF26F0F4CFE2
:1010900027F026501C2627501D22000E1E22000E6F
:1010A0001F2215501002F3CF26F0F4CF27F0265060
:1010B000222627502322000E2422000E252214501F
:1010C0001102F3CF26F0F4CF27F026502226275026
:1010D0002322000E2422000E252215501102F3CFE8
:1010E00026F0F4CF27F02650176E2750186E196A95
:1010F0001A6A19C01AF018C019F017C018F0176A48
:101100001750222618502322195024221A50252223
:101110001CC017F01DC018F01EC019F01FC01AF037
:10112000190E05D0D8901A32193218321732E82E1B
:10113000F9D71750222618502322195024221A506A
:1011400025221EC01FF01DC01EF01CC01DF01C6A11
:10115000205021C017F0186A1726000E1822820EA0
:101160001724266EFF0E1820276E0FD0D890223637
:101170002336243625361FBE2280D8901C361D36D5
:101180001E361F362606D8A0270624AEEFD7000E3F
:10119000206E1FAE16D0FF0E1C14176EFF0E1D140E
:1011A000186EFF0E1E14196E7F0E1F141A6E175044
:1011B000181019101A10D8A402D022A002D0010EC3
:1011C000206E2050D8B41FD0010E2226000E2322FC
:1011D0002422252225A017D022C017F023C018F002
:1011E00024C019F025C01AF01A341A3219321832F4
:1011F000173217C022F018C023F019C024F01AC00B
:1012000025F0264A272A27BE0DD0275003E126289D
:10121000D8A008D0000E226E000E236E800E246E21
:101220007F0E20D027BE05D027500EE12604D8B06F
:101230000BD0000E226E000E236E000E246E000EE8
:10124000256E000E1B6E0FD026C021F0FF0E221659
:10125000FF0E23167F0E2416000E251621B0248EB5
:10126000D8902130256E1B50251222C00FF023C0CC
:1012700010F024C011F025C012F012002B50800B8A
:10128000386E2B502B243A6E2ABE3A803A50D8B48E
:101290000DD03A28D8A408D0000E286E000E296E72
:1012A000000E2A6E000E2B6E2A8E06D0000E286EBF
:1012B000000E296E000E2A6E000E2B6E2F50800B32
:1012C000396E38503918D8A4388C2F502F24396EE5
:1012D0002EBE39803950D8B40DD03928D8A408D0C2
:1012E000000E2C6E000E2D6E000E2E6E000E2F6E58
:1012F0002E8E06D0000E2C6E000E2D6E000E2E6E61
:10130000000E2F6E3A50395CD8B022D038AC02D0E3
:10131000800E381A3AC03BF039C03AF03BC039F081
:1013200028C03BF02CC028F03BC02CF029C03BF07B
:101330002DC029F03BC02DF02AC03BF02EC02AF072
:101340003BC02EF02BC03BF02FC02BF03BC02FF04A
:10135000000E3B6E3A50306E316A301E311E304AFC
:10136000312A3950326E336A3050322631503322AE
:1013700033BE2CD0335004E11A0E325CD8A026D0F4
:10138000285029102A102B10D8B402D0010E01D0F9
:10139000000E3B6E000E286E000E296E000E2A6EA7
:1013A000000E2B6E39C03AF015D03BA005D0D89076
:1013B0003B3001093B6E02D0D8903B3228B03B8EC7
:1013C0002B342B322A32293228323A2A39503A5CCD
:1013D000D8A0EBD738BC29D03A50D8A409D0000EF9
:1013E000286E000E296E000E2A6E000E2B6E120063
:1013F0002C5028262D5029222E502A222F502B22C5
:101400002BA083D03BA006D0D8903B323B500109A3
:101410003B6E02D0D8903B3228B03B8E2B342B321F
:101420002A32293228323A2A70D02C50285C2D508A
:1014300029582E502A582B50800A306E2F50800A7F
:101440003058D8B036D028C030F029C031F02AC08A
:1014500032F02BC033F0301E311E321E331E302AC4
:10146000000E3122322233222C503024346E2D5083
:101470003120356E2E503220366E2F503320376E8D
:10148000FF0E3424286EFF0E3520296EFF0E362005
:101490002A6EFF0E37202B6E800E381A3B6C3B50A5
:1014A000D8A40FD0010E2826000E29222A222B2292
:1014B00008D02C50285E2D50295A2E502A5A2F50D1
:1014C0002B5A285029102A102B10D8A41CD03B507E
:1014D000D8A419D0000E286E000E296E000E2A6EB8
:1014E000000E2B6E1200D890283629362A362B365D
:1014F0003BBE28803BA002D0D88001D0D8903B369C
:101500003A50D8A43A062AAEEED7000E396E3BAE5A
:101510000AD03BC030F07F0E3016D8A402D028A0ED
:1015200002D0010E396E3950D8B420D0010E2826D1
:10153000000E29222A222B222BA018D028C030F0FE
:1015400029C031F02AC032F02BC033F033343332AB
:1015500032323132303230C028F031C029F032C05E
:101560002AF033C02BF03A28D8A43A2A3A28D8B423
:1015700003D03A50D8A40DD0000E286E000E296E6C
:10158000000E2A6E000E2B6E3A50D8A402D0000E28
:10159000386E3AA002D02A8E01D02A9ED8903A30D6
:1015A0002B6E38BE2B8E28C028F029C029F02AC007
:1015B0002AF02BC02BF012009FC046F0A0C047F0CD
:1015C000461E471E464A472A000195514624916F00
:1015D00096514720926F000E136E000E146EA80EE7
:1015E000156E410E166E91C001F092C002F0000E11
:1015F00002BEFF0E036E046E010E62EC0EF001C01F
:101600000FF002C010F003C011F004C012F096EC0D
:1016100007F00FC02CF010C02DF011C02EF012C03A
:101620002FF0EAC001F0EBC002F0000E02BEFF0E88
:10163000036E046E010E62EC0EF001C028F002C0D1
:1016400029F003C02AF004C02BF03EEC09F028C0BA
:1016500048F029C049F02AC04AF02BC04BF0000ED8
:10166000136E000E146E980E156EC10E166E8FC09E
:1016700001F090C002F0000E02BEFF0E036E046E79
:10168000010E62EC0EF001C00FF002C010F003C0BA
:1016900011F004C012F096EC07F00FC02CF010C04F
:1016A0002DF011C02EF012C02FF048C028F049C014
:1016B00029F04AC02AF04BC02BF03EEC09F028C0BC
:1016C0003CF029C03DF02AC03EF02BC03FF006ECB4
:1016D00010F03CC04EF03DC04FF091C08FF092C072
:1016E00090F04FBE0AD0210E4E5C030E4F58D8A08A
:1016F00004D0030E4F6E200E05D04FAE04D0000E66
:101700004F6E000E4E6E4EC0EAF04FC0EBF09DC023
:1017100046F09EC047F0461E471E464A472A000133
:10172000935146248D6F945147208E6F000E136E97
:10173000000E146EA80E156E410E166E8DC001F0CF
:101740008EC002F0000E02BEFF0E036E046E010E8C
:1017500062EC0EF001C00FF002C010F003C011F0F7
:1017600004C012F096EC07F00FC02CF010C02DF062
:1017700011C02EF012C02FF0E8C001F0E9C002F055
:10178000000E02BEFF0E036E046E010E62EC0EF040
:1017900001C028F002C029F003C02AF004C02BF0D9
:1017A0003EEC09F028C048F029C049F02AC04AF0B0
:1017B0002BC04BF0000E136E000E146E980E156EBB
:1017C000C10E166E8BC001F08CC002F0000E02BE7E
:1017D000FF0E036E046E010E62EC0EF001C00FF0FE
:1017E00002C010F003C011F004C012F096EC07F034
:1017F0000FC02CF010C02DF011C02EF012C02FF031
:1018000048C028F049C029F04AC02AF04BC02BF04C
:101810003EEC09F028C03CF029C03DF02AC03EF063
:101820002BC03FF006EC10F03CC04CF03DC04DF03A
:101830008DC08BF08EC08CF04DBE0AD0210E4C5C5A
:10184000030E4D58D8A004D0030E4D6E200E05D0C7
:101850004DAE04D0000E4D6E000E4C6E4CC0E8F044
:101860004DC0E9F04EC001F04FC002F036EC14F06C
:101870004CC001F04DC002F04CEC14F012000E010F
:10188000CD9196AE02D1969E000E596E000120EECB
:1018900003F09951D9269A51DA22DECF04F0DDCF38
:1018A00005F004C0D9FF05C0DAFF010EDF6E000E9F
:1018B000996F000E9A6F1200000174B3120072C08B
:1018C00099F073C09AF072C0D9FF73C0DAFFDF508D
:1018D000586E20EE01F07251D9267351DA22DECF14
:1018E00050F0DDCF51F0050E7227000E7323B40EB9
:1018F000721908E1000E7319D8A404D0AF0E726FEC
:10190000000E736F74917051721904E17151731963
:10191000D8B474839780020E596E12009782020E1B
:10192000596E120097AC06D00001762B040EDAEC4B
:1019300012F01200D8905B30056E5A30046E0450DD
:10194000926E5AA003D00B0E596E1200030E596E00
:10195000120097AC06D00001762B040EDAEC12F0E0
:10196000120097825AC004F05BC005F005C004F075
:10197000056A060E0416000E0516F00E04105A6EC7
:1019800005505B6E5A80010E566E020E596E1200A3
:101990005604D8B41AD050C0D9FF51C0DAFFDECFF8
:1019A0005AF0DDCF5BF020EE03F05050D9265150B5
:1019B000DA22DECF97F0DDCF98F020EE02F0505023
:1019C000D9265150DA22DF50576E5AC092FF5AA0E2
:1019D00003D0050E596E1200030E596E120097AC1B
:1019E00007D00001762B979C050EDAEC12F012005E
:1019F00057065728D8A40ED0050E5026000E5122A7
:101A0000582E04D0000EDAEC12F012009782020E6B
:101A1000596E120097C0D9FF98C0DAFFDF50926E5E
:101A20000001974B982B120097AC07D00001762B42
:101A3000040EDAEC12F0979C12009786080E596E8D
:101A40001200080E596E9786120097C0D9FF98C0F1
:101A5000DAFF92CFDFFF0001974B982B010E575E04
:101A6000D8B404D0979A060E596E03D0978A80ECAA
:101A700015F097881200000EDAEC12F01200000147
:101A8000762B060EDAEC12F012005950000AD8B488
:101A900013D7010AD8B442D7030AD8B479D7010AB8
:101AA000D8B49DD7070AD8B4E6D7010AD8B4BCD7B2
:101AB000030AD8B4C6D7010AD8B4DDD70F0AD8B400
:101AC000C4D7020AD8B42ED7010AD8B442D7D7D780
:101AD00017EC13F0F28EF28C010E01018C6F000EE8
:101AE00087EC13F0000E01018C6F010E87EC13F0F0
:101AF000000EACEC15F0000E01018D6F000E8C6F26
:101B0000000E8F6F000E8E6FC0EC15F08BEC0FF097
:101B1000EFEC14F0010EA2EC15F0050E0101946F2C
:101B20000F0E936FF10EE82EFED7932FFCD7942F54
:101B3000FAD7000E0101906F000E20EC14F0010E98
:101B40000101906F0F0E916FFAEC12F0000E01017F
:101B5000906F010E20EC14F0120E0101906F0F0E29
:101B6000916FFAEC12F0F40E0101946F820E936FF4
:101B7000050EE82EFED7932FFCD7942FFAD7000E30
:101B800001018D6F000E8C6F30EC16F0000E01011C
:101B9000986F000E976F000E9A6F000E996F000EEF
:101BA000966F000E956F6DD0000EACEC15F024EC26
:101BB00016F00009D8A478D0000E0101986F010E2C
:101BC000976F000E9A6F000E996F6ED0994B9A2BFB
:101BD000010EACEC15F0000E01018D6F0A0E8C6F3A
:101BE000FF0E8F6FF60E8E6FC0EC15F0010E010127
:101BF0008C6F010E87EC13F001019ABF55D09A51FA
:101C000004E10A0E995DD8A04FD0000E986F020E25
:101C1000976F000E9A6F000E996F000E8C6F010E79
:101C200087EC13F041D00101994B9A2B010EACECDB
:101C300015F0000E01018D6F0A0E8C6F000E8F6F74
:101C4000000E8E6FC0EC15F0010E01018C6F000EBE
:101C500087EC13F001019ABF27D09A5104E10A0ED4
:101C6000995DD8A021D0000E986F010E976F000EDD
:101C70009A6F000E996F000E8C6F000E87EC13F0B8
:101C800013D097C193F198C194F101019451000AC6
:101C9000D8A40AD09351000AD8B486D7010AD8B480
:101CA00095D7030AD8B4BFD7090E0101946F1E0E51
:101CB000936FE40EE82EFED7932FFCD7942FFAD71C
:101CC00000F0DFD7096E0950D8A404AE1AD001C0C5
:101CD00005F002C006F003C007F004C008F0051EBE
:101CE000061E071E081E052A000E062207220822CD
:101CF00005C00BF006C00CF007C00DF008C00EF0D8
:101D000008D001C00BF002C00CF003C00DF004C0FD
:101D10000EF00150021003100410D8A409D0000ED8
:101D2000016E000E026E000E036E000E046E1200B5
:101D3000960E0A6E06D00A2AD8900E320D320C3258
:101D40000B32000E0B14056E000E0C14066E000E06
:101D50000D14076EFE0E0E14086E055006100710C7
:101D60000810D8B40DD0E7D70A2A010E0B26000EB2
:101D70000C220D220E22D8900E320D320C320B3274
:101D8000000E0B14056E000E0C14066E000E0D14E2
:101D9000076EFF0E0E14086E05500610071008108F
:101DA000D8B407D0E1D70A06D8900B360C360D36DA
:101DB0000E360DBE03D0020E0A60F5D70AB008D069
:101DC000FF0E0B16FF0E0C167F0E0D16FF0E0E16D5
:101DD000D8900A320AC005F0066A076A086A05C088
:101DE00008F0076A066A056A05500B1206500C12C5
:101DF00007500D1208500E120950D8A404AE01D09D
:101E00000E8E0BC001F00CC002F00DC003F00EC02E
:101E100004F01200000E876E000E866E000E836EB8
:101E2000000E846E000E856E020E8C6EE00E886EC3
:101E3000C70E896E990E8A6EE30E8B6E1C0E0F0113
:101E4000266F660E216FF80E196F050E2E6F1F0E8E
:101E5000116F060E256F000E2D6F000E186FC00E4D
:101E6000106F000E206F000E2C6F000E0F6F000E13
:101E7000176F000E1F6F000E246F0E6916691E6922
:101E80002369070E2B6F0D6915691D6922690F0EF5
:101E90002A6F0A9B0A9D0A9F0B8B0B8D0B8F0C9B45
:101EA0000C9F1A911B811C91820E01018C6F240ED4
:101EB0008D6F000E8E6FFAEC15F0680E01018C6FBD
:101EC000260E8D6F000E8E6FF3EC15F0900E010153
:101ED0008C6F2C0E8D6F000E8E6FECEC15F0320EA9
:101EE00001018C6F240E8D6F000E8E6FE5EC15F0E6
:101EF0000E01C289130EB76F170EB56F0F0EFA6F72
:101F0000060EF86F100EFB6F050EF96F090EFD6FD0
:101F1000140EB86F120083908392040E0101926F29
:101F2000400E916F260EE82EFED7912FFCD7922FF0
:101F3000FAD700F0030E7FEC11F0680E0101916FEB
:101F4000E40EE82EFED7912FFCD700F0030E7FECB5
:101F500011F0680E0101916FE40EE82EFED7912F6B
:101F6000FCD700F0030E7FEC11F0680E0101916FB9
:101F7000E40EE82EFED7912FFCD700F0020E7FEC86
:101F800011F0680E0101916FE40EE82EFED7912F3B
:101F9000FCD700F0000E01018E6F280E51EC13F0FB
:101FA000680E0101916FE40EE82EFED7912FFCD749
:101FB00000F0000E01018E6F0C0E51EC13F0A70E15
:101FC0000101916F3A0EE82EFED7912FFCD700F059
:101FD000EFEC14F0680E0101916FE40EE82EFED7CD
:101FE000912FFCD700F0000E01018E6F060E51EC10
:101FF00013F0680E0101916FE40EE82EFED7912FC9
:10200000FCD700F0EFEC14F0838012003E343F3434
:10201000456E4550D8A409D0000E3C6E000E3D6EB2
:10202000000E3E6E000E3F6E12003CC040F03DC000
:1020300041F03EC042F03FC043F0200E05D0D890A2
:102040004332423241324032E82EF9D74050446E9A
:102050003E8EFF0E3C16FF0E3D16FF0E3E16000E86
:102060003F16960E455E45AE16D04550800A970F36
:10207000D8B009D0000E3C6E000E3D6E000E3E6ED4
:10208000000E3F6E1200D8903F323E323D323C325D
:10209000453EF9D715D01F0E45640FD0000E3C6E9B
:1020A000000E3D6E000E3E6E000E3F6E1200D89088
:1020B0003C363D363E363F3645064550D8A4F7D728
:1020C0004450D8B408D03F1E3E1E3D1E3C6C000E4E
:1020D0003D223E223F223CC03CF03DC03DF03EC090
:1020E0003EF03FC03FF01200000E126E10AE0AD05C
:1020F000101E0F1E0E1E0D6C000E0E220F2210223F
:10210000010E126E0CAE0AD00C1E0B1E0A1E096CBC
:10211000000E0A220B220C22010E121A000E136E60
:10212000000E146E000E156E000E166E0D500E1081
:102130000F101010D8B42AD0010E116E06D0D8900E
:102140000D360E360F361036112A10AEF8D7D8904D
:1021500013361436153616360D50095C0E500A58D3
:102160000F500B5810500C58D8A009D00D50095ED4
:102170000E500A5A0F500B5A10500C5A1380D89018
:1021800010320F320E320D32112EE1D71250D8B468
:1021900008D0161E151E141E136C000E14221522D4
:1021A000162213C009F014C00AF015C00BF016C0B7
:1021B0000CF012000001A251010D600EF324D96E43
:1021C000000EF420DA6E000EDF6E9DA416D0A25130
:1021D000010D600EF324D96E000EF420DA6EDF825A
:1021E00001D80BD00500FA6E01018351FD6E8451B8
:1021F000FE6E8551FF6EFA5012009DA217D00001AD
:10220000A251010D600EF324D96E000EF420DA6E97
:10221000DF8401D80BD00500FA6E01018051FD6EFC
:102220008151FE6E8251FF6EFA5012000001A251E0
:10223000010D600EF324D96E000EF420DA6EDF502B
:10224000D8B40DD001D812000500FA6E01017D51FD
:10225000FD6E7E51FE6E7F51FF6EFA501200CAEC89
:1022600014F012000E01C59BB40E01018C6F210EFB
:102270008D6F000E8E6F08EC16F00E01C599DE0E04
:1022800001018C6F270E8D6F000E8E6F01EC16F022
:10229000080E9F6E900E9D6E240E9E6E8A0E9B6E93
:1022A000000E9C6E920E01018C6F2C0E8D6F000E35
:1022B0008E6F16EC16F0700E01018C6F2C0E8D6F68
:1022C000000E8E6F0FEC16F0760E01018C6F2C0E47
:1022D0008D6F000E8E6F1DEC16F0000E0001A16FC9
:1022E000000EA46F000EA36F080ED26F000EA26F37
:1022F000000E556E000E546E0E01C58B12000101CA
:102300008D6F01018DA103D08C6B8C2B02D001014C
:102310008C6B8C478C4783508C19FB0B8C19836E0C
:102320008DA303D08C6B8C2B02D001018C6B8C475E
:102330008C478C4783508C19F70B8C19836E8DA5B5
:1023400003D08C6B8C2B02D001018C6B8C3B8350A7
:102350008C19EF0B8C19836E8DA703D08C6B8C2B93
:1023600002D001018C6B87508C19FE0B8C19876E83
:102370008382E40E00D000D0E82EFCD700D000D03D
:102380008392E40E00D000D0E82EFCD700D000D01D
:102390001200000ECA6E000ECB6E010ECC6E000E47
:1023A000C86E000EC76EC750C8CF8FF10101906B89
:1023B0008FC190F18F6B8F110001CC6F0101905193
:1023C0000001CD6F0E01CE95C685780E01018C6F90
:1023D0002A0E8D6F000E8E6FD0EC15F0300EC96E88
:1023E0001200000ED06E000ED16E010ED26E000EE5
:1023F000CE6E000ECD6ECD50CECF8FF10101906B21
:102400008FC190F18F6B8F110001CE6F0101905140
:102410000001CF6F0E01CE91C681940E01018C6F29
:102420002A0E8D6F000E8E6FD7EC15F0300ECF6E2A
:10243000120040EC16F0D80E096E530E0A6E010E13
:102440000B6E000E0C6EFFEC14F001C00DF002C01C
:102450000EF00F6A106A74EC10F009C09DF00AC00B
:102460009EF090A005D000019D6D9E1FD8B09E2BC0
:10247000000E026E000E016E58EC15F042EC16F0E4
:10248000120044EC16F0D80E096E530E0A6E010EBF
:102490000B6E000E0C6E0FEC15F001C00DF002C0BB
:1024A0000EF00F6A106A74EC10F009C09FF00AC0B9
:1024B000A0F091B205D000019F6DA01FD8B0A02B55
:1024C000000E026E000E016E66EC15F046EC16F082
:1024D0001200540EF66E2C0EF76E000EF86E00EE23
:1024E000E5F010EE0BF00900F5CFEEFFE550E150FE
:1024F000FAE101EE00F07D0EEE6AE806FDE100EE85
:1025000060F0540EEE6AE806FDE100EE4CF0100EAD
:10251000EE6AE806FDE15C905C92000168EF0DF068
:10252000000E6A6E000E6B6E000E6C6E000E6D6E0D
:10253000000E686E000E696E000E666E000E0F01D2
:102540005F6F000E5D6F000E596F000E5A6F000E28
:102550005B6F000E656E000E586F000E566F330EE7
:10256000576F840E606E000E5C6F1200400ED66EC8
:10257000C10ED46E800ED36ED350D4CF8FF1010133
:10258000906B8FC190F18F6B8F110001D06F0101A3
:1025900090510001D16F0E01CA9BC28B6C0E0101DC
:1025A0008C6F2B0E8D6F000E8E6FDEEC15F0900E83
:1025B000D56E1200036E9784000120EE03F099514E
:1025C000D9269A51DA22DE50DE10D8B410D020EE8F
:1025D00003F09951D9269A51DA22DECF01F0DDCFEE
:1025E00002F001C0D9FF02C0DAFF03C0DFFF000E16
:1025F000596E120010D0010E01018E6F90C1F6FFCE
:1026000091C1F7FF000EF86E0800F55051EC13F081
:102610000101904B912B90C1F6FF91C1F7FF000E85
:10262000F86E0800F5500009D8B41200E4D73EEC6B
:1026300016F02EEC15F00AEC0FF074EC15F06CECC3
:1026400013F08CEC15F090EC12F0D6EC13F01FECBC
:1026500015F0B6EC12F097EC15F0C9EC11F0F1ECB6
:1026600011F032EC11F012002A0E016E8E0EE82EDF
:10267000FED7012EFCD78DAC90A204D000019B4B5D
:102680009C2B07D08DAC90B204D000019B07D8A042
:102690009C072A0E016E8E0EE82EFED7012EFCD767
:1026A000120001018F6F01018E51D8A402D08390D6
:1026B00001D08380E40E00D000D0E82EFCD700D0FB
:1026C00000D001018F390F0B7FEC11F001018F5108
:1026D0000F0B7FEC11F01200AF0E0001726F000EB5
:1026E000736FAF0E706F000E716F74837491000E74
:1026F000766F000E956E280E966E000E986E270E61
:10270000936E0E01CD91CD93C581C5831200010159
:102710008D6F0FD001018C51D8B402D08688120081
:10272000869812008C51D8B402D086841200869408
:10273000120001018D51000AD8B4ECD7010AD8A4C7
:102740001200F0D70E01CE95CCC001F0CDC002F042
:1027500058EC15F00001B451B511B611D8B41200FF
:1027600001D812000500FA6EB451FD6EB551FE6E2F
:10277000B651FF6EFA5012000E01CE91CEC001F09C
:10278000CFC002F066EC15F00001B751B811B911D5
:10279000D8B4120001D812000500FA6EB751FD6ED0
:1027A000B851FE6EB951FF6EFA501200040EB96EA8
:1027B000000EB86E000EBA6E4D0EB66E000EB56EFF
:1027C0000E01CE97C687B80E01018C6F150E8D6F66
:1027D000000E8E6FC9EC15F0A00EB76E1200080E39
:1027E0000001D26112D0A351010D680EF324D96EFD
:1027F000000EF420DA6EDF509A6EA32B070EA3654D
:1028000002D0000EA36FD22B12000E01C599120048
:102810000E01CA9B0001D151D46ED0C0D3FFBD516F
:10282000BE11BF11D8B4120001D812000500FA6E13
:10283000BD51FD6EBE51FE6EBF51FF6EFA501200CB
:102840000101916F839001019151D8A407D0000E2E
:102850008E6F9051800F51EC13F01200000E0101A9
:102860008E6F9051C00F51EC13F01200FF0E011645
:10287000030E0216A8A80BD0060ED8900136023619
:10288000E82EFBD70250A76E01C0A6FF120002502F
:10289000A76E01C0A6FF1200FF0E0116030E02165E
:1028A000ACA80BD0060ED89001360236E82EFBD726
:1028B0000250AB6E01C0AAFF12000250AB6E01C005
:1028C000AAFF12000001C051C111C211D8B40CD02E
:1028D00001D80AD00500FA6EC051FD6EC151FE6EDE
:1028E000C251FF6EFA5012000F011A91120000013E
:1028F000C351C411C511D8B40CD001D80AD00500F9
:10290000FA6EC351FD6EC451FE6EC551FF6EFA5092
:1029100012000F010A9F12000001C651C711C81111
:10292000D8B40CD001D80AD00500FA6EC651FD6E9D
:10293000C751FE6EC851FF6EFA5012000F010A9D7A
:1029400012000001C951CA11CB11D8B40CD001D862
:102950000AD00500FA6EC951FD6ECA51FE6ECB5108
:10296000FF6EFA5012000F010A9B12000E01CE9763
:102970000001BA51BB11BC11D8B4120001D8120029
:102980000500FA6EBA51FD6EBB51FE6EBC51FF6E72
:10299000FA5012000001A251010D000EF324D96E6D
:1029A000010EF420DA6E99CFDFFFA22B070EA2658D
:1029B00002D0000EA26F542A12000F010ABBA1EC34
:1029C00014F00F010ABD8CEC14F00F010ABF77EC74
:1029D00014F00F011AA1120062EC14F01200000EA4
:1029E00001018E6F010E51EC13F02A0E0101906F60
:1029F0008D0EE82EFED7902FFCD700D01200C98292
:102A0000C7CF08F0C8CF07F00750036E0850056E17
:102A100003C006F005C001F006C002F01200CF822C
:102A2000CDCF08F0CECF07F00750036E0850056EEB
:102A300003C006F005C001F006C002F01200010E4E
:102A4000BF6E000EBE6E000EC06EC70EBC6E000ED6
:102A5000BB6E0E01CE93A00EBD6E1200000E0E01D5
:102A6000E16F000EE26F000EE36F000EE46F000EE8
:102A7000E56F000EE66F120040EC16F0000E00014C
:102A80009E6F000E9D6F000E026E000E016E58ECE0
:102A900015F0120044EC16F0000E0001A06F000EBD
:102AA0009F6F000E026E000E016E66EC15F01200B4
:102AB000C9A407D0C9900250C86E01C0C7FFC98021
:102AC00012000250C86E01C0C7FF1200CFA407D089
:102AD000CF900250CE6E01C0CDFFCF8012000250C9
:102AE000CE6E01C0CDFF1200600E0E01D86F000E39
:102AF000DA6F000EDC6F080EDE6F000EDD6F120065
:102B0000050E5026000E5122582E03D0040E596E89
:102B10001200010E596E12008C0EA86E010EA76EE7
:102B20008F0EA66EAE50F30B0409AE6E12008C0E23
:102B3000AC6E010EAB6E8F0EAA6EAE50FC0B01098F
:102B4000AE6E120001018C6F01018C51D8B402D01D
:102B5000878412008794120001018C6F01018C514F
:102B6000D8B402D08686120086961200524A532AA2
:102B7000010E00018727000E882389238A23120073
:102B80008CC195F08DC196F08EC193F08FC194F0F9
:102B900012008CC1BAF08DC1BBF08EC1BCF0120026
:102BA0008CC1B4F08DC1B5F08EC1B6F012008CC1ED
:102BB000B7F08DC1B8F08EC1B9F012008CC1BDF074
:102BC0008DC1BEF08EC1BFF012008CC1C0F08DC1AE
:102BD000C1F08EC1C2F012008CC1C3F08DC1C4F02F
:102BE0008EC1C5F012008CC1C6F08DC1C7F08EC178
:102BF000C8F012008CC1C9F08DC1CAF08EC1CBF0F3
:102C000012008CC189F18DC18AF18EC18BF1120045
:102C10008CC186F18DC187F18EC188F112008CC103
:102C200080F18DC181F18EC182F112008CC183F1DE
:102C30008DC184F18EC185F112008CC17DF18DC1F1
:102C40007EF18EC17FF112008DAE02D0010E120016
:0F2C5000000E1200292A2B900190019001900193
:102C60008CC19BF08DC19CF012000E01CD9312001F
:102C70009D989D881200CAEC14F01200F29A12007E
:102C8000C9901200C9801200CF901200CF801200AC
:042C9000120012001C
:020000040020DA
:10000000FF0FFF0FFF0FFF0FFF0FFF0FFF0FFF0F80
:020000040030CA
:0C0000008CFFFFFF9FFFFFDFFFFFFFFFF3
:00000001FF
