:0400000099EF00F084
:100008005C82FACF60F0FBCF61F0E9CF62F0EACF13
:1000180063F0E1CF64F0E2CF65F0D9CF66F0DACFD4
:1000280067F0F3CF68F0F4CF69F0F6CF6AF0F7CF56
:100038006BF0F8CF6CF0F5CF6DF05CC06EF05DC082
:100048006FF05EC070F05FC071F00E01C2BBCAAB4A
:1000580003D0F7ECA8F043D0C2B9CAA903D037EC53
:10006800AAF03DD0F2AC3BD0C5B3CDA303D0C3ECCE
:10007800ABF035D0C5B1CDA103D0CFEC94F02FD0E3
:10008800C5B9CDA90BD001D82AD00500FA6E010157
:100098009851FD6E9951FE6E9A510DD0C5BBCDABEE
:1000A8000DD001D81CD00500FA6E01019551FD6EE6
:1000B8009651FE6E9751FF6EFA501200C6B7CEA742
:1000C80003D0FDECA9F00BD0C6B5CEA503D091ECBA
:1000D800A8F005D0C6B1CEA102D0ABECA8F071C093
:1000E8005FF070C05EF06FC05DF06EC05CF06DC018
:1000F800F5FF6CC0F8FF6BC0F7FF6AC0F6FF69C078
:10010800F4FF68C0F3FF67C0DAFF66C0D9FF65C0B7
:10011800E2FF64C0E1FF63C0EAFF62C0E9FF61C0BB
:0E012800FBFF60C0FAFF5C92110076EFA5F0BD
:10FEC400002034202020202020202020202020203A
:10FED40020003E342020202020202020202020200C
:10FEE4002020002043616C69622E204D6F646520E0
:10FEF400202020003E43616C69622E204D6F6465B2
:10FF04002020202000202043616C69622E20646F31
:10FF14006E652120200020466F6C6C6F7720612075
:10FF24004C696E652020003E466F6C6C6F772061D3
:10FF3400204C696E65202000612077686974652013
:10FF44007375726661636520002053656E736F720A
:10FF5400732052657669657720003E53656E736F32
:10FF640072732052657669657720002D2D205765C0
:10FF74006C636F6D65203A29202D2D00434E592066
:10FF840053656E736F72732020312D3400434E59C4
:10FF940020426F6F6C65616E2020322D34004C61FD
:10FFA4007365722053656E736F7220332D34004D68
:10FFB4006963726F70686F6E65202020342D340081
:10FFC4005365742074686520726F626F74206F6E5D
:10FFD4000046616C7365203A2800547275652020D0
:10FFE4003A290072696768743A006C6566743A006D
:0CFFF4002D2D2D0058414D006D6D0000BA
:020000040001F9
:10000000E9ECA7F0F28EF28C000E28ECABF0000EBB
:100010000001736F000E726F000E756F000E746F2B
:1000200045ECABF05CEC92F0010E32ECABF0090E5B
:100030000101516F1E0E506FE40EE82EFED7502FB7
:10004000FCD7512FFAD700F0000E32ECABF001ECE8
:100050009BF0010E1EECABF049ECAAF0000E000183
:10006000796F000E29ECA9F06F0E0001796FFF0E79
:100070007A6F06ECA8F0000E01015F6F000E5E6F54
:100080005FBF06D05F5115E10A0E5E5DD8B011D09A
:10009000090E0101516F1E0E506FE40EE82EFED7BF
:1000A000502FFCD7512FFAD700F001015E4B5F2B88
:1000B000E7D749ECAAF0010E32ECABF0090E0101D2
:1000C000516F1E0E506FE40EE82EFED7502FFCD756
:1000D000512FFAD700F0000E32ECABF0000E010108
:1000E000706F000E686F000E696F000E556F000E86
:1000F0005D6F000E5A6F000E646F000E5B6F000E96
:10010000656F000E5C6F000E716F000E576F000E72
:10011000566F000E596F000E586F000E676FC80EB5
:10012000666F000E616F000E606F000E736F000E41
:10013000726F000E636F000E626FB5ECABF0B5EC42
:10014000ABF0E90E0001725D030E7359D8A006D022
:10015000000E736F000E726FBAECABF0B5ECABF043
:100160000001735104E1040E725DD8A006D0000EA8
:10017000736F030E726FBAECABF0B5ECABF000012D
:1001800072510101706FD8D0000E0001796F000E1E
:1001900029ECA9F02B0E0001796FFF0E7A6F06ECA7
:1001A000A8F0000E0001796F010E29ECA9F04D0EA8
:1001B0000001796FFF0E7A6F06ECA8F0A9ECABF0A6
:1001C0000009D8A472D3010E01015C6F0DD0090E95
:1001D0000101516F1E0E506FE40EE82EFED7502F16
:1001E000FCD7512FFAD700F0A9ECABF00009D8B436
:1001F000EED7000E0101686F000E696F000E556F9B
:10020000000E5D6F49ECAAF050D3000E0001796F2B
:10021000000E29ECA9F01A0E0001796FFF0E7A6F1B
:1002200006ECA8F0000E0001796F010E29ECA9F090
:100230005E0E0001796FFF0E7A6F06ECA8F0A9EC54
:10024000ABF00009D8A431D3010E01015A6F0DD0D3
:10025000090E0101516F1E0E506FE40EE82EFED7FD
:10026000502FFCD7512FFAD700F0A9ECABF00009C2
:10027000D8B4EED7000E0001736F000E726FBAECA7
:10028000ABF049ECAAF011D3000E0001796F000E1B
:1002900029ECA9F0F80E0001796FFE0E7A6F06ECDA
:1002A000A8F0000E0001796F010E29ECA9F0C50E2F
:1002B0000001796FFE0E7A6F06ECA8F0A9ECABF0A6
:1002C0000009D8A4F2D2000E0101656F0DD0090E0D
:1002D0000101516F1E0E506FE40EE82EFED7502F15
:1002E000FCD7512FFAD700F0A9ECABF00009D8B435
:1002F000EED7010E01015B6F000E656F49ECAAF0AD
:10030000D4D2000E0001796F000E29ECA9F0E70E9F
:100310000001796FFE0E7A6F06ECA8F0000E000166
:10032000796F010E29ECA9F0D60E0001796FFE0E4F
:100330007A6F06ECA8F0B9D201017051000AD8B466
:1003400023D7010AD8B461D7030AD8B49DD7010ACC
:10035000D8B4D7D7AAD2A9ECABF00009D8A46AD2F6
:10036000000E01015C6F000E716F0DD0090E0101CE
:10037000516F1E0E506FE40EE82EFED7502FFCD7A3
:10038000512FFAD700F0A9ECABF00009D8B4EED7A2
:1003900049ECAAF0000E0001736F000E726FBAEC08
:1003A000ABF048D2000E0001736F000E726F000EAA
:1003B000756F000E746F45ECABF0020E8CECA7F07D
:1003C0000009D8B467D2010E0101716F010E32EC41
:1003D000ABF0090E0101516F1E0E506FE40EE82EB6
:1003E000FED7502FFCD7512FFAD700F0000E32EC79
:1003F000ABF050D2010E28ECABF0000E0001736F91
:10040000070E726FFF0E756FF90E746F45ECABF04F
:10041000000E8CECA7F0E806D8B406D0010E8CECE8
:10042000A7F0E806D8A440D0050E0101516F0F0EC9
:10043000506FF10EE82EFED7502FFCD7512FFAD770
:10044000010E8CECA7F0E806D8A408D00101692BB6
:10045000010E0001726F000E5BECA8F0000E8CEC38
:10046000A7F0E806D8A408D00101682B010E00010E
:10047000726F010E5BECA8F0110E0101516F3C0E82
:10048000506FCB0EE82EFED7502FFCD7512FFAD746
:10049000000E0001726F000E5BECA8F0000E000170
:1004A000726F010E5BECA8F01F0EE9ECA9F00101E0
:1004B00060510001725D0101615100017359D8B0B2
:1004C0000DD01E0EE9ECA9F0010172510001725D20
:1004D0000101735100017359D8A0A9D11D0EE9EC97
:1004E000A9F0010162510001725D01016351000137
:1004F0007359D8B0CFD11E0EE9ECA9F001017251A9
:100500000001725D0101735100017359D8B0C2D16D
:10051000030E8ED1010E28ECABF0000E0001736FBC
:10052000070E726F000E756F000E746F45ECABF026
:10053000000E8CECA7F0E806D8B406D0010E8CECC7
:10054000A7F0E806D8A440D0050E0101516F0F0EA8
:10055000506FF10EE82EFED7502FFCD7512FFAD74F
:10056000010E8CECA7F0E806D8A408D00101692B95
:10057000010E0001726F000E5BECA8F0000E8CEC17
:10058000A7F0E806D8A408D00101682B010E0001ED
:10059000726F010E5BECA8F0110E0101516F3C0E61
:1005A000506FCB0EE82EFED7502FFCD7512FFAD725
:1005B000000E0001726F000E5BECA8F0000E00014F
:1005C000726F010E5BECA8F01E0EE9ECA9F00001C1
:1005D00072510101725D0001735101017359D8B06C
:1005E00002D0010EE1D01D0EE9ECA9F0010162512B
:1005F0000001725D0101635100017359D8B04AD105
:100600001E0EE9ECA9F0000172510101725D0001BA
:10061000735101017359D8B03DD1030EC5D0010EFD
:1006200028ECABF0000E0001736F000E726FFF0E2E
:10063000756FF90E746F45ECABF0000E8CECA7F003
:10064000E806D8B406D0010E8CECA7F0E806D8A4D2
:1006500040D0050E0101516F0F0E506FF10EE82EC4
:10066000FED7502FFCD7512FFAD7010E8CECA7F0F4
:10067000E806D8A408D00101692B010E0001726FB1
:10068000000E5BECA8F0000E8CECA7F0E806D8A4F6
:1006900008D00101682B010E0001726F010E5BECA6
:1006A000A8F0110E0101516F3C0E506FCB0EE82ED9
:1006B000FED7502FFCD7512FFAD7000E0001726FD2
:1006C000000E5BECA8F0000E0001726F010E5BECF7
:1006D000A8F01E0EE9ECA9F0000172510101725D53
:1006E0000001735101017359D8A07BD71F0EE9ECAB
:1006F000A9F0010160510001725D01016151000129
:100700007359D8B0C7D01E0EE9ECA9F000017251A0
:100710000101725D0001735101017359D8B0BAD063
:10072000020E42D0090E0101516F1E0E506FE40EF1
:10073000E82EFED7502FFCD7512FFAD700F0FF0E2E
:100740000001736FF80E726FFF0E756FF80E746F05
:1007500045ECABF0310E0101516FB40E506F650ED8
:10076000E82EFED7502FFCD7512FFAD700D00ED04D
:10077000010E28ECABF0FF0E0001736FF80E726FE4
:10078000FF0E756FF80E746F45ECABF01E0EE9ECC2
:10079000A9F0010172510001725D01017351000164
:1007A0007359D8A0E5D7B4D6716F74D0090E010182
:1007B000516F1E0E506FE40EE82EFED7502FFCD75F
:1007C000512FFAD700F0000E0001736F080E726F00
:1007D000000E756F080E746F45ECABF0310E010121
:1007E000516FB40E506F650EE82EFED7502FFCD718
:1007F000512FFAD700D00ED0010E28ECABF0000E2E
:100800000001736F080E726F000E756F080E746F23
:1008100045ECABF01E0EE9ECA9F0010172510001AC
:10082000725D0101735100017359D8A0E5D7020E22
:100830000101BAD701017151000AD8B4B3D5010A38
:10084000D8B4D8D5030AD8B465D6010AD8B4E7D647
:10085000070AD8B467D7010AD8B4A8D71BD0020EAC
:10086000686523D0000E696F000E686F010E5D6F22
:10087000040E716F1AD0030E6919D8A416D0000E99
:10088000696F000E686F020E5D6F0FD0000E28ECCE
:10089000ABF0FFD701015D51000AD8B4E0D7010ADF
:1008A000D8B4E9D7030AD8B4F1D701015C05D8A4BC
:1008B000B8D151D5B5ECABF0B5ECABF0E90E000119
:1008C000725D030E7359D8A006D0000E736F000E30
:1008D000726FBAECABF0B5ECABF00001735104E110
:1008E000040E725DD8A006D0000E736F030E726FF7
:1008F000BAECABF0B5ECABF001016451506F516B49
:10090000000172510101501906E10001735101010A
:100910005119D8B447D1B5ECABF0000172510101C7
:10092000646F49ECAAF03ED1000E0001796F000E11
:1009300029ECA9F0800E0001796FFF0E7A6F06ECAA
:10094000A8F0030E0001796F010E29ECA9F01F0E2B
:10095000E9ECA9F072C079F073C07AF0000E0001E2
:100960007B6FE2EC9EF0090E0001796F010E29EC1D
:10097000A9F01E0EE9ECA9F072C079F073C07AF00C
:10098000000E00017B6FE2EC9EF00F0E0001796F0C
:10099000010E29ECA9F01D0EE9ECA9F072C079F066
:1009A00073C07AF0000E00017B6FE2EC9EF00B0E3C
:1009B0000001796F010E29ECA9F0D40E0001796FC6
:1009C000FE0E7A6F06ECA8F0050E0001796F010E9D
:1009D00029ECA9F0D40E0001796FFE0E7A6F06ECB7
:1009E000A8F0EFD0000E0001796F000E29ECA9F0FD
:1009F000910E0001796FFF0E7A6F06ECA8F0000EE1
:100A00000001796F010E29ECA9F0EE0E0001796F5B
:100A1000FF0E7A6F06ECA8F0050E0001796F010E4B
:100A200029ECA9F0010E8CECA7F011ECAAF0090E4C
:100A30000001796F010E29ECA9F0E70E0001796F32
:100A4000FF0E7A6F06ECA8F00F0E0001796F010E11
:100A500029ECA9F0000E8CECA7F011ECAAF0B1D0B3
:100A6000000E0001796F000E29ECA9F0A20E000122
:100A7000796FFF0E7A6F06ECA8F0020E0001796F15
:100A8000010E29ECA9F0000E3FECA9F09BC0A0F0EC
:100A90009CC0A1F05AEC9CF0050E0101516F0F0EA5
:100AA000506FF10EE82EFED7502FFCD7512FFAD7FA
:100AB000070E0001796F010E29ECA9F0010E3FEC41
:100AC000A9F09BC0A0F09CC0A1F05AEC9CF0050ED0
:100AD0000101516F0F0E506FF10EE82EFED7502F0F
:100AE000FCD7512FFAD70C0E0001796F010E29ECBB
:100AF000A9F0020E3FECA9F09BC0A0F09CC0A1F0B1
:100B00005AEC9CF00E0E0001796F010E29ECA9F051
:100B1000FC0E0001796FFF0E7A6F06ECA8F051D041
:100B2000000E0001796F000E29ECA9F0B30E000150
:100B3000796FFF0E7A6F06ECA8F0020E8CECA7F02E
:100B40000009D8B421D0040E0001796F010E29EC00
:100B5000A9F0DE0E0001796FFF0E7A6F06ECA8F0A7
:100B6000010E32ECABF0090E0101516F1E0E506FF9
:100B7000E40EE82EFED7502FFCD7512FFAD700F005
:100B8000000E32ECABF01DD0040E0001796F010EA7
:100B900029ECA9F0D50E0001796FFF0E7A6F06ECF3
:100BA000A8F00FD001016451000AD8B4BDD6010AE3
:100BB000D8B418D7030AD8B453D7010AD8B4B0D7D9
:100BC000070AA9ECABF00009D8A41ED0000E010161
:100BD0005A6F0DD0090E0101516F1E0E506FE40EB9
:100BE000E82EFED7502FFCD7512FFAD700F0A9ECF2
:100BF000ABF00009D8B4EED770C172F00001736B8E
:100C0000BAECABF049ECAAF0090E0101516F1E0ECF
:100C1000506FE40EE82EFED7502FFCD7512FFAD795
:100C200000F001015A05D8A4CDD144D6000E28EC1D
:100C3000ABF0000E0001796F000E29ECA9F0C40E94
:100C40000001796FFF0E7A6F06ECA8F0000E00012C
:100C5000796F010E29ECA9F03C0E0001796FFF0EAF
:100C60007A6F06ECA8F0A9ECABF00009D8A4AAD1E1
:100C7000010E0101656F0DD0090E0101516F1E0EAD
:100C8000506FE40EE82EFED7502FFCD7512FFAD725
:100C900000F0A9ECABF00009D8B4EED7010E32ECAD
:100CA000ABF0090E0101516F1E0E506FE40EE82EDD
:100CB000FED7502FFCD7512FFAD700F0000E32ECA0
:100CC000ABF049ECAAF0000E01016B6F000E6A6FE9
:100CD000000E6F6F000E6E6F000E6D6F000E6C6F6A
:100CE0003CECABF072C058F173C059F16BD1010EFE
:100CF00028ECABF0000E0001736F020E726FFF0E56
:100D0000756FFE0E746F45ECABF01F0EE9ECA9F0A9
:100D10000001725101016A5D0001735101016B59BB
:100D2000D8B007D01F0EE9ECA9F072C06AF173C009
:100D30006BF11E0EE9ECA9F00001725101016E5D2C
:100D40000001735101016F59D8B007D01E0EE9ECB4
:100D5000A9F072C06EF173C06FF11D0EE9ECA9F03D
:100D60000001725101016C5D0001735101016D5967
:100D7000D8B007D01D0EE9ECA9F072C06CF173C0B9
:100D80006DF13CECABF072C056F173C057F1D00E70
:100D90000101506F070E516F58C152F159C153F103
:100DA00050515227515153235651525D5351800A8D
:100DB000546F5751800A5459D8B025D0020E656F30
:100DC000000E0001736F000E726F000E756F000E43
:100DD000746F45ECABF0000E28ECABF0010E32EC7A
:100DE000ABF0090E0101516F1E0E506FE40EE82E9C
:100DF000FED7502FFCD7512FFAD700F0000E32EC5F
:100E0000ABF049ECAAF0050E0101516F0F0E506FC7
:100E1000F10EE82EFED7502FFCD7512FFAD7D2D0A3
:100E2000000E0001796F000E29ECA9F0090E0001F7
:100E3000796FFF0E7A6F06ECA8F0030E0001796F50
:100E4000010E29ECA9F06AC179F06BC17AF0000EAD
:100E500000017B6FE2EC9EF0090E0001796F010E3C
:100E600029ECA9F06EC179F06FC17AF0000E000193
:100E70007B6FE2EC9EF0050E0001796F010E29EC0C
:100E8000A9F0D40E0001796FFE0E7A6F06ECA8F07F
:100E90000F0E0001796F010E29ECA9F06CC179F0F9
:100EA0006DC17AF0000E00017B6FE2EC9EF00B0E3C
:100EB0000001796F010E29ECA9F0D40E0001796FC1
:100EC000FE0E7A6F06ECA8F0A9ECABF00009D8A4EE
:100ED00052D0000E0101656F0DD0090E0101516F56
:100EE0001E0E506FE40EE82EFED7502FFCD7512F68
:100EF000FAD700F0A9ECABF00009D8B4EED766C180
:100F000050F167C151F10101501F511F504B512B3E
:100F10006A515025606F6B515121616F66C150F16C
:100F200067C151F1501F511F504B512B6E5150252D
:100F3000726F6F515121736F66C150F167C151F1EA
:100F4000501F511F504B512B6C515025626F6D51EA
:100F50005121636F010E32ECABF0000E32ECABF0BE
:100F6000000E01015B6F49ECAAF070C172F0000144
:100F7000736BBAECABF0000E0001736F000E726F72
:100F8000000E756F000E746F45ECABF0000E28EC90
:100F9000ABF0090E0101516F1E0E506FE40EE82EEA
:100FA000FED7502FFCD7512FFAD700F00BD00101FC
:100FB0006551000AD8B43AD6010AD8B498D6030AC3
:100FC000D8B42ED701015B05D8A49DEF80F0EFD7F0
:100FD0000001886FFF0E00017B6F010E7C6F88514E
:100FE00014ECA5F0000E00017B6F000E7C6F8851A1
:100FF00014ECA5F0FF0E00017B6F000E7C6F885192
:1010000014ECA5F0090E00017B6F000E7C6F885177
:1010100014ECA5F0100E00017B6F000E7C6F885160
:1010200014ECA5F0110E00017B6F000E7C6F88514F
:1010300014ECA5F0240E00017B6F010E7C6F88512B
:1010400014ECA5F0250E00017B6FFF0E7C6F88511C
:1010500014ECA5F0750E00017B6F000E7C6F8851BB
:1010600014ECA5F0FF0E00017B6F010E7C6F885120
:1010700014ECA5F04E0E00017B6F2C0E7C6F885196
:1010800014ECA5F0480E00017B6F000E7C6F8851B8
:1010900014ECA5F0300E00017B6F200E7C6F8851A0
:1010A00014ECA5F0FF0E00017B6F000E7C6F8851E1
:1010B00014ECA5F0300E00017B6F090E7C6F885197
:1010C00014ECA5F0540E00017B6F000E7C6F88516C
:1010D00014ECA5F0310E00017B6F040E7C6F88517B
:1010E00014ECA5F0320E00017B6F030E7C6F88516B
:1010F00014ECA5F0400E00017B6F830E7C6F8851CD
:1011000014ECA5F0460E00017B6F250E7C6F885114
:1011100014ECA5F0600E00017B6F000E7C6F88510F
:1011200014ECA5F0270E00017B6F000E7C6F885138
:1011300014ECA5F0500E00017B6F060E7C6F8851F9
:1011400014ECA5F0510E00017B6F000E7C6F8851EE
:1011500014ECA5F0520E00017B6F960E7C6F885147
:1011600014ECA5F0560E00017B6F080E7C6F8851C1
:1011700014ECA5F0570E00017B6F300E7C6F885188
:1011800014ECA5F0610E00017B6F000E7C6F88519E
:1011900014ECA5F0620E00017B6F000E7C6F88518D
:1011A00014ECA5F0640E00017B6F000E7C6F88517B
:1011B00014ECA5F0650E00017B6F000E7C6F88516A
:1011C00014ECA5F0660E00017B6FA00E7C6F8851B9
:1011D00014ECA5F0FF0E00017B6F010E7C6F8851AF
:1011E00014ECA5F0220E00017B6F320E7C6F88514B
:1011F00014ECA5F0470E00017B6F140E7C6F885134
:1012000014ECA5F0490E00017B6FFF0E7C6F885136
:1012100014ECA5F04A0E00017B6F000E7C6F885124
:1012200014ECA5F0FF0E00017B6F000E7C6F88515F
:1012300014ECA5F07A0E00017B6F0A0E7C6F8851CA
:1012400014ECA5F07B0E00017B6F000E7C6F8851C3
:1012500014ECA5F0780E00017B6F210E7C6F885195
:1012600014ECA5F0FF0E00017B6F010E7C6F88511E
:1012700014ECA5F0230E00017B6F340E7C6F8851B7
:1012800014ECA5F0420E00017B6F000E7C6F8851BC
:1012900014ECA5F0440E00017B6FFF0E7C6F8851AB
:1012A00014ECA5F0450E00017B6F260E7C6F885173
:1012B00014ECA5F0460E00017B6F050E7C6F885183
:1012C00014ECA5F0400E00017B6F400E7C6F88513E
:1012D00014ECA5F00E0E00017B6F060E7C6F88519A
:1012E00014ECA5F0200E00017B6F1A0E7C6F885164
:1012F00014ECA5F0430E00017B6F400E7C6F88510B
:1013000014ECA5F0FF0E00017B6F000E7C6F88517E
:1013100014ECA5F0340E00017B6F030E7C6F885136
:1013200014ECA5F0350E00017B6F440E7C6F8851E4
:1013300014ECA5F0FF0E00017B6F010E7C6F88514D
:1013400014ECA5F0310E00017B6F040E7C6F885108
:1013500014ECA5F04B0E00017B6F090E7C6F8851D9
:1013600014ECA5F04C0E00017B6F050E7C6F8851CC
:1013700014ECA5F04D0E00017B6F040E7C6F8851BC
:1013800014ECA5F0FF0E00017B6F000E7C6F8851FE
:1013900014ECA5F0440E00017B6F000E7C6F8851A9
:1013A00014ECA5F0450E00017B6F200E7C6F885178
:1013B00014ECA5F0470E00017B6F080E7C6F88517E
:1013C00014ECA5F0480E00017B6F280E7C6F88514D
:1013D00014ECA5F0670E00017B6F000E7C6F885146
:1013E00014ECA5F0700E00017B6F040E7C6F885129
:1013F00014ECA5F0710E00017B6F010E7C6F88511B
:1014000014ECA5F0720E00017B6FFE0E7C6F88510C
:1014100014ECA5F0760E00017B6F000E7C6F8851F6
:1014200014ECA5F0770E00017B6F000E7C6F8851E5
:1014300014ECA5F0FF0E00017B6F010E7C6F88514C
:1014400014ECA5F00D0E00017B6F010E7C6F88512E
:1014500014ECA5F0FF0E00017B6F000E7C6F88512D
:1014600014ECA5F0800E00017B6F010E7C6F88519B
:1014700014ECA5F0010E00017B6FF80E7C6F885113
:1014800014ECA5F0FF0E00017B6F010E7C6F8851FC
:1014900014ECA5F08E0E00017B6F010E7C6F88515D
:1014A00014ECA5F0000E00017B6F010E7C6F8851DB
:1014B00014ECA5F0FF0E00017B6F000E7C6F8851CD
:1014C00014ECA5F0800E00017B6F000E7C6F88513C
:1014D00014ECA5F0290E0001876F960E866F7F0E23
:1014E000E82EFED7862FFCD7872FFAD712000001EF
:1014F0007551800B7E6F75517525846F74BF848123
:101500008451D8B40DD08429D8A408D0000E726FAD
:10151000000E736F000E746F000E756F748F08D01D
:10152000000E726F000E736F000E746F000E756FF9
:101530007951800B7E1B795179257F6F78BF7F8130
:101540007F51D8B40DD07F29D8A408D0000E766F73
:10155000000E776F000E786F000E796F788F08D0CD
:10156000000E766F000E776F000E786F000E796FA9
:101570007F51D8B403D08451D8A409D0000E726F23
:10158000000E736F000E746F000E756F12007851AD
:101590007203F3CF89F0F4CF8AF08951806F816BA9
:1015A000826B836B8A51856F866B876B886B7751F3
:1015B0007303F3CF89F0F4CF8AF089518027000EAE
:1015C0008123822383238A518527000E8623872344
:1015D000882376517403F3CF89F0F4CF8AF08951D0
:1015E0008027000E8123822383238A518527000EC2
:1015F00086238723882382C083F081C082F080C045
:1016000081F0806B76517303F3CF89F0F4CF8AF0C9
:10161000895180278A518123000E8223000E832363
:1016200077517203F3CF89F0F4CF8AF08951802784
:101630008A518123000E8223000E832382C083F00F
:1016400081C082F080C081F0806B76517203F3CF4D
:1016500089F0F4CF8AF0895180278A518123000EC6
:101660008223000E832378517303F3CF89F0F4CFE4
:101670008AF0895185278A518623000E8723000E20
:10168000882377517403F3CF89F0F4CF8AF089511E
:1016900085278A518623000E8723000E88237851E0
:1016A0007403F3CF89F0F4CF8AF089517A6F8A51AD
:1016B0007B6F7C6B7D6B7CC07DF07BC07CF07AC0E7
:1016C0007BF07A6B7A5185277B5186237C51872367
:1016D0007D51882380C07AF081C07BF082C07CF08D
:1016E00083C07DF0190E05D0D8907D337C337B33D9
:1016F0007A33E82EF9D77A5185277B5186237C519E
:1017000087237D51882382C083F081C082F080C00E
:1017100081F0806B7F5184C07AF07B6B7A27000E5A
:101720007B23820E7A25896FFF0E7B218A6F0FD073
:10173000D890853786378737883783BF8581D8909B
:1017400080378137823783378907D8A08A0787AFE8
:10175000EFD7000E7F6F83AF16D0FF0E80157A6F24
:10176000FF0E81157B6FFF0E82157C6F7F0E831538
:101770007D6F7A517B117C117D11D8A402D085A197
:1017800002D0010E7F6F7F51D8B41FD0010E852784
:10179000000E86238723882388A117D085C07AF07E
:1017A00086C07BF087C07CF088C07DF07D357D33BE
:1017B0007C337B337A337AC085F07BC086F07CC083
:1017C00087F07DC088F0894B8A2B8ABF0DD08A5163
:1017D00003E18929D8A008D0000E856F000E866F1E
:1017E000800E876F7F0E20D08ABF05D08A510EE110
:1017F0008905D8B00BD0000E856F000E866F000EE5
:10180000876F000E886F000E7E6F0FD089C084F046
:10181000FF0E8517FF0E86177F0E8717000E88179D
:1018200084B1878FD8908431886F7E51881385C0AA
:1018300072F086C073F087C074F088C075F0120033
:101840001250800B1B6E12501224216E11BE21808B
:101850002150D8B40DD02128D8A408D0000E0F6E86
:10186000000E106E000E116E000E126E118E08D05A
:10187000000E0F6E000E106E000E116E000E126E36
:101880001650800B1B1A16501624206E15BE208091
:101890002050D8B40DD02028D8A408D0000E136E44
:1018A000000E146E000E156E000E166E158E08D00A
:1018B000000E136E000E146E000E156E000E166EE6
:1018C0002050D8B403D02150D8A409D0000E0F6EF8
:1018D000000E106E000E116E000E126E12001550EA
:1018E0000F02F3CF26F0F4CF27F026501C6E1D6AAE
:1018F0001E6A1F6A2750226E236A246A256A1450C2
:101900001002F3CF26F0F4CF27F026501C26000E4D
:101910001D221E221F2227502226000E23222422AF
:10192000252213501102F3CF26F0F4CF27F02650D2
:101930001C26000E1D221E221F2227502226000ECA
:101940002322242225221EC01FF01DC01EF01CC011
:101950001DF01C6A13501002F3CF26F0F4CF27F0CD
:1019600026501C2627501D22000E1E22000E1F226C
:1019700014500F02F3CF26F0F4CF27F026501C2688
:1019800027501D22000E1E22000E1F221EC01FF017
:101990001DC01EF01CC01DF01C6A13500F02F3CFB7
:1019A00026F0F4CF27F026501C2627501D22000ECB
:1019B0001E22000E1F2215501002F3CF26F0F4CF86
:1019C00027F02650222627502322000E2422000E24
:1019D000252214501102F3CF26F0F4CF27F0265021
:1019E000222627502322000E2422000E25221550E5
:1019F0001102F3CF26F0F4CF27F02650176E2750B0
:101A0000186E196A1A6A19C01AF018C019F017C0AE
:101A100018F0176A17502226185023221950242232
:101A20001A5025221CC017F01DC018F01EC019F056
:101A30001FC01AF0190E05D0D8901A321932183278
:101A40001732E82EF9D717502226185023221950A2
:101A500024221A5025221EC01FF01DC01EF01CC0DB
:101A60001DF01C6A205021C017F0186A1726000EBE
:101A70001822820E1724266EFF0E1820276E0FD014
:101A8000D89022362336243625361FBE2280D890A1
:101A90001C361D361E361F362606D8A0270624AE55
:101AA000EFD7000E206E1FAE16D0FF0E1C14176E5F
:101AB000FF0E1D14186EFF0E1E14196E7F0E1F14DC
:101AC0001A6E1750181019101A10D8A402D022A09C
:101AD00002D0010E206E2050D8B41FD0010E222655
:101AE000000E23222422252225A017D022C017F081
:101AF00023C018F024C019F025C01AF01A341A3285
:101B000019321832173217C022F018C023F019C04A
:101B100024F01AC025F0264A272A27BE0DD02750C8
:101B200003E12628D8A008D0000E226E000E236EF6
:101B3000800E246E7F0E20D027BE05D027500EE1E8
:101B40002604D8B00BD0000E226E000E236E000EBD
:101B5000246E000E256E000E1B6E0FD026C021F0E5
:101B6000FF0E2216FF0E23167F0E2416000E2516DA
:101B700021B0248ED8902130256E1B50251222C012
:101B80000FF023C010F024C011F025C012F0120095
:101B90002B50800B386E2B502B243A6E2ABE3A8085
:101BA0003A50D8B40DD03A28D8A408D0000E286EE8
:101BB000000E296E000E2A6E000E2B6E2A8E06D0A5
:101BC000000E286E000E296E000E2A6E000E2B6E7F
:101BD0002F50800B396E38503918D8A4388C2F50BC
:101BE0002F24396E2EBE39803950D8B40DD0392803
:101BF000D8A408D0000E2C6E000E2D6E000E2E6E96
:101C0000000E2F6E2E8E06D0000E2C6E000E2D6E46
:101C1000000E2E6E000E2F6E3A50395CD8B022D0D6
:101C200038AC02D0800E381A3AC03BF039C03AF0D6
:101C30003BC039F028C03BF02CC028F03BC02CF052
:101C400029C03BF02DC029F03BC02DF02AC03BF04D
:101C50002EC02AF03BC02EF02BC03BF02FC02BF043
:101C60003BC02FF0000E3B6E3A50306E316A301E92
:101C7000311E304A312A3950326E336A30503226A2
:101C80003150332233BE2CD0335004E11A0E325C73
:101C9000D8A026D0285029102A102B10D8B402D052
:101CA000010E01D0000E3B6E000E286E000E296E54
:101CB000000E2A6E000E2B6E39C03AF015D03BA0F4
:101CC00005D0D8903B3001093B6E02D0D8903B3212
:101CD00028B03B8E2B342B322A32293228323A2A32
:101CE00039503A5CD8A0EBD738BC29D03A50D8A4A8
:101CF00009D0000E286E000E296E000E2A6E000E0E
:101D00002B6E12002C5028262D5029222E502A22CC
:101D10002F502B222BA083D03BA006D0D8903B3253
:101D20003B5001093B6E02D0D8903B3228B03B8E2D
:101D30002B342B322A32293228323A2A70D02C50B6
:101D4000285C2D5029582E502A582B50800A306E6E
:101D50002F50800A3058D8B036D028C030F029C073
:101D600031F02AC032F02BC033F0301E311E321E4B
:101D7000331E302A000E3122322233222C503024DE
:101D8000346E2D503120356E2E503220366E2F504D
:101D90003320376EFF0E3424286EFF0E3520296E57
:101DA000FF0E36202A6EFF0E37202B6E800E381A5B
:101DB0003B6C3B50D8A40FD0010E2826000E2922E0
:101DC0002A222B2208D02C50285E2D50295A2E5022
:101DD0002A5A2F502B5A285029102A102B10D8A4D9
:101DE0001CD03B50D8A419D0000E286E000E296ECE
:101DF000000E2A6E000E2B6E1200D890283629365F
:101E00002A362B363BBE28803BA002D0D88001D09A
:101E1000D8903B363A50D8A43A062AAEEED7000EF8
:101E2000396E3BAE0AD03BC030F07F0E3016D8A4DE
:101E300002D028A002D0010E396E3950D8B420D07B
:101E4000010E2826000E29222A222B222BA018D090
:101E500028C030F029C031F02AC032F02BC033F056
:101E60003334333232323132303230C028F031C084
:101E700029F032C02AF033C02BF03A28D8A43A2AED
:101E80003A28D8B403D03A50D8A40DD0000E286E0A
:101E9000000E296E000E2A6E000E2B6E3A50D8A44A
:101EA00002D0000E386E3AA002D02A8E01D02A9EAF
:101EB000D8903A302B6E38BE2B8E28C028F029C01F
:101EC00029F02AC02AF02BC02BF01200050E0001C9
:101ED000B96F280EB86F030EBB6FC00EBA6F020E3B
:101EE000BD6F940EBC6F020EBF6F4E0EBE6F020E22
:101EF000C16FB20EC06F020EC36F940EC26F020E9E
:101F0000C56F260EC46F200EB06F4E0EB16F000E5F
:101F1000B26F000EB36F20EE08F0A251D926A35184
:101F2000DA22B051DE5CB151DE58B251DE58B35105
:101F3000DE58D8A01200BA51B825A46FBB51B92100
:101F4000A56FA4C0C8F0A5C0C9F0CA6BCB6BA2C076
:101F500089F0A3C08AF037ECA3F0A2C098F0A3C028
:101F600099F016EC97F0000120EE0CF0A251D92662
:101F7000A351DA22DF50D8B422D020EE1BF0A251B8
:101F8000D926A351DA22DECFA4F0DECFA5F0DECF32
:101F9000A6F0DECFA7F0BE51A425A86FBF51A521A2
:101FA000A96F000EA621AA6F000EA721AB6FA85142
:101FB000C827A951C923AA51CA23AB51CB2320EE6C
:101FC0000EF0A251D926A351DA22DF50D8B42BD07B
:101FD00020EE1BF0A251D926A351DA22DECFA4F0C5
:101FE000DECFA5F0DECFA6F0DECFA7F0C051A4254E
:101FF000A86FC151A521A96F000EA621AA6F000EDE
:10200000A721AB6FD890A835AC6FA935AD6FAA35B5
:10201000AE6FAB35AF6FAC51C827AD51C923AE51D0
:10202000CA23AF512AD020EE0DF0A251D926A351D8
:10203000DA22DF50D8B422D020EE1BF0A251D926EC
:10204000A351DA22DECFA4F0DECFA5F0DECFA6F0DA
:10205000DECFA7F0BC51A425A86FBD51A521A96F63
:10206000000EA621AA6F000EA721AB6FA851C827AA
:10207000A951C923AA51CA23AB51CB2320EE0FF09B
:10208000A251D926A351DA22DF50D8B422D020EEB3
:102090001FF0A251D926A351DA22DECFA4F0DECF61
:1020A000A5F0DECFA6F0DECFA7F0C251A425A86F21
:1020B000C351A521A96F000EA621AA6F000EA7216A
:1020C000AB6FA851C827A951C923AA51CA23AB5144
:1020D000CB2320EE10F0A251D926A351DA22DF50F3
:1020E000D8B41200C451C827C551C923000ECA2351
:1020F000000ECB2320EE08F0A251D926A351DA22FC
:10210000C851DE5CC951DE58CA51DE58CB51DE5889
:10211000D8A0120020EE08F0A251D926A351DA224D
:10212000DECFA4F0DECFA5F0DECFA6F0DECFA7F0A5
:10213000C8C0A8F0C9C0A9F0CAC0AAF0CBC0ABF013
:10214000A81FA91FAA1FAB1FA82B000EA923AA23F3
:10215000AB23A451A825B46FA551A921B56FA651F1
:10216000AA21B66FA751AB21B76FB4C08BF0B5C031
:102170008CF0B6C08DF0B7C08EF020EE13F0A251F7
:10218000D926A351DA22DF508F6F7CEC9BF08BC0F5
:10219000C6F08CC0C7F0000120EE0FF0A251D92686
:1021A000A351DA22DF50D8B40AD020EE17F0A251A2
:1021B000D926A351DA22DE50C627DD50C723710E7F
:1021C000956FC6C072F0C7C073F0F4ECA0F072C097
:1021D00096F073C097F0A2C0D9FFA3C0DAFFDF501A
:1021E000E0ECA4F01200DFC046F0E0C047F0461E6D
:1021F000471E464A472A0101325146240001D76F43
:102200000101335147200001D86F000E136E000EFC
:10221000146EA80E156E410E166ED7C001F0D8C010
:1022200002F0000E02BEFF0E036E046E010E0AECF9
:1022300098F001C00FF002C010F003C011F004C00C
:1022400012F020EC8CF00FC02CF010C02DF011C05B
:102250002EF012C02FF0A0C101F0A1C102F0000EBB
:1022600002BEFF0E036E046E010E0AEC98F001C070
:1022700028F002C029F003C02AF004C02BF0C8ECFB
:102280008DF028C048F029C049F02AC04AF02BC080
:102290004BF0000E136E000E146E980E156EC10EEC
:1022A000166E2EC101F02FC102F0000E02BEFF0E0D
:1022B000036E046E010E0AEC98F001C00FF002C02C
:1022C00010F003C011F004C012F020EC8CF00FC02D
:1022D0002CF010C02DF011C02EF012C02FF048C00D
:1022E00028F049C029F04AC02AF04BC02BF0C8ECB6
:1022F0008DF028C03CF029C03DF02AC03EF02BC034
:102300003FF0C9EC9CF03CC04EF03DC04FF0D7C050
:102310002EF1D8C02FF14FBE0AD0210E4E5C030E15
:102320004F58D8A004D0030E4F6E200E05D04FAEEC
:1023300004D0000E4F6E000E4E6E4EC0A0F14FC086
:10234000A1F1DDC046F0DEC047F0461E471E464AFA
:10235000472A0101305146240001D56F0101315156
:1023600047200001D66F000E136E000E146EA80EEB
:10237000156E410E166ED5C001F0D6C002F0000EEB
:1023800002BEFF0E036E046E010E0AEC98F001C04F
:102390000FF002C010F003C011F004C012F020ECE6
:1023A0008CF00FC02CF010C02DF011C02EF012C018
:1023B0002FF09EC101F09FC102F0000E02BEFF0E81
:1023C000036E046E010E0AEC98F001C028F002C002
:1023D00029F003C02AF004C02BF0C8EC8DF028C00F
:1023E00048F029C049F02AC04AF02BC04BF0000E3B
:1023F000136E000E146E980E156EC10E166E2CC163
:1024000001F02DC102F0000E02BEFF0E036E046E3D
:10241000010E0AEC98F001C00FF002C010F003C0EA
:1024200011F004C012F020EC8CF00FC02CF010C0A2
:102430002DF011C02EF012C02FF048C028F049C076
:1024400029F04AC02AF04BC02BF0C8EC8DF028C010
:102450003CF029C03DF02AC03EF02BC03FF0C9EC53
:102460009CF03CC04CF03DC04DF0D5C02CF1D6C026
:102470002DF14DBE0AD0210E4C5C030E4D58D8A054
:1024800004D0030E4D6E200E05D04DAE04D0000ECC
:102490004D6E000E4C6E4CC09EF14DC09FF14EC073
:1024A00001F04FC002F055ECA9F04CC001F04DC056
:1024B00002F06BECA9F01200020E01014E6FA00EAB
:1024C0004D6F920EE82EFED74D2FFCD74E2FFAD728
:1024D00000F0D4ECABF0D0ECABF0CCECABF0000EF9
:1024E00001014F6F020E4F6501D022D04F51010DF7
:1024F0009B0EF324D96E010EF420DA6E4F51270D96
:10250000000EF324E16E020EF420E26EDFCFE7FF4F
:102510004F51270D020EF326000EF422000EF32475
:10252000D96E020EF420DA6E010EDF6E4F2BDAD771
:10253000CEECABF0020E01014E6FA00E4D6F920E6D
:10254000E82EFED74D2FFCD74E2FFAD700F0020110
:102550004E51F2ECAAF0020E01014E6FA00E4D6F2B
:10256000920EE82EFED74D2FFCD74E2FFAD700F053
:102570004E0E01014B6F020E4C6FC5ECA8F0020E1F
:1025800001014E6FA00E4D6F920EE82EFED74D2F1B
:10259000FCD74E2FFAD700F04E0E0001726F020EDC
:1025A000736F000E756F320E746FCEECAAF0A30E2F
:1025B00001014E6F570E4D6F020EE82EFED74D2FC4
:1025C000FCD74E2FFAD700F0D2ECABF0020E01018F
:1025D0004E6FA00E4D6F920EE82EFED74D2FFCD7FA
:1025E0004E2FFAD700F002012751F2ECAAF0020EAA
:1025F00001014E6FA00E4D6F920EE82EFED74D2FAB
:10260000FCD74E2FFAD700F0270E01014B6F020EB8
:102610004C6FC5ECA8F0020E01014E6FA00E4D6F7D
:10262000920EE82EFED74D2FFCD74E2FFAD700F092
:10263000270E0001726F020E736F000E756F320E5F
:10264000746FCEECAAF0020E01014E6FA00E4D6F1A
:10265000920EE82EFED74D2FFCD74E2FFAD700F062
:10266000D6ECABF0020E01014E6FA00E4D6F920E34
:10267000E82EFED74D2FFCD74E2FFAD700F0000ED4
:1026800001014B6F020E4C6FC5ECA8F0020E010168
:102690004E6FA00E4D6F920EE82EFED74D2FFCD739
:1026A0004E2FFAD700F0000E0001726F020E736F0A
:1026B000000E756F320E746FCEECAAF0020E01019F
:1026C0004E6FA00E4D6F920EE82EFED74D2FFCD709
:1026D0004E2FFAD700F0000E00019A6F020E9B6F8A
:1026E000000E9C6F000E9D6F000E9E6F000E9F6F80
:1026F000ABECA4F0270E00019A6F020E9B6F000E48
:102700009C6F000E9D6F000E9E6F000E9F6FABECD6
:10271000A4F04E0E00019A6F020E9B6F000E9C6F8C
:10272000000E9D6F000E9E6F000E9F6FABECA4F02D
:102730001200800E00017B6F010E7C6F89C0D9FFF3
:102740008AC0DAFFDF5014ECA5F0FF0E00017B6FAA
:10275000010E7C6F89C0D9FF8AC0DAFFDF5014EC0C
:10276000A5F0000E00017B6F000E7C6F89C0D9FFC1
:102770008AC0DAFFDF5014ECA5F0FF0E00017B6F7A
:10278000060E7C6F89C0D9FF8AC0DAFFDF5014ECD7
:10279000A5F0830E00017B6F89C0D9FF8AC0DAFFE4
:1027A000DF50B9ECA3F00001906F830E7B6F905166
:1027B00004097C6F89C0D9FF8AC0DAFFDF5014ECAE
:1027C000A5F0FF0E00017B6F070E7C6F89C0D9FF5B
:1027D0008AC0DAFFDF5014ECA5F0810E00017B6F98
:1027E000010E7C6F89C0D9FF8AC0DAFFDF5014EC7C
:1027F000A5F0800E00017B6F010E7C6F89C0D9FFB0
:102800008AC0DAFFDF5014ECA5F0940E00017B6F54
:102810006B0E7C6F89C0D9FF8AC0DAFFDF5014ECE1
:10282000A5F0830E00017B6F000E7C6F89C0D9FF7D
:102830008AC0DAFFDF5014ECA5F0910E0001726F30
:10284000000E736F20EE03F08951D9268A51DA22E7
:10285000DECF74F0DDCF75F0D5ECA9F00CD0910E81
:102860000001726F000E736FA4EC9DF00009D8B4E4
:1028700002D0000E1200830E00017B6F89C0D9FFC9
:102880008AC0DAFFDF50B9ECA3F00009D8B4E7D76B
:10289000830E00017B6F010E7C6F89C0D9FF8AC057
:1028A000DAFFDF5014ECA5F0920E00017B6F89C0B7
:1028B000D9FF8AC0DAFFDF50B9ECA3F000018F6FB7
:1028C0008F517F0B8BC0D9FF8CC0DAFFDF6E8F4535
:1028D000010B8DC0D9FF8EC0DAFFDF6E810E7B6FDA
:1028E000000E7C6F89C0D9FF8AC0DAFFDF5014EC7C
:1028F000A5F0FF0E00017B6F060E7C6F89C0D9FF2B
:102900008AC0DAFFDF5014ECA5F0830E00017B6F64
:1029100089C0D9FF8AC0DAFFDF50B9ECA3F000010B
:10292000906F830E7B6F9051FB0B7C6F89C0D9FF3A
:102930008AC0DAFFDF5014ECA5F0FF0E00017B6FB8
:10294000010E7C6F89C0D9FF8AC0DAFFDF5014EC1A
:10295000A5F0000E00017B6F010E7C6F89C0D9FFCE
:102960008AC0DAFFDF5014ECA5F0FF0E00017B6F88
:10297000000E7C6F89C0D9FF8AC0DAFFDF5014ECEB
:10298000A5F0800E00017B6F000E7C6F89C0D9FF1F
:102990008AC0DAFFDF5014ECA5F0010E12000E0120
:1029A000CD9196AE01D1969E000E596E20EE03F0A9
:1029B0005050D9265150DA22DECF04F0DDCF05F099
:1029C00004C0D9FF05C0DAFF010EDF6E000E506EA5
:1029D000000E516E12000001D2B31200D0C050F0B0
:1029E000D1C051F0D0C0D9FFD1C0DAFFDF50586E4E
:1029F00020EE01F0D051D926D151DA22DECF52F0AB
:102A0000DDCF53F0050ED027000ED123430ED01991
:102A100008E1010ED119D8A404D03E0ED06F010EEA
:102A2000D16FD291CE51D01904E1CF51D119D8B480
:102A3000D2839780020E596E12009782020E596E51
:102A4000120097AC06D00001D42B040EADECA7F019
:102A50001200D8905B30056E5A30046E0450926EAE
:102A60005AA003D00B0E596E1200030E596E1200BD
:102A700097AC06D00001D42B040EADECA7F01200E9
:102A800097825AC004F05BC005F005C004F0056AE7
:102A9000060E0416000E0516F00E04105A6E0550B0
:102AA0005B6E5A80010E566E020E596E120056046D
:102AB000D8B41AD052C0D9FF53C0DAFFDECF5AF0D3
:102AC000DDCF5BF020EE03F05250D9265350DA22CE
:102AD000DECFD9F0DDCFDAF020EE02F05250D92669
:102AE0005350DA22DF50576E5AC092FF5AA003D0DB
:102AF000050E596E1200030E596E120097AC07D0E6
:102B00000001D42B979C050EADECA7F012005706E0
:102B10005728D8A40ED0050E5226000E5322582E48
:102B200004D0000EADECA7F012009782020E596E91
:102B30001200D9C0D9FFDAC0DAFFDF50926E00016F
:102B4000D94BDA2B120097AC07D00001D42B040E1E
:102B5000ADECA7F0979C12009786080E596E1200F4
:102B6000080E596E97861200D9C0D9FFDAC0DAFF75
:102B700092CFDFFF0001D94BDA2B010E575ED8B49C
:102B800004D0979A060E596E03D0978AE6ECAAF005
:102B900097881200000EADECA7F012000001D42BB4
:102BA000060EADECA7F012005950000AD8B413D7A6
:102BB000010AD8B442D7030AD8B479D7010AD8B4E5
:102BC0009DD7070AD8B4E6D7010AD8B4BCD7030A00
:102BD000D8B4C6D7010AD8B4DDD70F0AD8B4C4D741
:102BE000020AD8B42ED7010AD8B442D7D7D7070ED5
:102BF0000001AE6F760EAD6F030EB06FC00EAF6FFB
:102C0000020EB26F940EB16F020EB46F4E0EB36F20
:102C1000020EB66FB20EB56F020EB86F940EB76F9C
:102C2000020EBA6F260EB96FAF51AD25A16FB0512C
:102C3000AE21A26FA1C0BBF0A2C0BCF0BD6BBE6B49
:102C40009DC089F09EC08AF037ECA3F09DC098F03B
:102C50009EC099F016EC97F0000120EE0CF09D510B
:102C6000D9269E51DA22DF50D8B422D020EE1BF0B4
:102C70009D51D9269E51DA22DECFA1F0DECFA2F0FF
:102C8000DECFA3F0DECFA4F0B351A125A56FB451E0
:102C9000A221A66F000EA321A76F000EA421A86F8A
:102CA000A551BB27A651BC23A751BD23A851BE23C4
:102CB00020EE0EF09D51D9269E51DA22DF50D8B475
:102CC0002BD020EE1BF09D51D9269E51DA22DECF6B
:102CD000A1F0DECFA2F0DECFA3F0DECFA4F0B5519D
:102CE000A125A56FB651A221A66F000EA321A76F43
:102CF000000EA421A86FD890A535A96FA635AA6F9C
:102D0000A735AB6FA835AC6FA951BB27AA51BC231F
:102D1000AB51BD23AC512AD020EE0DF09D51D926E8
:102D20009E51DA22DF50D8B422D020EE1BF09D5104
:102D3000D9269E51DA22DECFA1F0DECFA2F0DECF7F
:102D4000A3F0DECFA4F0B151A125A56FB251A2210D
:102D5000A66F000EA321A76F000EA421A86FA55196
:102D6000BB27A651BC23A751BD23A851BE2320EEEB
:102D70000FF09D51D9269E51DA22DF50D8B422D0CF
:102D800020EE1FF09D51D9269E51DA22DECFA1F010
:102D9000DECFA2F0DECFA3F0DECFA4F0B751A125A5
:102DA000A56FB851A221A66F000EA321A76F000E38
:102DB000A421A86FA551BB27A651BC23A751BD23B1
:102DC000A851BE2320EE10F09D51D9269E51DA2243
:102DD000DF50D8B422D020EE23F09D51D9269E5149
:102DE000DA22DECFA1F0DECFA2F0DECFA3F0DECF7D
:102DF000A4F0B951A125A56FBA51A221A66F000E6A
:102E0000A321A76F000EA421A86FA551BB27A6512F
:102E1000BC23A751BD23A851BE23BBC09DF0BCC09D
:102E20009EF0BDC09FF0BEC0A0F0120098C0D9FFB8
:102E300099C0DAFFDF5000019C6F000E896F9C5132
:102E40004AECA7F000019A6F9B6B20EE11F09851AD
:102E5000D9269951DA229AC0DEFF9BC0DDFF460ECB
:102E60007B6F9C51B9ECA3F000019A6F9B6B010E34
:102E70009A27000E9B2320EE15F09851D9269951E0
:102E8000DA229AC0DEFF9BC0DDFF20EE15F09851DC
:102E9000D9269951DA22DECF8BF0DDCF8CF020EEEF
:102EA00011F09851D9269951DA22DF508D6F37EC05
:102EB0009DF0000120EE1BF09851D9269951DA229D
:102EC0008BC0DEFF8CC0DEFF8DC0DEFF8EC0DEFF5C
:102ED000510E7B6F9C51F8EC9FF07BC092F07CC050
:102EE00093F0CCECA7F0000120EE17F09851D92612
:102EF0009951DA2292C0DEFF93C0DDFF20EE17F079
:102F00009851D9269951DA22DECF8BF0DDCF8CF0A3
:102F100020EE11F09851D9269951DA22DF508D6FA9
:102F200037EC9DF0000120EE1FF09851D926995101
:102F3000DA228BC0DEFF8CC0DEFF8DC0DEFF8EC0CC
:102F4000DEFF010E896F9C514AECA7F000019A6FD9
:102F50009B6B20EE13F09851D9269951DA229AC032
:102F6000DEFF9BC0DDFF710E7B6F9C51F8EC9FF084
:102F70007BC092F07CC093F0CCECA7F0000120EE77
:102F800019F09851D9269951DA2292C0DEFF93C0E8
:102F9000DDFF20EE0FF09851D9269951DA22DF504B
:102FA000D8B414D020EE17F09851D9269951DA22CE
:102FB000DECF9AF0DDCF9BF020EE19F09851D926A4
:102FC0009951DA229A51DE5E9B51DD5A20EE19F0BA
:102FD0009851D9269951DA22DECF8BF0DDCF8CF0D3
:102FE00020EE13F09851D9269951DA22DF508D6FD7
:102FF00037EC9DF0000120EE23F09851D92699512D
:10300000DA228BC0DEFF8CC0DEFF8DC0DEFF8EC0FB
:10301000DEFF1200096E0950D8A404AE1AD001C018
:1030200005F002C006F003C007F004C008F0051E5A
:10303000061E071E081E052A000E06220722082269
:1030400005C00BF006C00CF007C00DF008C00EF074
:1030500008D001C00BF002C00CF003C00DF004C09A
:103060000EF00150021003100410D8A409D0000E75
:10307000016E000E026E000E036E000E046E120052
:10308000960E0A6E06D00A2AD8900E320D320C32F5
:103090000B32000E0B14056E000E0C14066E000EA3
:1030A0000D14076EFE0E0E14086E05500610071064
:1030B0000810D8B40DD0E7D70A2A010E0B26000E4F
:1030C0000C220D220E22D8900E320D320C320B3211
:1030D000000E0B14056E000E0C14066E000E0D147F
:1030E000076EFF0E0E14086E05500610071008102C
:1030F000D8B407D0E1D70A06D8900B360C360D3677
:103100000E360DBE03D0020E0A60F5D70AB008D005
:10311000FF0E0B16FF0E0C167F0E0D16FF0E0E1671
:10312000D8900A320AC005F0066A076A086A05C024
:1031300008F0076A066A056A05500B1206500C1261
:1031400007500D1208500E120950D8A404AE01D039
:103150000E8E0BC001F00CC002F00DC003F00EC0CB
:1031600004F0120000019C6FFF0E00017B6F010E46
:103170007C6F9C5114ECA5F04F0E00017B6F000E8C
:103180007C6F9C5114ECA5F04E0E00017B6F2C0E51
:103190007C6F9C5114ECA5F0FF0E00017B6F000EBC
:1031A0007C6F9C5114ECA5F0B60E00017B6FB40E41
:1031B0007C6F9C5114ECA5F091C0D9FF92C0DAFF4E
:1031C000DF50D8A405D0000E00019A6F000E04D085
:1031D000000E00019A6F0C0E996F99C098F0000EC6
:1031E0009B6F000E9D6F2F0E9D6501D050D09851A2
:1031F0009D5DD8A008D08FC0D9FF90C0DAFF9B5149
:10320000DE18D8A423D09DC095F0070E9517010EA7
:10321000966F952B02D0D8909637952FFCD700014A
:103220009651FF0A976F9DC072F0736B000E756F19
:10323000080E746FB2ECA2F0000172519325D96EA2
:1032400073519421DA6E9751DF161FD09DC095F00F
:10325000070E95179DC072F0736B000E756F080E08
:10326000746FB2ECA2F0000172519325D96E7351C4
:103270009421DA6EDF50966F952B02D0D89096335A
:10328000952FFCD7000196B19B2B9D2BACD7B00E90
:103290007B6F93C07CF094C07DF0060E7E6F9C51D6
:1032A00090ECA1F01200890E00017B6F010E7C6F83
:1032B000A7C0D9FFA8C0DAFFDF5014ECA5F0800E3C
:1032C00000017B6F010E7C6FA7C0D9FFA8C0DAFF99
:1032D000DF5014ECA5F0FF0E00017B6F010E7C6F38
:1032E000A7C0D9FFA8C0DAFFDF5014ECA5F0000E8C
:1032F00000017B6F000E7C6FA7C0D9FFA8C0DAFF6A
:10330000DF5014ECA5F0910E00017B6FA7C0D9FF30
:10331000A8C0DAFFDF50B9ECA3F00001A96F20EEDE
:1033200001F0A751D926A851DA22A9C0DFFF000E6B
:103330007B6F010E7C6FA7C0D9FFA8C0DAFFDF50FA
:1033400014ECA5F0FF0E00017B6F000E7C6FA7C090
:10335000D9FFA8C0DAFFDF5014ECA5F0800E000101
:103360007B6F000E7C6FA7C0D9FFA8C0DAFFDF50CB
:1033700014ECA5F0600E00017B6FA7C0D9FFA8C0B8
:10338000DAFFDF50B9ECA3F00001AA6F600E7B6F8B
:10339000AA5112097C6FA7C0D9FFA8C0DAFFDF507D
:1033A00014ECA5F0000E0001A26F000EA36F800EBA
:1033B000A46F3E0EA56FA7C0D9FFA8C0DAFFDF50EB
:1033C00078ECA3F0010E00017B6FFF0E7C6FA7C0AD
:1033D000D9FFA8C0DAFFDF5014ECA5F01200000EF0
:1033E000000172157A6F000E73157B6F800E7415D5
:1033F0007C6F7F0E75157D6F7A517B117C117D116D
:10340000D8A408D0000E726F000E736F000E746F98
:10341000000E756F000E76157A6F000E77157B6FB4
:10342000800E78157C6F7F0E79157D6F7A517B1138
:103430007C117D11D8A408D0000E766F000E776F36
:10344000000E786F000E796F75AF1DD072C07AF0E4
:1034500073C07BF074C07CF075C07DF07A1F7B1F59
:103460007C1F7D1F7A2B000E7B237C237D23000E87
:103470007A25726F000E7B21736F000E7C21746FB2
:10348000800E7D21756F79AF1DD076C07AF077C040
:103490007BF078C07CF079C07DF07A1F7B1F7C1FA9
:1034A0007D1F7A2B000E7B237C237D23000E7A2543
:1034B000766F000E7B21776F000E7C21786F800E77
:1034C0007D21796F000E721B000E731B000E741BA2
:1034D000800E751B000E761B000E771B000E781BEE
:1034E000800E791B7651725D7751735978517459FA
:1034F00079517559D8B002D0D8901200D8801200F6
:10350000000E876E000E866E000E836E000E846EB7
:10351000000E856E020E8C6EE00E886EC70E896EF0
:10352000990E8A6EE30E8B6E1C0E0F01266F660ECF
:10353000216FF80E196F050E2E6F1F0E116F060EFC
:10354000256F000E2D6F000E186FC00E106F000E4D
:10355000206F000E2C6F000E0F6F000E176F000E05
:103560001F6F000E246F0E6916691E692369070E0E
:103570002B6F0D6915691D6922690F0E2A6F0A9B51
:103580000A9D0A9F0B8B0B8D0B8F0C9B0C9F1A9126
:103590001B811C91940E0001726F4C0E736F010E13
:1035A000746F7FECABF0460E0001726F500E736FBC
:1035B000010E746F78ECABF0C40E0001726F570E01
:1035C000736F010E746F71ECABF0440E0001726FFB
:1035D0004C0E736F010E746F6AECABF00E01C28972
:1035E000130EB76F170EB56F0F0EFA6F060EF86F4A
:1035F000100EFB6F050EF96F090EFD6F140EB86FFC
:10360000120083908392040E00017B6F400E7A6F4C
:10361000260EE82EFED77A2FFCD77B2FFAD700F0A4
:10362000030E24ECA2F0680E00017A6FE40EE82E7F
:10363000FED77A2FFCD700F0030E24ECA2F0680E20
:1036400000017A6FE40EE82EFED77A2FFCD700F047
:10365000030E24ECA2F0680E00017A6FE40EE82E4F
:10366000FED77A2FFCD700F0020E24ECA2F0680EF1
:1036700000017A6FE40EE82EFED77A2FFCD700F017
:10368000000E0001776F280E76ECA8F0680E00019E
:103690007A6FE40EE82EFED77A2FFCD700F0000EEA
:1036A0000001776F0C0E76ECA8F0A70E00017A6F80
:1036B0003A0EE82EFED77A2FFCD700F049ECAAF09C
:1036C000680E00017A6FE40EE82EFED77A2FFCD741
:1036D00000F0000E0001776F060E76ECA8F0680E81
:1036E00000017A6FE40EE82EFED77A2FFCD700F0A7
:1036F00049ECAAF08380120000018F51726F736B46
:10370000746B756B000E766F2F0E776F3A0E786FB5
:10371000000E796FA3ECA5F0F40E000172257E6F08
:10372000010E73217F6F000E7421806F000E7521D2
:10373000816FE80E826F030E836F000E846F000EA0
:10374000856FF5ECA2F07EC094F07FC095F080C04C
:1037500096F081C097F094C090F095C091F096C01B
:1037600092F097C093F00001D89093339233913345
:1037700090338BC072F08CC073F08DC074F08EC02B
:1037800075F0E80E766F030E776F000E786F000EFF
:10379000796FA3ECA5F00001905172257E6F9151D5
:1037A00073217F6F92517421806F93517521816FC6
:1037B00094C082F095C083F096C084F097C085F0E5
:1037C000F5ECA2F07EC08BF07FC08CF080C08DF055
:1037D00081C08EF0120000018D358E35946F9451AA
:1037E000D8A409D0000E8B6F000E8C6F000E8D6F69
:1037F000000E8E6F12008BC08FF08CC090F08DC0C9
:1038000091F08EC092F0200E05D0D8909233913373
:1038100090338F33E82EF9D78F51936F8D8FFF0E32
:103820008B17FF0E8C17FF0E8D17000E8E17960E3E
:10383000945F94AF16D09451800A970FD8B009D0F6
:10384000000E8B6F000E8C6F000E8D6F000E8E6F52
:103850001200D8908E338D338C338B33943FF9D74D
:1038600015D01F0E94650FD0000E8B6F000E8C6F5D
:10387000000E8D6F000E8E6F1200D8908B378C3734
:103880008D378E3794079451D8A4F7D79351D8B475
:1038900008D08E1F8D1F8C1F8B6D000E8C238D23E7
:1038A0008E238BC08BF08CC08CF08DC08DF08EC0C1
:1038B0008EF01200000E0001776F040E76ECA8F077
:1038C000910E0001A05D010EA159D8A007D0F80EFD
:1038D000796FFF0E7A6F06ECA8F054D00001A0516A
:1038E000A111D8A407D0F40E796FFF0E7A6F06EC01
:1038F000A8F048D0010E0001776FA0C072F0A1C0FF
:1039000073F0000E756F0A0E746F28ECA7F00001BB
:103910007251300F76ECA8F0010E0001A26FA15198
:1039200004E10A0EA05DD8A02AD0A0C072F0A1C008
:1039300073F0000E756F0A0E746FCFECA5F072C0B5
:10394000A0F073C0A1F0010E0001776FA0C072F06B
:10395000A1C073F0000E756F0A0E746F28ECA7F00B
:1039600000017251300F76ECA8F00001A22BD7D7DE
:10397000010E776F300E76ECA8F00001A22B020E3C
:10398000A265F6D7000E0001776F060E76ECA8F060
:1039900012003E343F34456E4550D8A409D0000E85
:1039A0003C6E000E3D6E000E3E6E000E3F6E12002D
:1039B0003CC040F03DC041F03EC042F03FC043F04B
:1039C000200E05D0D8904332423241324032E82EA8
:1039D000F9D74050446E3E8EFF0E3C16FF0E3D164A
:1039E000FF0E3E16000E3F16960E455E45AE16D0F3
:1039F0004550800A970FD8B009D0000E3C6E000EDB
:103A00003D6E000E3E6E000E3F6E1200D8903F32AB
:103A10003E323D323C32453EF9D715D01F0E45644B
:103A20000FD0000E3C6E000E3D6E000E3E6E000E7E
:103A30003F6E1200D8903C363D363E363F36450646
:103A40004550D8A4F7D74450D8B408D03F1E3E1EE6
:103A50003D1E3C6C000E3D223E223F223CC03CF00D
:103A60003DC03DF03EC03EF03FC03FF012000001BF
:103A70008D51726F736B746B756B000E766F2F0EBA
:103A8000776F3A0E786F000E796FA3ECA5F0F40E05
:103A9000000172257E6F010E73217F6F000E74216D
:103AA000806F000E7521816FE80E826F030E836FA9
:103AB000000E846F000E856FF5ECA2F07EC093F0CF
:103AC0007FC094F080C095F081C096F093C08FF0D5
:103AD00094C090F095C091F096C092F00001D890FB
:103AE0009233913390338F338BC072F08CC073F06C
:103AF000746B756B93C076F094C077F095C078F0D6
:103B000096C079F0A3ECA5F000018F5172257E6F6D
:103B1000905173217F6F91517421806F9251752163
:103B2000816FE80E826F030E836F000E846F000EAC
:103B3000856FF5ECA2F07EC08BF07FC08CF080C06A
:103B40008DF081C08EF01200000120EE02F0725163
:103B5000D9267351DA22DE50DE10D8A402D0000E2E
:103B6000120072C0D9FF73C0DAFFDE50E15DDE5093
:103B7000E259D8B036D072C0D9FF73C0DAFFDECFB9
:103B800074F0DDCF75F0741F751F744B752BFF0E2D
:103B90007425786FFF0E7521796F72C0D9FF73C0DD
:103BA000DAFFDECF74F0DDCF75F0741F751F744B34
:103BB000752BE1517427E25175237851742779519F
:103BC000752320EE02F07251D9267351DA22745116
:103BD000DE5C7551DE58D8B002D0010E1200000E26
:103BE000120072C0D9FF73C0DAFFDECF74F0DDCFF0
:103BF00075F0741F751F744B752BE1517427E251DA
:103C0000752320EE02F07251D9267351DA227451D5
:103C1000DE5C7551DE58D8B002D0010E1200000EE5
:103C20001200CCC089F0CDC08AF0490E00018B6F24
:103C3000010E8C6F4A0E8D6F010E8E6F99EC93F012
:103C40000009D8B41200B00E00017B6F430E7C6FE8
:103C5000010E7D6F060E7E6FCCC0D9FFCDC0DAFF9E
:103C6000DF50DAECA1F0490E00018F6F010E906F6A
:103C70004A0E916F010E926F430E936F010E946F77
:103C8000CCC0D9FFCDC0DAFFDF50B2EC98F0CCC089
:103C9000D9FFCDC0DAFFDF50E8EC87F0CCC0D9FF08
:103CA000CDC0DAFFDF50E2ECA6F0CCC09DF0CDC075
:103CB0009EF0F7EC95F0000120EE08F0CC51D926EB
:103CC000CD51DA229DC0DEFF9EC0DEFF9FC0DEFF29
:103CD000A0C0DEFF010E7B6FE80E7C6FCCC0D9FF69
:103CE000CDC0DAFFDF5014ECA5F0CCC0A2F0CDC0FF
:103CF000A3F066EC8FF01200000E126E10AE0AD028
:103D0000101E0F1E0E1E0D6C000E0E220F22102212
:103D1000010E126E0CAE0AD00C1E0B1E0A1E096C90
:103D2000000E0A220B220C22010E121A000E136E34
:103D3000000E146E000E156E000E166E0D500E1055
:103D40000F101010D8B42AD0010E116E06D0D890E2
:103D50000D360E360F361036112A10AEF8D7D89021
:103D600013361436153616360D50095C0E500A58A7
:103D70000F500B5810500C58D8A009D00D50095EA8
:103D80000E500A5A0F500B5A10500C5A1380D890EC
:103D900010320F320E320D32112EE1D71250D8B43C
:103DA00008D0161E151E141E136C000E14221522A8
:103DB000162213C009F014C00AF015C00BF016C08B
:103DC0000CF01200000E0001776F040E76ECA8F0E4
:103DD000010E0001776F79C072F07AC073F0000EA7
:103DE000756F0A0E746F28ECA7F000017251300F46
:103DF00076ECA8F0010E00017C6F2CD07B517C1971
:103E0000D8A405D0010E776F2E0E76ECA8F079C0FD
:103E100072F07AC073F0000E0001756F0A0E746FB5
:103E2000CFECA5F072C079F073C07AF0010E0001FA
:103E3000776F79C072F07AC073F0000E756F0A0E5A
:103E4000746F28ECA7F000017251300F76ECA8F0E7
:103E500000017C2B7C517B5DD8B0D0D77A51CEE16C
:103E60000A0E795DD8A008D0C9D7010E776F300E41
:103E700076ECA8F000017C2B040E7C65F6D7000ED2
:103E8000776F060E76ECA8F01200800E00017B6FB3
:103E9000010E7C6F86C0D9FF87C0DAFFDF5014ECBB
:103EA000A5F0FF0E00017B6F010E7C6F86C0D9FF6D
:103EB00087C0DAFFDF5014ECA5F0000E00017B6F25
:103EC000000E7C6F86C0D9FF87C0DAFFDF5014EC8C
:103ED000A5F0910E00017B6F20EE01F08651D926EE
:103EE0008751DA22DF507C6F86C0D9FF87C0DAFFA6
:103EF000DF5014ECA5F0000E00017B6F010E7C6F0B
:103F000086C0D9FF87C0DAFFDF5014ECA5F0FF0EA2
:103F100000017B6F000E7C6F86C0D9FF87C0DAFF7F
:103F2000DF5014ECA5F0800E00017B6F000E7C6F5B
:103F300086C0D9FF87C0DAFFDF5014ECA5F012006D
:103F40000001E451010D000EF324D96E010EF4209E
:103F5000DA6E000EDF6E9DA416D0E451010D000E46
:103F6000F324D96E010EF420DA6E0101DF8201D84C
:103F70000AD00500FA6E8351FD6E8451FE6E8551A4
:103F8000FF6EFA5012009DA217D00001E451010DFE
:103F9000000EF324D96E010EF420DA6E0101DF84E5
:103FA00001D80AD00500FA6E8051FD6E8151FE6E77
:103FB0008251FF6EFA5012000001E451010D000E13
:103FC000F324D96E010EF420DA6EDF50D8B40DD090
:103FD00001D812000500FA6E01017D51FD6E7E517F
:103FE000FE6E7F51FF6EFA50120024ECAAF0120010
:103FF00000018E6F020E0001916F7F0E726F000E36
:10400000736F7B0E746F000E756F010E766F8EC02E
:1040100077F0786B05ECA7F0840E0001726F000E4C
:10402000736F900E746F000E756F010E766F8EC0F9
:1040300077F0786BF9ECA5F0890E0001726F000E35
:10404000736F8F0E746F000E756F010E766F8EC0DA
:1040500077F0786BF9ECA5F014D07F0E0001726F49
:10406000000E736F910E746F000E756F030EA3EC4C
:10407000A0F0020E00019119D8B4FBD79151D8B429
:1040800004D000019105D8A4E8D790517E6F7D6BD4
:104090008F517D137DC07BF07EC07CF01200000E3E
:1040A00000017B6F8B5101097C6F89C0D9FF8AC0E9
:1040B000DAFFDF5014ECA5F08D0E0001726F000ED8
:1040C000736F20EE03F08951D9268A51DA22DECFB0
:1040D00074F0DDCF75F0D5ECA9F00CD08D0E000199
:1040E000726F000E736FA4EC9DF00009D8B402D07B
:1040F000000E1200130E00017B6F89C0D9FF8AC029
:10410000DAFFDF50B9ECA3F000018C6F070E8C17BB
:10411000D8B4E4D70B0E7B6F010E7C6F89C0D9FF3A
:104120008AC0DAFFDF5014ECA5F0000E00017B6FAF
:10413000000E7C6F89C0D9FF8AC0DAFFDF5014EC13
:10414000A5F0010E12000001776F0001D2B139D045
:1041500074C0D9FF75C0DAFF020EDF6E20EE01F0E9
:10416000CE51D926CF51DA2272C0DEFF73C0DDFFF7
:10417000CEC0D9FFCFC0DAFF77C0DFFF20EE03F05B
:10418000CE51D926CF51DA2274C0DEFF75C0DDFFD3
:10419000050ECE27000ECF23430ECE1908E1010EE7
:1041A000CF19D8A404D03E0ECE6F010ECF6FD2939C
:1041B000CE51D0190CE1CF51D119D8A408D0D28159
:1041C00006D074C0D9FF75C0DAFF010EDF6E74C06F
:1041D000D9FF75C0DAFF020EDE18D8A41200BFECBA
:1041E000ABF00E01CD811200000E00017A6F000EBF
:1041F0007B6F000E7C6F000E7D6F000E796F000EDE
:10420000786F72517311D8B439D0FF0E746FFF0EEE
:10421000756F72C076F073C077F074517627755160
:10422000772376C07AF077C07BF07C6B7D6B07D00C
:10423000D8907D337C337B337A33784B792B000EE7
:104240007A15746FFF0E7B15756FFF0E7C15766FF8
:10425000FF0E7D15776F7451751176117711D8A403
:10426000E7D77A5178C074F079C075F074C075F0F2
:10427000746B7411726F7551736F1200000E736F4F
:10428000000E726F12000E01C59B400E0001726F8E
:104290003F0E736F010E746F8DECABF00E01C5997C
:1042A000200E0001726F520E736F010E746F86EC58
:1042B000ABF0080E9F6E900E9D6E240E9E6E8A0EC1
:1042C0009B6E000E9C6EC60E0001726F570E736FD0
:1042D000010E746F9BECABF08C0E0001726F570EE9
:1042E000736F010E746F94ECABF0920E0001726F5D
:1042F000570E736F010E746FA2ECABF0000E00014D
:10430000E36F000EE66F000EE56F080EED6F000E16
:10431000E46F000E556E000E546E0E01C58B120038
:104320000001836F020E00018E6F7BC081F0840E4E
:10433000726F000E736F810E746F000E756F020E38
:10434000766F83C077F0786B05ECA7F0890E0001DB
:10435000726F000E736F7CC074F07DC075F07EC00C
:1043600076F083C077F0786B05ECA7F0000E0001C3
:10437000806F000E7F6F1AD0840E726F000E736F05
:104380008E0E746F000E756F020EA3ECA0F0020E7D
:1043900000018E19D8B4FBD78E51D8B41200640E28
:1043A0007F198011D8B412007F4B802B8E05D8B4B2
:1043B0001200E2D70001836F020E00018E6F7BC0F6
:1043C00081F0840E726F000E736F810E746F000E99
:1043D000756F020E766F83C077F0786B05ECA7F0EF
:1043E000890E0001726F000E736F7CC074F07DC087
:1043F00075F07EC076F083C077F0786BF9ECA5F0AD
:10440000000E0001806F000E7F6F1AD0840E726F55
:10441000000E736F8E0E746F000E756F020EA3EC9C
:10442000A0F0020E00018E19D8B4FBD78E51D8B47B
:104430001200640E7F198011D8B412007F4B802BBC
:104440008E05D8B41200E2D70001736F000173A18A
:1044500003D0726B722B02D00001726B72477247ED
:1044600083507219FB0B7219836E73A303D0726BA6
:10447000722B02D00001726B7247724772478350F1
:104480007219F70B7219836E73A503D0726B722BBE
:1044900002D00001726B723B83507219EF0B7219DC
:1044A000836E73A703D0726B722B02D00001726B04
:1044B00087507219FE0B7219876E8382E40E00D04A
:1044C00000D0E82EFCD700D000D08392E40E00D0BC
:1044D00000D0E82EFCD700D000D01200130E00014F
:1044E0007B6F92C0D9FF93C0DAFFDF50B9ECA3F025
:1044F0000001946F070E9417D8A415D0970E726F11
:10450000000E736FA4EC9DF00009D8B40CD000012C
:1045100020EE05F09251D9269351DA22010EDF6E7A
:104520009269936912001E0E00017B6F92C0D9FF41
:1045300093C0DAFFDF50F8EC9FF07BC095F07CC0B1
:1045400096F00B0E00017B6F010E7C6F92C0D9FFBD
:1045500093C0DAFFDF5014ECA5F095C092F096C03E
:1045600093F01200000E0001776F75AF06D0746DE6
:10457000751FD8B0752B010E776F73AF06D0726DB3
:10458000731FD8B0732B010E771B000E796F000ECE
:10459000786F74517511D8B41CD0010E766F04D0A9
:1045A000D89074377537762B75AFFAD7D89078379F
:1045B00079377451725D75517359D8A005D0745113
:1045C000725F7551735B7881D89075337433762F31
:1045D000EDD77751D8B404D0786D791FD8B0792B46
:1045E00078C072F079C073F01200000E0001866F7F
:1045F000000E876F000E886F000E896F8251831145
:1046000084118511D8B42AD0010E8A6F06D0D890B3
:1046100082378337843785378A2B85AFF8D7D89090
:10462000863787378837893782517E5D83517F5936
:104630008451805985518159D8A009D082517E5F1B
:1046400083517F5B8451805B8551815B8681D890EB
:1046500085338433833382338A2FE1D786C07EF05B
:1046600087C07FF088C080F089C081F01200010E01
:1046700000017B6F89C0D9FF8AC0DAFFDF50B9EC37
:10468000A3F000018B6F20EE0CF08951D9268A51DE
:10469000DA228B390F0B010BDF6E20EE0EF0895101
:1046A000D9268A51DA228B39E8461F0B010BDF6EBF
:1046B00020EE0DF08951D9268A51DA228B41E84249
:1046C0003F0B010BDF6E20EE0FF08951D9268A5186
:1046D000DA228B45E846030B010BDF6E20EE10F06B
:1046E0008951D9268A51DA228B45010BDF6E1200DF
:1046F0000001A66F0001A5BF1200B80E726FFE0E7A
:10470000736FFF0E746F430E756FA2C076F0A3C077
:1047100077F0A4C078F0A5C079F0EFEC99F0000133
:10472000D8A01200440E956F000E766F000E776FC2
:10473000000E786F430E796FA2C072F0A3C073F0C1
:10474000A4C074F0A5C075F077EC8AF072C08BF04D
:1047500073C08CF074C08DF075C08EF0EBEC9BF0E4
:104760008BC096F08CC097F00001A651E0ECA4F04D
:10477000120000017C6F020E0001886F7D0E726FC7
:10478000000E736F7B0E746F000E756F010E766FE7
:104790007CC077F0786B05ECA7F0820E0001726F99
:1047A000000E736F870E746F000E756F010E766FBB
:1047B0007CC077F0786BF9ECA5F014D07D0E000189
:1047C000726F000E736F880E746F000E756F020E9D
:1047D000A3ECA0F0020E00018819D8B4FBD78851D1
:1047E000D8B404D000018805D8A4E8D787511200B6
:1047F000F80E00017B6F92C0D9FF93C0DAFFDF5043
:10480000F8EC9FF07BC098F07CC099F000019851C3
:104810009911D8B418D094C072F095C073F096C0B6
:1048200074F097C075F098C076F099C077F0786B07
:10483000796BA3ECA5F072C094F073C095F074C0CE
:1048400096F075C097F0040E00017B6F94C07CF069
:1048500095C07DF096C07EF097C07FF092C0D9FFE2
:1048600093C0DAFFDF5073ECA4F01200010E0001D8
:104870007B6F010E7C6F91C0D9FF92C0DAFFDF50D1
:1048800014ECA5F091C089F092C08AF0400E0001AE
:104890008B6F4FECA0F00009D8B41200010E00019C
:1048A0007B6F020E7C6F91C0D9FF92C0DAFFDF50A0
:1048B00014ECA5F091C089F092C08AF0000E0001BE
:1048C0008B6F4FECA0F00009D8B41200010E00016C
:1048D0007B6FE80E7C6F91C0D9FF92C0DAFFDF508A
:1048E00014ECA5F012000001806F020E00018B6F26
:1048F0007BC081F07FC082F07EC083F07DC084F0F9
:104900007CC085F0860E726F000E736F810E746F1F
:10491000000E756F050E766F80C077F0786B05EC32
:10492000A7F014D0860E0001726F000E736F8B0E0D
:10493000746F000E756F010EA3ECA0F0020E000163
:104940008B19D8B4FBD78B51D8B4120000018B055A
:10495000D8B41200E7D79AC086F09BC087F045EC28
:104960009FF000019C519D119E119F11D8B41BD046
:104970009AC092F09BC093F09CC094F09DC095F0BB
:104980009EC096F09FC097F0F8ECA3F0000E0001D7
:104990007B6F040E7C6F9AC0D9FF9BC0DAFFDF509B
:1049A00014ECA5F01200000E00017B6F020E7C6F6C
:1049B0009AC0D9FF9BC0DAFFDF5014ECA5F01200BB
:1049C0000001986F020E0001A16F95C099F09751F8
:1049D0009A6F96C09BF09C0E726F000E736F990ECB
:1049E000746F000E756F030E766F98C077F0786B5A
:1049F00005ECA7F014D09C0E0001726F000E736FCF
:104A0000A10E746F000E756F010EA3ECA0F0020EE4
:104A10000001A119D8B4FBD7A151D8B412000001EC
:104A2000A105D8B41200E7D700017D6F020E000186
:104A3000856F7BC07EF07CC07FF0800E726F000EB1
:104A4000736F7E0E746F000E756F020E766F7DC0F1
:104A500077F0786B05ECA7F014D0800E0001726F30
:104A6000000E736F850E746F000E756F010EA3EC50
:104A7000A0F0020E00018519D8B4FBD78551D8B437
:104A8000120000018505D8B41200E7D7000120EE1E
:104A900005F07251D9267351DA22000EDF6E20EE36
:104AA00003F07251D9267351DA22000EDE6E000E29
:104AB000DD6E20EE08F07251D9267351DA22DE6ADB
:104AC000DE6ADE6ADD6A20EE01F07251D92673518A
:104AD000DA22000EDF6E20EE06F07251D9267351F5
:104AE000DA22000EDE6E000EDD6E12005E0EF66E35
:104AF000570EF76E010EF86E01EE9BF010EE0BF004
:104B00000900F5CFEEFFE550E150FAE102EE00F0CA
:104B1000750EEE6AE806FDE101EE00F0430EEE6A66
:104B2000E806FDE100EECEF0190EEE6AE806FDE1C2
:104B300000EE4CF0100EEE6AE806FDE15C905C922F
:104B4000000100EF80F0000E00017A6F000E7B6F15
:104B5000000E7C6F000E7D6F72A108D076517A270F
:104B600077517B2378517C2379517D23D8907637F8
:104B7000773778377937D890753374337333723326
:104B80007251731174117511D8A4E6D77AC072F0FE
:104B90007BC073F07CC074F07DC075F01200000E15
:104BA0000001776F000E766F74517511D8B41CD068
:104BB000010E786F04D0D89074377537782B75AFA5
:104BC000FAD7D890763777377451725D755173592B
:104BD000D8A005D07451725F7551735B7681D890FF
:104BE00075337433782FEDD776C072F077C073F0D9
:104BF000120077C079F078C07AF0D8900001793748
:104C00007A3772C0D9FF73C0DAFF79C0DEFF7AC08D
:104C1000DDFF72C0D9FF73C0DAFF000EDB8020EE2B
:104C200002F07251D9267351DA2276C0DFFF20EEEE
:104C300003F07251D9267351DA2274C0DEFF75C0B9
:104C4000DDFF1200DAECABF0D80E096E530E0A6EDF
:104C5000010E0B6E000E0C6E59ECAAF001C00DF0A7
:104C600002C00EF00F6A106A7CEC9EF009C0DDF005
:104C70000AC0DEF090A005D00001DD6DDE1FD8B0C7
:104C8000DE2B000E026E000E016EB2ECAAF0DCEC20
:104C9000ABF01200DEECABF0D80E096E530E0A6ECC
:104CA000010E0B6E000E0C6E69ECAAF001C00DF047
:104CB00002C00EF00F6A106A7CEC9EF009C0DFF0B3
:104CC0000AC0E0F091B205D00001DF6DE01FD8B05E
:104CD000E02B000E026E000E016EC0ECAAF0E0ECBC
:104CE000ABF01200000E6A6E000E6B6E000E6C6E62
:104CF000000E6D6E000E686E000E696E000E666E20
:104D0000000E0F015F6F000E5D6F000E596F000EF9
:104D10005A6F000E5B6F000E656E000E586F000E2E
:104D2000566F330E576F840E606E000E5C6F12006C
:104D3000000ECA6E000ECB6E010ECC6E000EC86E59
:104D4000000EC76EC750C8CF75F00001766B75C0F6
:104D500076F0756B7511E76F7651E86F0E01CE95A1
:104D6000C6852C0E0001726F550E736F010E746FA5
:104D700055ECABF0300EC96E1200000ED06E000E76
:104D8000D16E010ED26E000ECE6E000ECD6ECD50E5
:104D9000CECF75F00001766B75C076F0756B75112E
:104DA000E96F7651EA6F0E01CE91C681480E00017F
:104DB000726F550E736F010E746F5CECABF0300EBA
:104DC000CF6E120000018A6F0A0E00017B6F040E85
:104DD0007C6F8A5114ECA5F0840E00017B6F8A5120
:104DE000B9ECA3F00001896F840E7B6F8951EF0B42
:104DF0007C6F8A5114ECA5F00B0E00017B6F010E45
:104E00007C6F8A5114ECA5F0120077C079F078C05D
:104E10007AF0D890000179377A3772C0D9FF73C021
:104E2000DAFF79C0DEFF7AC0DDFF20EE02F07251BA
:104E3000D9267351DA2276C0DFFF20EE03F07251DB
:104E4000D9267351DA2274C0DEFF75C0DDFF12006F
:104E5000000174517511D8B418D0010E766F04D0CA
:104E6000D89074377537762B75AFFAD77451725D59
:104E700075517359D8A004D07451725F7551735B2A
:104E8000D89075337433762FF1D772C072F073C037
:104E900073F0120000018B6F00018951D8A40BD070
:104EA000500E7B6F8B51B9ECA3F000018A6FD89044
:104EB0008A35020F12008905D8A40BD0700E7B6FC3
:104EC0008B51B9ECA3F000018A6FD8908A35020F9C
:104ED0001200FF0E1200400ED66EC10ED46E800E70
:104EE000D36ED350D4CF75F00001766B75C076F0D9
:104EF000756B7511EB6F7651EC6F0E01CA9BC28B0F
:104F0000260E0001726F560E736F010E746F63EC04
:104F1000ABF0900ED56E12000001726F12D08EA011
:104F200002D0010E1200000E12008EA202D0010E5D
:104F30001200000E12008EA402D0010E1200000E0C
:104F4000120000017251000AD8B4E9D7010AD8B49E
:104F5000ECD7030AD8A41200EED7036E978420EE94
:104F600003F05050D9265150DA22DE50DE10D8B46A
:104F700010D020EE03F05050D9265150DA22DECF67
:104F800001F0DDCF02F001C0D9FF02C0DAFF03C09B
:104F9000DFFF000E596E120092C094F093C095F09E
:104FA00095C094F00001956BFF0E9215966F000E60
:104FB0009315976F942B03D0D89096379737942FEB
:104FC000FBD7010E00019625926F000E9721936F7B
:104FD0001200D8ECABF088ECAAF080EC9AF0DAEC96
:104FE000AAF040ECA8F0FDECAAF072ECA6F0DEEC22
:104FF000A8F079ECAAF06BECA7F008ECABF098EC19
:10500000A6F0BDECA6F043ECA1F0120010D0010E0A
:105010000001776F79C0F6FF7AC0F7FF000EF86ED7
:105020000800F55076ECA8F00001794B7A2B79C096
:10503000F6FF7AC0F7FF000EF86E0800F550000981
:10504000D8B41200E4D72A0E016E8E0EE82EFED7D9
:10505000012EFCD78DAC90A204D00001DB4BDC2BE1
:1050600007D08DAC90B204D00001DB07D8A0DC07DC
:105070002A0E016E8E0EE82EFED7012EFCD71200EE
:105080003E0E0001D06F010ED16F3E0ECE6F010EAD
:10509000CF6FD283D291000ED46F000E956E280E82
:1050A000966E000E986E270E936E0E01CD91CD93E5
:1050B000C581C58312000001736F0FD000017251CA
:1050C000D8B402D086881200869812007251D8B4E3
:1050D00002D0868412008694120000017351000AE7
:1050E000D8B4ECD7010AD8A41200F0D70001786F29
:1050F00000017751D8A402D0839001D08380E40EC0
:1051000000D000D0E82EFCD700D000D000017839C4
:105110000F0B24ECA2F0000178510F0B24ECA2F04D
:1051200012000E01CE95E7C001F0E8C002F0B2EC2B
:10513000AAF00101745175117611D8B4120001D88A
:1051400012000500FA6E7451FD6E7551FE6E7651B7
:10515000FF6EFA5012000E01CE91E9C001F0EAC0D4
:1051600002F0C0ECAAF00101775178117911D8B49E
:10517000120001D812000500FA6E7751FD6E7851C9
:10518000FE6E7951FF6EFA5012004BC172F04CC1A5
:1051900073F046ECA5F04BC1A7F04CC1A8F053EC5E
:1051A00099F04BC1CCF04CC1CDF011EC9EF04BC14D
:1051B00091F04CC192F036ECA4F01200040EB96EDE
:1051C000000EB86E000EBA6E4D0EB66E000EB56EC5
:1051D0000E01CE97C687E60E0001726F210E736F27
:1051E000010E746F4EECABF0A00EB76E12000E0104
:1051F000CA9B0001EC51D46EEBC0D3FF0101865174
:1052000087118811D8B4120001D812000500FA6E77
:105210008651FD6E8751FE6E8851FF6EFA50120066
:10522000080E0001ED6112D0E551010D100EF324BE
:10523000D96E010EF420DA6EDF509A6EE52B070E60
:10524000E56502D0000EE56FED2B12000E01C59949
:10525000120000017A6F839000017A51D8A407D020
:10526000000E776F7951800F76ECA8F01200000ED7
:105270000001776F7951C00F76ECA8F012000001A1
:105280009D6F00019D51270D000EF324926F020EB9
:10529000F420936F6EECA2F092C09EF093C09FF04A
:1052A0009EC09BF09FC09CF01200FF0E0116030EE3
:1052B0000216A8A80BD0060ED89001360236E82EAA
:1052C000FBD70250A76E01C0A6FF12000250A76EC6
:1052D00001C0A6FF1200FF0E0116030E0216ACA8B5
:1052E0000BD0060ED89001360236E82EFBD70250BE
:1052F000AB6E01C0AAFF12000250AB6E01C0AAFF44
:105300001200010189518A118B11D8B40CD001D837
:105310000AD00500FA6E8951FD6E8A51FE6E8B51DE
:10532000FF6EFA5012000F011A91120001018C5108
:105330008D118E11D8B40CD001D80AD00500FA6EA8
:105340008C51FD6E8D51FE6E8E51FF6EFA50120023
:105350000F010A9F120001018F5190119111D8B4D1
:105360000CD001D80AD00500FA6E8F51FD6E905115
:10537000FE6E9151FF6EFA5012000F010A9D12004D
:105380000101925193119411D8B40CD001D80AD0D4
:105390000500FA6E9251FD6E9351FE6E9451FF6EB0
:1053A000FA5012000F010A9B1200000120EE02F0D9
:1053B0007251D9267351DA2274C0DEFF75C0DDFF49
:1053C00072C0D9FF73C0DAFFE1C0DEFFE2C0DDFFCB
:1053D00012000001766F76C05FFF608E609C608077
:1053E00060B0FED764500001756F746B6350742514
:1053F000726F000E7521736F12000E01CE970101BE
:105400007A517B117C11D8B4120001D8120005002A
:10541000FA6E7A51FD6E7B51FE6E7C51FF6EFA5032
:1054200012000001796F00017951D8B406D0010E45
:10543000776F310E76ECA8F01200010E0001776F45
:10544000300E76ECA8F012000001E451010D080EB8
:10545000F324D96E010EF420DA6E99CFDFFFE42B2E
:10546000070EE46502D0000EE46F542A12000F010B
:105470000ABBC0ECA9F00F010ABDABECA9F00F010B
:105480000ABF96ECA9F00F011AA1120081ECA9F055
:105490001200000E0001776F010E76ECA8F02A0EC4
:1054A0000001796F8D0EE82EFED7792FFCD700D042
:1054B0001200C982C7CF08F0C8CF07F00750036EAB
:1054C0000850056E03C006F005C001F006C002F0EA
:1054D0001200CF82CDCF08F0CECF07F00750036E79
:1054E0000850056E03C006F005C001F006C002F0CA
:1054F0001200010EBF6E000EBE6E000EC06EC70E13
:10550000BC6E000EBB6E0E01CE93A00EBD6E1200DF
:10551000000E0E01E16F000EE26F000EE36F000E51
:10552000E46F000EE56F000EE66F1200DAECABF0F0
:10553000000E0001DE6F000EDD6F000E026E000E29
:10554000016EB2ECAAF01200DEECABF0000E00012E
:10555000E06F000EDF6F000E026E000E016EC0ECF9
:10556000AAF01200C9A407D0C9900250C86E01C0A9
:10557000C7FFC98012000250C86E01C0C7FF1200E9
:10558000CFA407D0CF900250CE6E01C0CDFFCF8008
:1055900012000250CE6E01C0CDFF1200000120EEBD
:1055A00003F07251D9267351DA2274C0DEFF75C040
:1055B000DDFF1200600E0E01D86F000EDA6F000ED4
:1055C000DC6F080EDE6F000EDD6F1200050E522636
:1055D000000E5322582E03D0040E596E1200010EF5
:1055E000596E12000001866F8A0E00017B6F86C023
:1055F0007CF0290E14ECA5F012008C0EA86E010EA2
:10560000A76E8F0EA66EAE50F30B0409AE6E12009D
:105610008C0EAC6E010EAB6E8F0EAA6EAE50FC0BF4
:105620000109AE6E12000001E14BE22B010E0101F7
:105630002827000E29232A232B2312000001726F32
:1056400000017251D8B402D08784120087941200EE
:105650000001726F00017251D8B402D08686120028
:10566000869612000001726F00017251D8B402D008
:10567000848812008498120028C172F029C173F046
:105680002AC174F02BC175F0120072C032F173C0E0
:1056900033F174C030F175C031F1120072C07AF18B
:1056A00073C07BF174C07CF1120072C074F173C0DE
:1056B00075F174C076F1120072C077F173C078F1A1
:1056C00074C079F1120072C086F173C087F174C0A2
:1056D00088F1120072C089F173C08AF174C08BF135
:1056E000120072C08CF173C08DF174C08EF1120083
:1056F00072C08FF173C090F174C091F1120072C04A
:1057000092F173C093F174C094F1120072C098F1D9
:1057100073C099F174C09AF1120072C095F173C010
:1057200096F174C097F1120072C080F173C081F1DC
:1057300074C082F1120072C083F173C084F174C02E
:1057400085F1120072C07DF173C07EF174C07FF1EB
:1057500012008DAE02D0010E1200000E1200292A96
:095760002B9001900190019001D1
:10576A00DBC072F0DCC073F0120072C0DBF073C0F1
:10577A00DCF012005950D8B41200FCD70E01CD93B8
:10578A0012009D989D88120024ECAAF01200859AB6
:10579A001200858A12008496120084861200849A66
:1057AA001200848A1200F29A1200C9901200C9806B
:0E57BA001200CF901200CF80120012001200D9
:020000040020DA
:10000000FF0FFF0FFF0FFF0FFF0FFF0FFF0FFF0F80
:020000040030CA
:0C0000008CFFFFFF9FFFFFDFFFFFFFFFF3
:00000001FF
