:0400000099EF00F084
:100008005C82FACF60F0FBCF61F0E9CF62F0EACF13
:1000180063F0E1CF64F0E2CF65F0D9CF66F0DACFD4
:1000280067F0F3CF68F0F4CF69F0F6CF6AF0F7CF56
:100038006BF0F8CF6CF0F5CF6DF05CC06EF05DC082
:100048006FF05EC070F05FC071F00E01C2BBCAAB4A
:1000580003D020ECA9F043D0C2B9CAA903D060EC00
:10006800AAF03DD0F2AC3BD0C5B3CDA303D0ECECA5
:10007800ABF035D0C5B1CDA103D013EC95F02FD09E
:10008800C5B9CDA90BD001D82AD00500FA6E010157
:100098009851FD6E9951FE6E9A510DD0C5BBCDABEE
:1000A8000DD001D81CD00500FA6E01019551FD6EE6
:1000B8009651FE6E9751FF6EFA501200C6B7CEA742
:1000C80003D026ECAAF00BD0C6B5CEA503D0BAEC67
:1000D800A8F005D0C6B1CEA102D0D4ECA8F071C06A
:1000E8005FF070C05EF06FC05DF06EC05CF06DC018
:1000F800F5FF6CC0F8FF6BC0F7FF6AC0F6FF69C078
:10010800F4FF68C0F3FF67C0DAFF66C0D9FF65C0B7
:10011800E2FF64C0E1FF63C0EAFF62C0E9FF61C0BB
:0E012800FBFF60C0FAFF5C921100BAEFA5F079
:10FEB200002034202020202020202020202020204C
:10FEC20020003E342020202020202020202020201E
:10FED2002020002043616C69622E204D6F646520F2
:10FEE200202020003E43616C69622E204D6F6465C4
:10FEF2002020202000202043616C69622E20646F44
:10FF02006E652120200020466F6C6C6F7720612087
:10FF12004C696E652020003E466F6C6C6F772061E5
:10FF2200204C696E652020002043616C6962726119
:10FF320074696E672E2E2E200061207768697465C1
:10FF4200207375726661636520002053656E736F5E
:10FF520072732052657669657720003E53656E7331
:10FF62006F72732052657669657720002D2D2057B8
:10FF7200656C636F6D65203A29202D2D00434E5923
:10FF82002053656E736F72732020312D3400434EFF
:10FF92005920426F6F6C65616E2020322D34004C07
:10FFA200617365722053656E736F7220332D340056
:10FFB2004D6963726F70686F6E65202020342D3436
:10FFC200005365742074686520726F626F74206FCD
:10FFD2006E0046616C7365203A2800547275652084
:10FFE200203A290072696768743A006C6566743A4F
:0DFFF200002D2D2D0058414D006D6D0000BB
:020000040001F9
:100000002DECA8F0F28EF28C000E51ECABF0000E4D
:100010000001736F000E726F000E756F000E746F2B
:100020006EECABF0A0EC92F0010E5BECABF0090EC5
:100030000101516F1E0E506FE40EE82EFED7502FB7
:10004000FCD7512FFAD700F0000E5BECABF045EC7B
:100050009BF0010E47ECABF072ECAAF0000E000131
:10006000796F000E52ECA9F06E0E0001796FFF0E51
:100070007A6F4AECA8F0000E01015E6F000E5D6F12
:100080005EBF06D05E5115E10A0E5D5DD8B011D09D
:10009000090E0101516F1E0E506FE40EE82EFED7BF
:1000A000502FFCD7512FFAD700F001015D4B5E2B8A
:1000B000E7D772ECAAF0010E5BECABF0090E010180
:1000C000516F1E0E506FE40EE82EFED7502FFCD756
:1000D000512FFAD700F0000E5BECABF0000E0101DF
:1000E0006A6F000E676F000E686F000E696F000E7A
:1000F0005C6F000E596F000E636F000E5A6F000E9A
:10010000646F000E5B6F000E716F000E566F000E75
:10011000556F000E586F000E576F000E666FC80EB9
:10012000656F000E606F000E5F6F000E736F000E44
:10013000726F000E626F000E616FDEECABF0DEECF2
:10014000ABF0E90E0001725D030E7359D8A006D022
:10015000000E736F000E726FE3ECABF0DEECABF0F1
:100160000001735104E1040E725DD8A006D0000EA8
:10017000736F030E726FE3ECABF0DEECABF00001DB
:10018000725101016A6FD8D0000E0001796F000E24
:1001900052ECA9F0190E0001796FFF0E7A6F4AEC4C
:1001A000A8F0000E0001796F010E52ECA9F04C0E80
:1001B0000001796FFF0E7A6F4AECA8F0D2ECABF039
:1001C0000009D8A462D3010E01015B6F0DD0090EA6
:1001D0000101516F1E0E506FE40EE82EFED7502F16
:1001E000FCD7512FFAD700F0D2ECABF00009D8B40D
:1001F000EED7000E0101676F000E686F000E696F89
:10020000000E5C6F72ECAAF040D3000E0001796F13
:10021000000E52ECA9F0080E0001796FFF0E7A6F04
:100220004AECA8F0000E0001796F010E52ECA9F023
:100230005D0E0001796FFF0E7A6F4AECA8F0D2ECE8
:10024000ABF00009D8A421D3010E0101596F0DD0E4
:10025000090E0101516F1E0E506FE40EE82EFED7FD
:10026000502FFCD7512FFAD700F0D2ECABF0000999
:10027000D8B4EED7000E0001736F000E726FE3EC7E
:10028000ABF072ECAAF001D3000E0001796F000E02
:1002900052ECA9F0E60E0001796FFE0E7A6F4AEC7F
:1002A000A8F0000E0001796F010E52ECA9F0B30E18
:1002B0000001796FFE0E7A6F4AECA8F0D2ECABF039
:1002C0000009D8A4E2D2000E0101646F0DD0090E1E
:1002D0000101516F1E0E506FE40EE82EFED7502F15
:1002E000FCD7512FFAD700F0D2ECABF00009D8B40C
:1002F000EED7010E01015A6F000E646F72ECAAF086
:10030000C4D2000E0001796F000E52ECA9F0D50E98
:100310000001796FFE0E7A6F4AECA8F0000E000122
:10032000796F010E52ECA9F0C40E0001796FFE0E38
:100330007A6F4AECA8F0A9D201016A51000AD8B438
:1003400023D7010AD8B461D7030AD8B49DD7010ACC
:10035000D8B4D7D79AD2D2ECABF00009D8A452D2F5
:10036000000E01015B6F000E716F0DD0090E0101CF
:10037000516F1E0E506FE40EE82EFED7502FFCD7A3
:10038000512FFAD700F0D2ECABF00009D8B4EED779
:1003900072ECAAF0000E0001736F000E726FE3ECB6
:1003A000ABF030D2000E0001736F000E726F000EC2
:1003B000756F000E746F6EECABF0020ED0ECA7F010
:1003C0000009D8B457D2010E0101716F010E5BEC28
:1003D000ABF0090E0101516F1E0E506FE40EE82EB6
:1003E000FED7502FFCD7512FFAD700F0000E5BEC50
:1003F000ABF040D2010E51ECABF0000E0001736F78
:10040000080E726FFF0E756FF80E746F6EECABF026
:10041000000ED0ECA7F0E806D8A415D0010ED0EC61
:10042000A7F0E806D8A40FD00101692B0B0E01013B
:10043000516F8E0E506F430EE82EFED7502FFCD713
:10044000512FFAD729D0000ED0ECA7F0E806D8A497
:100450000FD00101672B0B0E0101516F8E0E506FF3
:10046000430EE82EFED7502FFCD7512FFAD714D0C9
:10047000010ED0ECA7F0E806D8A40ED00101682B3D
:100480000B0E0101516F8E0E506F430EE82EFED7FA
:10049000502FFCD7512FFAD71F0E12ECAAF00101F2
:1004A0005F510001725D0101605100017359D8B0C4
:1004B0000DD01E0E12ECAAF0010172510001725D06
:1004C0000101735100017359D8A099D11D0E12EC8E
:1004D000AAF0010161510001725D01016251000148
:1004E0007359D8B0C7D11E0E12ECAAF00101725197
:1004F0000001725D0101735100017359D8B0BAD186
:10050000030E7ED1010E51ECABF0000E0001736FB3
:10051000080E726F000E756F000E746F6EECABF00C
:10052000000ED0ECA7F0E806D8A415D0010ED0EC50
:10053000A7F0E806D8A40FD00101692B0B0E01012A
:10054000516F8E0E506F430EE82EFED7502FFCD702
:10055000512FFAD729D0000ED0ECA7F0E806D8A486
:100560000FD00101672B0B0E0101516F8E0E506FE2
:10057000430EE82EFED7502FFCD7512FFAD714D0B8
:10058000010ED0ECA7F0E806D8A40ED00101682B2C
:100590000B0E0101516F8E0E506F430EE82EFED7E9
:1005A000502FFCD7512FFAD71E0E12ECAAF00001E3
:1005B00072510101725D0001735101017359D8B08C
:1005C00002D0010ED9D01D0E12ECAAF0010161512A
:1005D0000001725D0101625100017359D8B04AD126
:1005E0001E0E12ECAAF0000172510101725D0001B1
:1005F000735101017359D8B03DD1030EBDD0010E26
:1006000051ECABF0000E0001736F000E726FFF0E25
:10061000756FF80E746F6EECABF0000ED0ECA7F0B7
:10062000E806D8A415D0010ED0ECA7F0E806D8A4AF
:100630000FD00101692B0B0E0101516F8E0E506F0F
:10064000430EE82EFED7502FFCD7512FFAD729D0D2
:10065000000ED0ECA7F0E806D8A40FD00101672B5C
:100660000B0E0101516F8E0E506F430EE82EFED718
:10067000502FFCD7512FFAD714D0010ED0ECA7F091
:10068000E806D8A40ED00101682B0B0E0101516FB2
:100690008E0E506F430EE82EFED7502FFCD7512FF1
:1006A000FAD71E0E12ECAAF0000172510101725D20
:1006B0000001735101017359D8A083D71F0E12ECAA
:1006C000AAF001015F510001725D0101605100015A
:1006D0007359D8B0CFD01E0E12ECAAF0000172519F
:1006E0000101725D0001735101017359D8B0C2D08C
:1006F000020E42D0090E0101516F1E0E506FE40E22
:10070000E82EFED7502FFCD7512FFAD700F0FF0E5E
:100710000001736FFA0E726FFF0E756FFA0E746F31
:100720006EECABF0310E0101516FB40E506F650EDF
:10073000E82EFED7502FFCD7512FFAD700D00ED07D
:10074000010E51ECABF0FF0E0001736FFA0E726FE9
:10075000FF0E756FFA0E746F6EECABF01E0E12EC9E
:10076000AAF0010172510001725D01017351000193
:100770007359D8A0E5D7C4D6716F7CD0090E01019A
:10078000516F1E0E506FE40EE82EFED7502FFCD78F
:10079000512FFAD700F0000E0001736F060E726F32
:1007A000000E756F060E746F6EECABF0210E01013A
:1007B000516F780E506F980EE82EFED7502FFCD751
:1007C000512FFAD700F00ED0010E51ECABF0000E15
:1007D0000001736F060E726F000E756F060E746F58
:1007E0006EECABF01E0E12ECAAF00101725100018A
:1007F000725D0101735100017359D8A0E5D7020E53
:100800000101BAD701017151000AD8B4CBD5010A50
:10081000D8B4F0D5030AD8B475D6010AD8B4EFD647
:10082000070AD8B467D7010AD8B4A8D723D0030ED3
:100830006819D8A42AD0000E686F000E676F000EEA
:10084000696F010E0BD0020E6719D8A41ED0000EDE
:10085000686F000E676F000E696F020E5C6F040E0A
:10086000716F13D0030E6919D8A40FD0000E51EC8C
:10087000ABF00BD001015C51000AD8B4D8D7010A03
:10088000D8B4E1D7030AD8B4EDD701015B05D8A4E9
:10089000B8D161D5DEECABF0DEECABF0E90E0001D7
:1008A000725D030E7359D8A006D0000E736F000E50
:1008B000726FE3ECABF0DEECABF00001735104E1DE
:1008C000040E725DD8A006D0000E736F030E726F17
:1008D000E3ECABF0DEECABF001016351506F516B18
:1008E000000172510101501906E10001735101012B
:1008F0005119D8B447D1DEECABF0000172510101BF
:10090000636F72ECAAF03ED1000E0001796F000E09
:1009100052ECA9F07F0E0001796FFF0E7A6F4AEC5E
:10092000A8F0030E0001796F010E52ECA9F01F0E22
:1009300012ECAAF072C079F073C07AF0000E0001D8
:100940007B6F26EC9FF0090E0001796F010E52ECCF
:10095000A9F01E0E12ECAAF072C079F073C07AF002
:10096000000E00017B6F26EC9FF00F0E0001796FE7
:10097000010E52ECA9F01D0E12ECAAF072C079F033
:1009800073C07AF0000E00017B6F26EC9FF00B0E17
:100990000001796F010E52ECA9F0C20E0001796FCF
:1009A000FE0E7A6F4AECA8F0050E0001796F010E79
:1009B00052ECA9F0C20E0001796FFE0E7A6F4AEC7C
:1009C000A8F0EFD0000E0001796F000E52ECA9F0F4
:1009D000900E0001796FFF0E7A6F4AECA8F0000EBE
:1009E0000001796F010E52ECA9F0ED0E0001796F54
:1009F000FF0E7A6F4AECA8F0050E0001796F010E28
:100A000052ECA9F0010ED0ECA7F03AECAAF0090ED6
:100A10000001796F010E52ECA9F0E60E0001796F2A
:100A2000FF0E7A6F4AECA8F00F0E0001796F010EED
:100A300052ECA9F0000ED0ECA7F03AECAAF0B1D03D
:100A4000000E0001796F000E52ECA9F0A10E00011A
:100A5000796FFF0E7A6F4AECA8F0020E0001796FF1
:100A6000010E52ECA9F0000E68ECA9F09BC0A0F0BA
:100A70009CC0A1F09EEC9CF0050E0101516F0F0E81
:100A8000506FF10EE82EFED7502FFCD7512FFAD71A
:100A9000070E0001796F010E52ECA9F0010E68EC0F
:100AA000A9F09BC0A0F09CC0A1F09EEC9CF0050EAC
:100AB0000101516F0F0E506FF10EE82EFED7502F2F
:100AC000FCD7512FFAD70C0E0001796F010E52ECB2
:100AD000A9F0020E68ECA9F09BC0A0F09CC0A1F0A8
:100AE0009EEC9CF00E0E0001796F010E52ECA9F005
:100AF000FB0E0001796FFF0E7A6F4AECA8F051D01F
:100B0000000E0001796F000E52ECA9F0B20E000148
:100B1000796FFF0E7A6F4AECA8F0020ED0ECA7F0C6
:100B20000009D8B421D0040E0001796F010E52ECF7
:100B3000A9F0DD0E0001796FFF0E7A6F4AECA8F084
:100B4000010E5BECABF0090E0101516F1E0E506FF0
:100B5000E40EE82EFED7502FFCD7512FFAD700F025
:100B6000000E5BECABF01DD0040E0001796F010E9E
:100B700052ECA9F0D40E0001796FFF0E7A6F4AECA7
:100B8000A8F00FD001016351000AD8B4BDD6010A04
:100B9000D8B418D7030AD8B453D7010AD8B4B0D7F9
:100BA000070AD2ECABF00009D8A41ED0000E010158
:100BB000596F0DD0090E0101516F1E0E506FE40EDA
:100BC000E82EFED7502FFCD7512FFAD700F0D2ECE9
:100BD000ABF00009D8B4EED76AC172F00001736BB4
:100BE000E3ECABF072ECAAF0090E0101516F1E0E9E
:100BF000506FE40EE82EFED7502FFCD7512FFAD7B6
:100C000000F001015905D8A421D244D6000E51ECC0
:100C1000ABF0000E0001796F000E52ECA9F0C30E8C
:100C20000001796FFF0E7A6F4AECA8F0000E000108
:100C3000796F010E52ECA9F03B0E0001796FFF0EA7
:100C40007A6F4AECA8F0D2ECABF00009D8A4FED140
:100C5000010E0101646F0DD0090E0101516F1E0ECE
:100C6000506FE40EE82EFED7502FFCD7512FFAD745
:100C700000F0D2ECABF00009D8B4EED7010E5BEC7B
:100C8000ABF0090E0101516F1E0E506FE40EE82EFD
:100C9000FED7502FFCD7512FFAD700F0000E5BEC97
:100CA000ABF072ECAAF0000E01016C6F000E6B6FDE
:100CB000000E706F000E6F6F000E6E6F000E6D6F86
:100CC00065ECABF072C057F173C058F1BFD1000EA4
:100CD0000001796F000E52ECA9F02A0E0001796F25
:100CE000FF0E7A6F4AECA8F0030E0001796F010E37
:100CF00052ECA9F06BC179F06CC17AF0000E0001E2
:100D00007B6F26EC9FF0090E0001796F010E52EC0B
:100D1000A9F06FC179F070C17AF0000E00017B6F0D
:100D200026EC9FF0050E0001796F010E52ECA9F040
:100D3000C20E0001796FFE0E7A6F4AECA8F00F0E1A
:100D40000001796F010E52ECA9F06DC179F06EC10E
:100D50007AF0000E00017B6F26EC9FF00B0E000175
:100D6000796F010E52ECA9F0C20E0001796FFE0EF0
:100D70007A6F4AECA8F0010E51ECABF0000E0001C6
:100D8000736F020E726FFF0E756FFE0E746F6EEC56
:100D9000ABF01F0E12ECAAF00001725101016B5D65
:100DA0000001735101016C59D8B007D01F0E12EC2D
:100DB000AAF072C06BF173C06CF11E0E12ECAAF0B7
:100DC0000001725101016F5D000173510101705901
:100DD000D8B007D01E0E12ECAAF072C06FF173C02B
:100DE00070F11D0E12ECAAF00001725101016D5D4F
:100DF0000001735101016E59D8B007D01D0E12ECDD
:100E0000AAF072C06DF173C06EF165ECABF072C008
:100E100055F173C056F1D00E0101506F070E516F9E
:100E200057C152F158C153F15051522751515323D8
:100E30005551525D5351800A546F5651800A54598E
:100E4000D8B025D0020E646F000E0001736F000E43
:100E5000726F000E756F000E746F6EECABF0000ECB
:100E600051ECABF0010E5BECABF0090E0101516FE0
:100E70001E0E506FE40EE82EFED7502FFCD7512FD8
:100E8000FAD700F0000E5BECABF072ECAAF0050EA6
:100E90000101516F0F0E506FF10EE82EFED7502F4B
:100EA000FCD7512FFAD7D2D0000E0001796F000E77
:100EB00052ECA9F0F70E0001796FFE0E7A6F4AEC42
:100EC000A8F0030E0001796F010E52ECA9F06BC17E
:100ED00079F06CC17AF0000E00017B6F26EC9FF078
:100EE000090E0001796F010E52ECA9F06FC179F083
:100EF00070C17AF0000E00017B6F26EC9FF0050EAA
:100F00000001796F010E52ECA9F0C20E0001796F59
:100F1000FE0E7A6F4AECA8F00F0E0001796F010EF9
:100F200052ECA9F06DC179F06EC17AF0000E0001AB
:100F30007B6F26EC9FF00B0E0001796F010E52ECD7
:100F4000A9F0C20E0001796FFE0E7A6F4AECA8F08C
:100F5000D2ECABF00009D8A452D0000E0101646FAE
:100F60000DD0090E0101516F1E0E506FE40EE82ED8
:100F7000FED7502FFCD7512FFAD700F0D2ECABF0B0
:100F80000009D8B4EED765C150F166C151F1010135
:100F9000501F511F504B512B6B5150255F6F6C519F
:100FA0005121606F65C150F166C151F1501F511F51
:100FB000504B512B6F515025726F70515121736FEF
:100FC00065C150F166C151F1501F511F504B512B5B
:100FD0006D515025616F6E515121626F010E5BECB6
:100FE000ABF0000E5BECABF0000E01015A6F72EC3F
:100FF000AAF06AC172F00001736BE3ECABF0000E73
:101000000001736F000E726F000E756F000E746F2B
:101010006EECABF0000E51ECABF0090E0101516F1C
:101020001E0E506FE40EE82EFED7502FFCD7512F26
:10103000FAD700F00BD001016451000AD8B4E6D50C
:10104000010AD8B444D6030AD8B42ED701015A05F0
:10105000D8A49DEF80F0EFD70001886FFF0E00014C
:101060007B6F010E7C6F885158ECA5F0000E0001DB
:101070007B6F000E7C6F885158ECA5F0FF0E0001CD
:101080007B6F000E7C6F885158ECA5F0090E0001B3
:101090007B6F000E7C6F885158ECA5F0100E00019C
:1010A0007B6F000E7C6F885158ECA5F0110E00018B
:1010B0007B6F000E7C6F885158ECA5F0240E000168
:1010C0007B6F010E7C6F885158ECA5F0250E000156
:1010D0007B6FFF0E7C6F885158ECA5F0750E0001F8
:1010E0007B6F000E7C6F885158ECA5F0FF0E00015D
:1010F0007B6F010E7C6F885158ECA5F04E0E0001FD
:101100007B6F2C0E7C6F885158ECA5F0480E0001C7
:101110007B6F000E7C6F885158ECA5F0300E0001FB
:101120007B6F200E7C6F885158ECA5F0FF0E0001FC
:101130007B6F000E7C6F885158ECA5F0300E0001DB
:101140007B6F090E7C6F885158ECA5F0540E00019E
:101150007B6F000E7C6F885158ECA5F0310E0001BA
:101160007B6F040E7C6F885158ECA5F0320E0001A5
:101170007B6F030E7C6F885158ECA5F0400E000188
:101180007B6F830E7C6F885158ECA5F0460E0001F2
:101190007B6F250E7C6F885158ECA5F0600E000126
:1011A0007B6F000E7C6F885158ECA5F0270E000174
:1011B0007B6F000E7C6F885158ECA5F0500E00013B
:1011C0007B6F060E7C6F885158ECA5F0510E000124
:1011D0007B6F000E7C6F885158ECA5F0520E000119
:1011E0007B6F960E7C6F885158ECA5F0560E00016F
:1011F0007B6F080E7C6F885158ECA5F0570E0001EC
:101200007B6F300E7C6F885158ECA5F0610E0001A9
:101210007B6F000E7C6F885158ECA5F0620E0001C8
:101220007B6F000E7C6F885158ECA5F0640E0001B6
:101230007B6F000E7C6F885158ECA5F0650E0001A5
:101240007B6F000E7C6F885158ECA5F0660E000194
:101250007B6FA00E7C6F885158ECA5F0FF0E00014B
:101260007B6F010E7C6F885158ECA5F0220E0001B7
:101270007B6F320E7C6F885158ECA5F0470E000151
:101280007B6F140E7C6F885158ECA5F0490E00015D
:101290007B6FFF0E7C6F885158ECA5F04A0E000161
:1012A0007B6F000E7C6F885158ECA5F0FF0E00019B
:1012B0007B6F000E7C6F885158ECA5F07A0E000110
:1012C0007B6F0A0E7C6F885158ECA5F07B0E0001F5
:1012D0007B6F000E7C6F885158ECA5F0780E0001F2
:1012E0007B6F210E7C6F885158ECA5F0FF0E00013A
:1012F0007B6F010E7C6F885158ECA5F0230E000126
:101300007B6F340E7C6F885158ECA5F0420E0001C3
:101310007B6F000E7C6F885158ECA5F0440E0001E5
:101320007B6FFF0E7C6F885158ECA5F0450E0001D5
:101330007B6F260E7C6F885158ECA5F0460E00019D
:101340007B6F050E7C6F885158ECA5F0400E0001B4
:101350007B6F400E7C6F885158ECA5F00E0E00019B
:101360007B6F060E7C6F885158ECA5F0200E0001B3
:101370007B6F1A0E7C6F885158ECA5F0430E00016C
:101380007B6F400E7C6F885158ECA5F0FF0E00017A
:101390007B6F000E7C6F885158ECA5F0340E000175
:1013A0007B6F030E7C6F885158ECA5F0350E000161
:1013B0007B6F440E7C6F885158ECA5F0FF0E000146
:1013C0007B6F010E7C6F885158ECA5F0310E000147
:1013D0007B6F040E7C6F885158ECA5F04B0E00011A
:1013E0007B6F090E7C6F885158ECA5F04C0E000104
:1013F0007B6F050E7C6F885158ECA5F04D0E0001F7
:101400007B6F040E7C6F885158ECA5F0FF0E000135
:101410007B6F000E7C6F885158ECA5F0440E0001E4
:101420007B6F000E7C6F885158ECA5F0450E0001D3
:101430007B6F200E7C6F885158ECA5F0470E0001A1
:101440007B6F080E7C6F885158ECA5F0480E0001A8
:101450007B6F280E7C6F885158ECA5F0670E000159
:101460007B6F000E7C6F885158ECA5F0700E000168
:101470007B6F040E7C6F885158ECA5F0710E000153
:101480007B6F010E7C6F885158ECA5F0720E000145
:101490007B6FFE0E7C6F885158ECA5F0760E000134
:1014A0007B6F000E7C6F885158ECA5F0770E000121
:1014B0007B6F000E7C6F885158ECA5F0FF0E000189
:1014C0007B6F010E7C6F885158ECA5F00D0E00016A
:1014D0007B6F010E7C6F885158ECA5F0FF0E000168
:1014E0007B6F000E7C6F885158ECA5F0800E0001D8
:1014F0007B6F010E7C6F885158ECA5F0010E000146
:101500007B6FF80E7C6F885158ECA5F0FF0E000140
:101510007B6F010E7C6F885158ECA5F08E0E000198
:101520007B6F010E7C6F885158ECA5F0000E000116
:101530007B6F010E7C6F885158ECA5F0FF0E000107
:101540007B6F000E7C6F885158ECA5F0800E000177
:101550007B6F000E7C6F885158ECA5F0290E0001BE
:10156000876F960E866F7F0EE82EFED7862FFCD7EC
:10157000872FFAD7120000017551800B7E6F7551CD
:101580007525846F74BF84818451D8B40DD08429AB
:10159000D8A408D0000E726F000E736F000E746F27
:1015A000000E756F748F08D0000E726F000E736F8F
:1015B000000E746F000E756F7951800B7E1B795190
:1015C00079257F6F78BF7F817F51D8B40DD07F2977
:1015D000D8A408D0000E766F000E776F000E786FDB
:1015E000000E796F788F08D0000E766F000E776F3F
:1015F000000E786F000E796F7F51D8B403D08451FC
:10160000D8A409D0000E726F000E736F000E746FB5
:10161000000E756F120078517203F3CF89F0F4CF8A
:101620008AF08951806F816B826B836B8A51856FE1
:10163000866B876B886B77517303F3CF89F0F4CF98
:101640008AF089518027000E8123822383238A51C7
:101650008527000E86238723882376517403F3CFD2
:1016600089F0F4CF8AF089518027000E81238223EC
:1016700083238A518527000E86238723882382C0EF
:1016800083F081C082F080C081F0806B765173035B
:10169000F3CF89F0F4CF8AF0895180278A518123D2
:1016A000000E8223000E832377517203F3CF89F05B
:1016B000F4CF8AF0895180278A518123000E82233A
:1016C000000E832382C083F081C082F080C081F04D
:1016D000806B76517203F3CF89F0F4CF8AF0895191
:1016E00080278A518123000E8223000E83237851A4
:1016F0007303F3CF89F0F4CF8AF0895185278A519B
:101700008623000E8723000E882377517403F3CFBE
:1017100089F0F4CF8AF0895185278A518623000EFB
:101720008723000E882378517403F3CF89F0F4CF18
:101730008AF089517A6F8A517B6F7C6B7D6B7CC09C
:101740007DF07BC07CF07AC07BF07A6B7A51852784
:101750007B5186237C5187237D51882380C07AF07A
:1017600081C07BF082C07CF083C07DF0190E05D073
:10177000D8907D337C337B337A33E82EF9D77A5196
:1017800085277B5186237C5187237D51882382C006
:1017900083F081C082F080C081F0806B7F5184C073
:1017A0007AF07B6B7A27000E7B23820E7A25896F75
:1017B000FF0E7B218A6F0FD0D89085378637873709
:1017C000883783BF8581D8908037813782378337C8
:1017D0008907D8A08A0787AFEFD7000E7F6F83AF46
:1017E00016D0FF0E80157A6FFF0E81157B6FFF0EEE
:1017F00082157C6F7F0E83157D6F7A517B117C1172
:101800007D11D8A402D085A102D0010E7F6F7F5137
:10181000D8B41FD0010E8527000E86238723882386
:1018200088A117D085C07AF086C07BF087C07CF095
:1018300088C07DF07D357D337C337B337A337AC04D
:1018400085F07BC086F07CC087F07DC088F0894B36
:101850008A2B8ABF0DD08A5103E18929D8A008D0EC
:10186000000E856F000E866F800E876F7F0E20D072
:101870008ABF05D08A510EE18905D8B00BD0000E81
:10188000856F000E866F000E876F000E886F000E4A
:101890007E6F0FD089C084F0FF0E8517FF0E86176C
:1018A0007F0E8717000E881784B1878FD8908431F8
:1018B000886F7E51881385C072F086C073F087C030
:1018C00074F088C075F012001250800B1B6E12501D
:1018D0001224216E11BE21802150D8B40DD02128B0
:1018E000D8A408D0000E0F6E000E106E000E116E00
:1018F000000E126E118E08D0000E0F6E000E106ECC
:10190000000E116E000E126E1650800B1B1A165030
:101910001624206E15BE20802050D8B40DD020286B
:10192000D8A408D0000E136E000E146E000E156EB3
:10193000000E166E158E08D0000E136E000E146E7B
:10194000000E156E000E166E2050D8B403D0215034
:10195000D8A409D0000E0F6E000E106E000E116E8E
:10196000000E126E120015500F02F3CF26F0F4CFC6
:1019700027F026501C6E1D6A1E6A1F6A2750226EB1
:10198000236A246A256A14501002F3CF26F0F4CF9C
:1019900027F026501C26000E1D221E221F22275033
:1019A0002226000E23222422252213501102F3CFD7
:1019B00026F0F4CF27F026501C26000E1D221E22F2
:1019C0001F2227502226000E2322242225221EC059
:1019D0001FF01DC01EF01CC01DF01C6A1350100229
:1019E000F3CF26F0F4CF27F026501C2627501D22D7
:1019F000000E1E22000E1F2214500F02F3CF26F0FD
:101A0000F4CF27F026501C2627501D22000E1E2240
:101A1000000E1F221EC01FF01DC01EF01CC01DF0B6
:101A20001C6A13500F02F3CF26F0F4CF27F0265094
:101A30001C2627501D22000E1E22000E1F221550AC
:101A40001002F3CF26F0F4CF27F02650222627509D
:101A50002322000E2422000E252214501102F3CF5F
:101A600026F0F4CF27F02650222627502322000EFE
:101A70002422000E252215501102F3CF26F0F4CFB8
:101A800027F02650176E2750186E196A1A6A19C067
:101A90001AF018C019F017C018F0176A175022264C
:101AA00018502322195024221A5025221CC017F046
:101AB0001DC018F01EC019F01FC01AF0190E05D075
:101AC000D8901A32193218321732E82EF9D7175037
:101AD000222618502322195024221A5025221EC0D3
:101AE0001FF01DC01EF01CC01DF01C6A205021C03C
:101AF00017F0186A1726000E1822820E1724266E79
:101B0000FF0E1820276E0FD0D890223623362436A9
:101B100025361FBE2280D8901C361D361E361F3635
:101B20002606D8A0270624AEEFD7000E206E1FAEE3
:101B300016D0FF0E1C14176EFF0E1D14186EFF0E2C
:101B40001E14196E7F0E1F141A6E175018101910DC
:101B50001A10D8A402D022A002D0010E206E20506C
:101B6000D8B41FD0010E2226000E232224222522C3
:101B700025A017D022C017F023C018F024C019F0F8
:101B800025C01AF01A341A3219321832173217C017
:101B900022F018C023F019C024F01AC025F0264AFC
:101BA000272A27BE0DD0275003E12628D8A008D029
:101BB000000E226E000E236E800E246E7F0E20D04B
:101BC00027BE05D027500EE12604D8B00BD0000E5A
:101BD000226E000E236E000E246E000E256E000E87
:101BE0001B6E0FD026C021F0FF0E2216FF0E23160B
:101BF0007F0E2416000E251621B0248ED890213099
:101C0000256E1B50251222C00FF023C010F024C0F7
:101C100011F025C012F012002B50800B386E2B50A3
:101C20002B243A6E2ABE3A803A50D8B40DD03A28C6
:101C3000D8A408D0000E286E000E296E000E2A6E61
:101C4000000E2B6E2A8E06D0000E286E000E296E16
:101C5000000E2A6E000E2B6E2F50800B396E3850FE
:101C60003918D8A4388C2F502F24396E2EBE3980C5
:101C70003950D8B40DD03928D8A408D0000E2C6E15
:101C8000000E2D6E000E2E6E000E2F6E2E8E06D0C4
:101C9000000E2C6E000E2D6E000E2E6E000E2F6E9E
:101CA0003A50395CD8B022D038AC02D0800E381A05
:101CB0003AC03BF039C03AF03BC039F028C03BF0A5
:101CC0002CC028F03BC02CF029C03BF02DC029F0DF
:101CD0003BC02DF02AC03BF02EC02AF03BC02EF0B6
:101CE0002BC03BF02FC02BF03BC02FF0000E3B6E03
:101CF0003A50306E316A301E311E304A312A395026
:101D0000326E336A305032263150332233BE2CD0FB
:101D1000335004E11A0E325CD8A026D02850291086
:101D20002A102B10D8B402D0010E01D0000E3B6E49
:101D3000000E286E000E296E000E2A6E000E2B6E0D
:101D400039C03AF015D03BA005D0D8903B300109FE
:101D50003B6E02D0D8903B3228B03B8E2B342B32D6
:101D60002A32293228323A2A39503A5CD8A0EBD7A5
:101D700038BC29D03A50D8A409D0000E286E000EE5
:101D8000296E000E2A6E000E2B6E12002C50282693
:101D90002D5029222E502A222F502B222BA083D0C7
:101DA0003BA006D0D8903B323B5001093B6E02D09D
:101DB000D8903B3228B03B8E2B342B322A3229323A
:101DC00028323A2A70D02C50285C2D5029582E5099
:101DD0002A582B50800A306E2F50800A3058D8B0C5
:101DE00036D028C030F029C031F02AC032F02BC0E4
:101DF00033F0301E311E321E331E302A000E3122C7
:101E0000322233222C503024346E2D503120356E46
:101E10002E503220366E2F503320376EFF0E342472
:101E2000286EFF0E3520296EFF0E36202A6EFF0E1B
:101E300037202B6E800E381A3B6C3B50D8A40FD045
:101E4000010E2826000E29222A222B2208D02C50EF
:101E5000285E2D50295A2E502A5A2F502B5A28507E
:101E600029102A102B10D8A41CD03B50D8A419D06C
:101E7000000E286E000E296E000E2A6E000E2B6ECC
:101E80001200D890283629362A362B363BBE2880B9
:101E90003BA002D0D88001D0D8903B363A50D8A48D
:101EA0003A062AAEEED7000E396E3BAE0AD03BC0E2
:101EB00030F07F0E3016D8A402D028A002D0010E38
:101EC000396E3950D8B420D0010E2826000E2922B0
:101ED0002A222B222BA018D028C030F029C031F0A4
:101EE0002AC032F02BC033F0333433323232313245
:101EF000303230C028F031C029F032C02AF033C06F
:101F00002BF03A28D8A43A2A3A28D8B403D03A5029
:101F1000D8A40DD0000E286E000E296E000E2A6E79
:101F2000000E2B6E3A50D8A402D0000E386E3AA0A4
:101F300002D02A8E01D02A9ED8903A302B6E38BE1D
:101F40002B8E28C028F029C029F02AC02AF02BC0E7
:101F50002BF01200050E0001B96F280EB86F030EAA
:101F6000BB6FC00EBA6F020EBD6F940EBC6F020E37
:101F7000BF6F4E0EBE6F020EC16FB20EC06F020E6B
:101F8000C36F940EC26F020EC56F260EC46F200E73
:101F9000B06F4E0EB16F000EB26F000EB36F20EE39
:101FA00008F0A251D926A351DA22B051DE5CB1511A
:101FB000DE58B251DE58B351DE58D8A01200BA51E3
:101FC000B825A46FBB51B921A56FA4C0C8F0A5C0A6
:101FD000C9F0CA6BCB6BA2C089F0A3C08AF07BECBE
:101FE000A3F0A2C098F0A3C099F05AEC97F00001BA
:101FF00020EE0CF0A251D926A351DA22DF50D8B43A
:1020000022D020EE1BF0A251D926A351DA22DECF36
:10201000A4F0DECFA5F0DECFA6F0DECFA7F0BE5154
:10202000A425A86FBF51A521A96F000EA621AA6FF4
:10203000000EA721AB6FA851C827A951C923AA51E7
:10204000CA23AB51CB2320EE0EF0A251D926A351C7
:10205000DA22DF50D8B42BD020EE1BF0A251D926C3
:10206000A351DA22DECFA4F0DECFA5F0DECFA6F0BA
:10207000DECFA7F0C051A425A86FC151A521A96F3B
:10208000000EA621AA6F000EA721AB6FD890A8352D
:10209000AC6FA935AD6FAA35AE6FAB35AF6FAC5134
:1020A000C827AD51C923AE51CA23AF512AD020EE63
:1020B0000DF0A251D926A351DA22DF50D8B422D094
:1020C00020EE1BF0A251D926A351DA22DECFA4F0D4
:1020D000DECFA5F0DECFA6F0DECFA7F0BC51A42561
:1020E000A86FBD51A521A96F000EA621AA6F000EF1
:1020F000A721AB6FA851C827A951C923AA51CA2348
:10210000AB51CB2320EE0FF0A251D926A351DA22F6
:10211000DF50D8B422D020EE1FF0A251D926A3510F
:10212000DA22DECFA4F0DECFA5F0DECFA6F0DECF40
:10213000A7F0C251A425A86FC351A521A96F000E15
:10214000A621AA6F000EA721AB6FA851C827A951DD
:10215000C923AA51CA23AB51CB2320EE10F0A251C0
:10216000D926A351DA22DF50D8B41200C451C827AF
:10217000C551C923000ECA23000ECB2320EE08F060
:10218000A251D926A351DA22C851DE5CC951DE58CA
:10219000CA51DE58CB51DE58D8A0120020EE08F00C
:1021A000A251D926A351DA22DECFA4F0DECFA5F0CA
:1021B000DECFA6F0DECFA7F0C8C0A8F0C9C0A9F056
:1021C000CAC0AAF0CBC0ABF0A81FA91FAA1FAB1FA3
:1021D000A82B000EA923AA23AB23A451A825B46FD2
:1021E000A551A921B56FA651AA21B66FA751AB2160
:1021F000B76FB4C08BF0B5C08CF0B6C08DF0B7C06F
:102200008EF020EE13F0A251D926A351DA22DF502E
:102210008F6FC0EC9BF08BC0C6F08CC0C7F0000184
:1022200020EE0FF0A251D926A351DA22DF50D8B404
:102230000AD020EE17F0A251D926A351DA22DE509F
:10224000C627DD50C723710E956FC6C072F0C7C098
:1022500073F038ECA1F072C096F073C097F0A2C092
:10226000D9FFA3C0DAFFDF5024ECA5F01200DFC0D5
:1022700046F0E0C047F0461E471E464A472A010185
:10228000325146240001D76F01013351472000012C
:10229000D86F000E136E000E146EA80E156E410E50
:1022A000166ED7C001F0D8C002F0000E02BEFF0EBD
:1022B000036E046E010E4EEC98F001C00FF002C0E8
:1022C00010F003C011F004C012F064EC8CF00FC0E9
:1022D0002CF010C02DF011C02EF012C02FF0A0C1B4
:1022E00001F0A1C102F0000E02BEFF0E036E046EEB
:1022F000010E4EEC98F001C028F002C029F003C096
:102300002AF004C02BF00CEC8EF028C048F029C055
:1023100049F02AC04AF02BC04BF0000E136E000E9D
:10232000146E980E156EC10E166E2EC101F02FC1DF
:1023300002F0000E02BEFF0E036E046E010E4EECA4
:1023400098F001C00FF002C010F003C011F004C0FB
:1023500012F064EC8CF00FC02CF010C02DF011C006
:102360002EF012C02FF048C028F049C029F04AC012
:102370002AF04BC02BF00CEC8EF028C03CF029C0AA
:102380003DF02AC03EF02BC03FF00DEC9DF03CC06C
:102390004EF03DC04FF0D7C02EF1D8C02FF14FBE48
:1023A0000AD0210E4E5C030E4F58D8A004D0030E65
:1023B0004F6E200E05D04FAE04D0000E4F6E000EB3
:1023C0004E6E4EC0A0F14FC0A1F1DDC046F0DEC0A0
:1023D00047F0461E471E464A472A0101305146240F
:1023E0000001D56F0101315147200001D66F000E69
:1023F000136E000E146EA80E156E410E166ED5C02B
:1024000001F0D6C002F0000E02BEFF0E036E046E95
:10241000010E4EEC98F001C00FF002C010F003C0A6
:1024200011F004C012F064EC8CF00FC02CF010C05E
:102430002DF011C02EF012C02FF09EC101F09FC1EF
:1024400002F0000E02BEFF0E036E046E010E4EEC93
:1024500098F001C028F002C029F003C02AF004C09F
:102460002BF00CEC8EF028C048F029C049F02AC0AF
:102470004AF02BC04BF0000E136E000E146E980E37
:10248000156EC10E166E2CC101F02DC102F0000EAA
:1024900002BEFF0E036E046E010E4EEC98F001C0FA
:1024A0000FF002C010F003C011F004C012F064EC91
:1024B0008CF00FC02CF010C02DF011C02EF012C007
:1024C0002FF048C028F049C029F04AC02AF04BC07C
:1024D0002BF00CEC8EF028C03CF029C03DF02AC057
:1024E0003EF02BC03FF00DEC9DF03CC04CF03DC0E9
:1024F0004DF0D5C02CF1D6C02DF14DBE0AD0210E25
:102500004C5C030E4D58D8A004D0030E4D6E200E27
:1025100005D04DAE04D0000E4D6E000E4C6E4CC07A
:102520009EF14DC09FF14EC001F04FC002F07EEC15
:10253000A9F04CC001F04DC002F094ECA9F01200DB
:10254000020E01014E6FA00E4D6F920EE82EFED7C7
:102550004D2FFCD74E2FFAD700F0FDECABF0F9EC85
:10256000ABF0F5ECABF0000E01014F6F020E4F65C2
:1025700001D022D04F51010D9B0EF324D96E010ED4
:10258000F420DA6E4F51270D000EF324E16E020E97
:10259000F420E26EDFCFE7FF4F51270D020EF32646
:1025A000000EF422000EF324D96E020EF420DA6E2F
:1025B000010EDF6E4F2BDAD7F7ECABF0020E010104
:1025C0004E6FA00E4D6F920EE82EFED74D2FFCD70A
:1025D0004E2FFAD700F002014E511BECABF0020E69
:1025E00001014E6FA00E4D6F920EE82EFED74D2FBB
:1025F000FCD74E2FFAD700F04E0E01014B6F020EA2
:102600004C6FEEECA8F0020E01014E6FA00E4D6F64
:10261000920EE82EFED74D2FFCD74E2FFAD700F0A2
:102620004E0E0001726F020E736F000E756F320E48
:10263000746FF7ECAAF0A30E01014E6F570E4D6FA9
:10264000020EE82EFED74D2FFCD74E2FFAD700F002
:10265000FBECABF0020E01014E6FA00E4D6F920E1F
:10266000E82EFED74D2FFCD74E2FFAD700F00201EF
:1026700027511BECABF0020E01014E6FA00E4D6F07
:10268000920EE82EFED74D2FFCD74E2FFAD700F032
:10269000270E01014B6F020E4C6FEEECA8F0020EFC
:1026A00001014E6FA00E4D6F920EE82EFED74D2FFA
:1026B000FCD74E2FFAD700F0270E0001726F020EE2
:1026C000736F000E756F320E746FF7ECAAF0020E86
:1026D00001014E6FA00E4D6F920EE82EFED74D2FCA
:1026E000FCD74E2FFAD700F0FFECABF0020E010141
:1026F0004E6FA00E4D6F920EE82EFED74D2FFCD7D9
:102700004E2FFAD700F0000E01014B6F020E4C6FF6
:10271000EEECA8F0020E01014E6FA00E4D6F920E6E
:10272000E82EFED74D2FFCD74E2FFAD700F0000E23
:102730000001726F020E736F000E756F320E746FB0
:10274000F7ECAAF0020E01014E6FA00E4D6F920E33
:10275000E82EFED74D2FFCD74E2FFAD700F0000EF3
:1027600000019A6F020E9B6F000E9C6F000E9D6F12
:10277000000E9E6F000E9F6FEFECA4F0270E00017D
:102780009A6F020E9B6F000E9C6F000E9D6F000EE5
:102790009E6F000E9F6FEFECA4F04E0E00019A6F3B
:1027A000020E9B6F000E9C6F000E9D6F000E9E6FC1
:1027B000000E9F6FEFECA4F01200800E00017B6F03
:1027C000010E7C6F89C0D9FF8AC0DAFFDF5058EC58
:1027D000A5F0FF0E00017B6F010E7C6F89C0D9FF51
:1027E0008AC0DAFFDF5058ECA5F0000E00017B6FC5
:1027F000000E7C6F89C0D9FF8AC0DAFFDF5058EC29
:10280000A5F0FF0E00017B6F060E7C6F89C0D9FF1B
:102810008AC0DAFFDF5058ECA5F0830E00017B6F11
:1028200089C0D9FF8AC0DAFFDF50FDECA3F00001B8
:10283000906F830E7B6F905104097C6F89C0D9FF24
:102840008AC0DAFFDF5058ECA5F0FF0E00017B6F65
:10285000070E7C6F89C0D9FF8AC0DAFFDF5058ECC1
:10286000A5F0810E00017B6F010E7C6F89C0D9FF3E
:102870008AC0DAFFDF5058ECA5F0800E00017B6FB4
:10288000010E7C6F89C0D9FF8AC0DAFFDF5058EC97
:10289000A5F0940E00017B6F6B0E7C6F89C0D9FF91
:1028A0008AC0DAFFDF5058ECA5F0830E00017B6F81
:1028B000000E7C6F89C0D9FF8AC0DAFFDF5058EC68
:1028C000A5F0910E0001726F000E736F20EE03F001
:1028D0008951D9268A51DA22DECF74F0DDCF75F026
:1028E000FEECA9F00CD0910E0001726F000E736F18
:1028F000E8EC9DF00009D8B402D0000E1200830E5F
:1029000000017B6F89C0D9FF8AC0DAFFDF50FDEC80
:10291000A3F00009D8B4E7D7830E00017B6F010E46
:102920007C6F89C0D9FF8AC0DAFFDF5058ECA5F070
:10293000920E00017B6F89C0D9FF8AC0DAFFDF5099
:10294000FDECA3F000018F6F8F517F0B8BC0D9FF7F
:102950008CC0DAFFDF6E8F45010B8DC0D9FF8EC0B2
:10296000DAFFDF6E810E7B6F000E7C6F89C0D9FFAE
:102970008AC0DAFFDF5058ECA5F0FF0E00017B6F34
:10298000060E7C6F89C0D9FF8AC0DAFFDF5058EC91
:10299000A5F0830E00017B6F89C0D9FF8AC0DAFFE2
:1029A000DF50FDECA3F00001906F830E7B6F905120
:1029B000FB0B7C6F89C0D9FF8AC0DAFFDF5058EC6F
:1029C000A5F0FF0E00017B6F010E7C6F89C0D9FF5F
:1029D0008AC0DAFFDF5058ECA5F0000E00017B6FD3
:1029E000010E7C6F89C0D9FF8AC0DAFFDF5058EC36
:1029F000A5F0FF0E00017B6F000E7C6F89C0D9FF30
:102A00008AC0DAFFDF5058ECA5F0800E00017B6F22
:102A1000000E7C6F89C0D9FF8AC0DAFFDF5058EC06
:102A2000A5F0010E12000E01CD9196AE01D1969E39
:102A3000000E596E20EE03F05050D9265150DA2284
:102A4000DECF04F0DDCF05F004C0D9FF05C0DAFF0A
:102A5000010EDF6E000E506E000E516E120000016E
:102A6000D2B31200D0C050F0D1C051F0D0C0D9FFC5
:102A7000D1C0DAFFDF50586E20EE01F0D051D926D8
:102A8000D151DA22DECF52F0DDCF53F0050ED02740
:102A9000000ED123430ED01908E1010ED119D8A49C
:102AA00004D03E0ED06F010ED16FD291CE51D0190D
:102AB00004E1CF51D119D8B4D2839780020E596E58
:102AC00012009782020E596E120097AC06D00001D8
:102AD000D42B040EF1ECA7F01200D8905B30056EF9
:102AE0005A30046E0450926E5AA003D00B0E596EE9
:102AF0001200030E596E120097AC06D00001D42BC1
:102B0000040EF1ECA7F0120097825AC004F05BC0EB
:102B100005F005C004F0056A060E0416000E051641
:102B2000F00E04105A6E05505B6E5A80010E566E00
:102B3000020E596E12005604D8B41AD052C0D9FFF2
:102B400053C0DAFFDECF5AF0DDCF5BF020EE03F0AA
:102B50005250D9265350DA22DECFD9F0DDCFDAF049
:102B600020EE02F05250D9265350DA22DF50576E31
:102B70005AC092FF5AA003D0050E596E1200030EE0
:102B8000596E120097AC07D00001D42B979C050E0C
:102B9000F1ECA7F0120057065728D8A40ED0050E66
:102BA0005226000E5322582E04D0000EF1ECA7F04E
:102BB00012009782020E596E1200D9C0D9FFDAC0F6
:102BC000DAFFDF50926E0001D94BDA2B120097AC7E
:102BD00007D00001D42B040EF1ECA7F0979C120053
:102BE0009786080E596E1200080E596E97861200CD
:102BF000D9C0D9FFDAC0DAFF92CFDFFF0001D94B8D
:102C0000DA2B010E575ED8B404D0979A060E596E8F
:102C100003D0978A0FECABF097881200000EF1EC0E
:102C2000A7F012000001D42B060EF1ECA7F0120061
:102C30005950000AD8B413D7010AD8B442D7030AAE
:102C4000D8B479D7010AD8B49DD7070AD8B4E6D743
:102C5000010AD8B4BCD7030AD8B4C6D7010AD8B47D
:102C6000DDD70F0AD8B4C4D7020AD8B42ED7010AC8
:102C7000D8B442D7D7D7070E0001AE6F760EAD6F2E
:102C8000030EB06FC00EAF6F020EB26F940EB16F35
:102C9000020EB46F4E0EB36F020EB66FB20EB56F6A
:102CA000020EB86F940EB76F020EBA6F260EB96F90
:102CB000AF51AD25A16FB051AE21A26FA1C0BBF045
:102CC000A2C0BCF0BD6BBE6B9DC089F09EC08AF0F7
:102CD0007BECA3F09DC098F09EC099F05AEC97F061
:102CE000000120EE0CF09D51D9269E51DA22DF50D2
:102CF000D8B422D020EE1BF09D51D9269E51DA2265
:102D0000DECFA1F0DECFA2F0DECFA3F0DECFA4F0C5
:102D1000B351A125A56FB451A221A66F000EA32126
:102D2000A76F000EA421A86FA551BB27A651BC23F5
:102D3000A751BD23A851BE2320EE0EF09D51D926E8
:102D40009E51DA22DF50D8B42BD020EE1BF09D51DB
:102D5000D9269E51DA22DECFA1F0DECFA2F0DECF5F
:102D6000A3F0DECFA4F0B551A125A56FB651A221E5
:102D7000A66F000EA321A76F000EA421A86FD89004
:102D8000A535A96FA635AA6FA735AB6FA835AC6F6F
:102D9000A951BB27AA51BC23AB51BD23AC512AD0AA
:102DA00020EE0DF09D51D9269E51DA22DF50D8B485
:102DB00022D020EE1BF09D51D9269E51DA22DECF83
:102DC000A1F0DECFA2F0DECFA3F0DECFA4F0B151B0
:102DD000A125A56FB251A221A66F000EA321A76F56
:102DE000000EA421A86FA551BB27A651BC23A75153
:102DF000BD23A851BE2320EE0FF09D51D9269E5130
:102E0000DA22DF50D8B422D020EE1FF09D51D9260F
:102E10009E51DA22DECFA1F0DECFA2F0DECFA3F00A
:102E2000DECFA4F0B751A125A56FB851A221A66F9E
:102E3000000EA321A76F000EA421A86FA551BB27E8
:102E4000A651BC23A751BD23A851BE2320EE10F0EC
:102E50009D51D9269E51DA22DF50D8B422D020EEDF
:102E600023F09D51D9269E51DA22DECFA1F0DECF8C
:102E7000A2F0DECFA3F0DECFA4F0B951A125A56F5B
:102E8000BA51A221A66F000EA321A76F000EA421A4
:102E9000A86FA551BB27A651BC23A751BD23A8519C
:102EA000BE23BBC09DF0BCC09EF0BDC09FF0BEC0A5
:102EB000A0F0120098C0D9FF99C0DAFFDF500001DE
:102EC0009C6F000E896F9C518EECA7F000019A6FE9
:102ED0009B6B20EE11F09851D9269951DA229AC0B5
:102EE000DEFF9BC0DDFF460E7B6F9C51FDECA3F027
:102EF00000019A6F9B6B010E9A27000E9B2320EE18
:102F000015F09851D9269951DA229AC0DEFF9BC05C
:102F1000DDFF20EE15F09851D9269951DA22DECF47
:102F20008BF0DDCF8CF020EE11F09851D92699511D
:102F3000DA22DF508D6F7BEC9DF0000120EE1BF05C
:102F40009851D9269951DA228BC0DEFF8CC0DEFF62
:102F50008DC0DEFF8EC0DEFF510E7B6F9C513CECBE
:102F6000A0F07BC092F07CC093F010ECA8F00001C0
:102F700020EE17F09851D9269951DA2292C0DEFF3F
:102F800093C0DDFF20EE17F09851D9269951DA222F
:102F9000DECF8BF0DDCF8CF020EE11F09851D926EA
:102FA0009951DA22DF508D6F7BEC9DF0000120EE0D
:102FB0001FF09851D9269951DA228BC0DEFF8CC0C0
:102FC000DEFF8DC0DEFF8EC0DEFF010E896F9C51DB
:102FD0008EECA7F000019A6F9B6B20EE13F09851D6
:102FE000D9269951DA229AC0DEFF9BC0DDFF710E0F
:102FF0007B6F9C513CECA0F07BC092F07CC093F0C6
:1030000010ECA8F0000120EE19F09851D926995142
:10301000DA2292C0DEFF93C0DDFF20EE0FF0985160
:10302000D9269951DA22DF50D8B414D020EE17F007
:103030009851D9269951DA22DECF9AF0DDCF9BF054
:1030400020EE19F09851D9269951DA229A51DE5E74
:103050009B51DD5A20EE19F09851D9269951DA2268
:10306000DECF8BF0DDCF8CF020EE13F09851D92617
:103070009951DA22DF508D6F7BEC9DF0000120EE3C
:1030800023F09851D9269951DA228BC0DEFF8CC0EB
:10309000DEFF8DC0DEFF8EC0DEFF1200096E09501C
:1030A000D8A404AE1AD001C005F002C006F003C0D7
:1030B00007F004C008F0051E061E071E081E052A9C
:1030C000000E06220722082205C00BF006C00CF0F5
:1030D00007C00DF008C00EF008D001C00BF002C010
:1030E0000CF003C00DF004C00EF0015002100310EC
:1030F0000410D8A409D0000E016E000E026E000E5E
:10310000036E000E046E1200960E0A6E06D00A2A96
:10311000D8900E320D320C320B32000E0B14056EAD
:10312000000E0C14066E000E0D14076EFE0E0E142B
:10313000086E0550061007100810D8B40DD0E7D758
:103140000A2A010E0B26000E0C220D220E22D89008
:103150000E320D320C320B32000E0B14056E000EC7
:103160000C14066E000E0D14076EFF0E0E14086E82
:103170000550061007100810D8B407D0E1D70A068A
:10318000D8900B360C360D360E360DBE03D0020E1F
:103190000A60F5D70AB008D0FF0E0B16FF0E0C160A
:1031A0007F0E0D16FF0E0E16D8900A320AC005F0DB
:1031B000066A076A086A05C008F0076A066A056AAF
:1031C00005500B1206500C1207500D1208500E122B
:1031D0000950D8A404AE01D00E8E0BC001F00CC073
:1031E00002F00DC003F00EC004F0120000019C6F4D
:1031F000FF0E00017B6F010E7C6F9C5158ECA5F017
:103200004F0E00017B6F000E7C6F9C5158ECA5F0B7
:103210004E0E00017B6F2C0E7C6F9C5158ECA5F07C
:10322000FF0E00017B6F000E7C6F9C5158ECA5F0E7
:10323000B60E00017B6FB40E7C6F9C5158ECA5F06C
:1032400091C0D9FF92C0DAFFDF50D8A405D0000E9C
:1032500000019A6F000E04D0000E00019A6F0C0E50
:10326000996F99C098F0000E9B6F000E9D6F2F0E06
:103270009D6501D050D098519D5DD8A008D08FC0D9
:10328000D9FF90C0DAFF9B51DE18D8A423D09DC08F
:1032900095F0070E9517010E966F952B02D0D890DA
:1032A0009637952FFCD700019651FF0A976F9DC066
:1032B00072F0736B000E756F080E746FF6ECA2F06F
:1032C000000172519325D96E73519421DA6E975192
:1032D000DF161FD09DC095F0070E95179DC072F0A8
:1032E000736B000E756F080E746FF6ECA2F00001A0
:1032F00072519325D96E73519421DA6EDF50966F17
:10330000952B02D0D8909633952FFCD7000196B11B
:103310009B2B9D2BACD7B00E7B6F93C07CF094C0E1
:103320007DF0060E7E6F9C51D4ECA1F01200890E48
:1033300000017B6F010E7C6FA7C0D9FFA8C0DAFF28
:10334000DF5058ECA5F0800E00017B6F010E7C6F02
:10335000A7C0D9FFA8C0DAFFDF5058ECA5F0FF0ED8
:1033600000017B6F010E7C6FA7C0D9FFA8C0DAFFF8
:10337000DF5058ECA5F0000E00017B6F000E7C6F53
:10338000A7C0D9FFA8C0DAFFDF5058ECA5F0910E16
:1033900000017B6FA7C0D9FFA8C0DAFFDF50FDECAA
:1033A000A3F00001A96F20EE01F0A751D926A85182
:1033B000DA22A9C0DFFF000E7B6F010E7C6FA7C071
:1033C000D9FFA8C0DAFFDF5058ECA5F0FF0E0001CE
:1033D0007B6F000E7C6FA7C0D9FFA8C0DAFFDF505B
:1033E00058ECA5F0800E00017B6F000E7C6FA7C02B
:1033F000D9FFA8C0DAFFDF5058ECA5F0600E00013D
:103400007B6FA7C0D9FFA8C0DAFFDF50FDECA3F0A7
:103410000001AA6F600E7B6FAA5112097C6FA7C0D2
:10342000D9FFA8C0DAFFDF5058ECA5F0000E00016C
:10343000A26F000EA36F800EA46F3E0EA56FA7C0F3
:10344000D9FFA8C0DAFFDF50BCECA3F0010E0001E9
:103450007B6FFF0E7C6FA7C0D9FFA8C0DAFFDF50DB
:1034600058ECA5F01200000E000172157A6F000EE4
:1034700073157B6F800E74157C6F7F0E75157D6FD5
:103480007A517B117C117D11D8A408D0000E726F87
:10349000000E736F000E746F000E756F000E7615C0
:1034A0007A6F000E77157B6F800E78157C6F7F0E1C
:1034B00079157D6F7A517B117C117D11D8A408D0CC
:1034C000000E766F000E776F000E786F000E796F2A
:1034D00075AF1DD072C07AF073C07BF074C07CF001
:1034E00075C07DF07A1F7B1F7C1F7D1F7A2B000E1D
:1034F0007B237C237D23000E7A25726F000E7B21B7
:10350000736F000E7C21746F800E7D21756F79AF13
:103510001DD076C07AF077C07BF078C07CF079C09F
:103520007DF07A1F7B1F7C1F7D1F7A2B000E7B2373
:103530007C237D23000E7A25766F000E7B21776F2A
:10354000000E7C21786F800E7D21796F000E721B3A
:10355000000E731B000E741B800E751B000E761B75
:10356000000E771B000E781B800E791B7651725D62
:10357000775173597851745979517559D8B002D02F
:10358000D8901200D8801200000E876E000E866E52
:10359000000E836E000E846E000E856E020E8C6E21
:1035A000E00E886EC70E896E990E8A6EE30E8B6EE2
:1035B0001C0E0F01266F660E216FF80E196F050E97
:1035C0002E6F1F0E116F060E256F000E2D6F000E51
:1035D000186FC00E106F000E206F000E2C6F000EC3
:1035E0000F6F000E176F000E1F6F000E246F0E6915
:1035F00016691E692369070E2B6F0D6915691D6910
:1036000022690F0E2A6F0A9B0A9D0A9F0B8B0B8D56
:103610000B8F0C9B0C9F1A911B811C911C0E00019F
:10362000726F4D0E736F010E746FA8ECABF0CE0E7F
:103630000001726F500E736F010E746FA1ECABF04E
:10364000160E0001726F580E736F010E746F9AECB4
:10365000ABF0CC0E0001726F4C0E736F010E746FE5
:1036600093ECABF00E01C289130EB76F170EB56F56
:103670000F0EFA6F060EF86F100EFB6F050EF96F46
:10368000090EFD6F140EB86F120083908392040E22
:1036900000017B6F400E7A6F260EE82EFED77A2F40
:1036A000FCD77B2FFAD700F0030E68ECA2F0680E6F
:1036B00000017A6FE40EE82EFED77A2FFCD700F0D7
:1036C000030E68ECA2F0680E00017A6FE40EE82E9B
:1036D000FED77A2FFCD700F0030E68ECA2F0680E3C
:1036E00000017A6FE40EE82EFED77A2FFCD700F0A7
:1036F000020E68ECA2F0680E00017A6FE40EE82E6C
:10370000FED77A2FFCD700F0000E0001776F280E4D
:103710009FECA8F0680E00017A6FE40EE82EFED749
:103720007A2FFCD700F0000E0001776F0C0E9FEC93
:10373000A8F0A70E00017A6F3A0EE82EFED77A2F76
:10374000FCD700F072ECAAF0680E00017A6FE40E6C
:10375000E82EFED77A2FFCD700F0000E0001776F1D
:10376000060E9FECA8F0680E00017A6FE40EE82EBA
:10377000FED77A2FFCD700F072ECAAF083801200FB
:1037800000018F51726F736B746B756B000E766FE7
:103790002F0E776F3A0E786F000E796FE7ECA5F079
:1037A000F40E000172257E6F010E73217F6F000EF3
:1037B0007421806F000E7521816FE80E826F030EF9
:1037C000836F000E846F000E856F39ECA3F07EC00E
:1037D00094F07FC095F080C096F081C097F094C0BF
:1037E00090F095C091F096C092F097C093F00001D0
:1037F000D89093339233913390338BC072F08CC056
:1038000073F08DC074F08EC075F0E80E766F030E05
:10381000776F000E786F000E796FE7ECA5F000016E
:10382000905172257E6F915173217F6F9251742157
:10383000806F93517521816F94C082F095C083F0A1
:1038400096C084F097C085F039ECA3F07EC08BF071
:103850007FC08CF080C08DF081C08EF0120000011E
:103860008D358E35946F9451D8A409D0000E8B6F8E
:10387000000E8C6F000E8D6F000E8E6F12008BC0CD
:103880008FF08CC090F08DC091F08EC092F0200E21
:1038900005D0D8909233913390338F33E82EF9D7F7
:1038A0008F51936F8D8FFF0E8B17FF0E8C17FF0EAE
:1038B0008D17000E8E17960E945F94AF16D094510C
:1038C000800A970FD8B009D0000E8B6F000E8C6F56
:1038D000000E8D6F000E8E6F1200D8908E338D33D8
:1038E0008C338B33943FF9D715D01F0E94650FD0CE
:1038F000000E8B6F000E8C6F000E8D6F000E8E6FA2
:103900001200D8908B378C378D378E3794079451AF
:10391000D8A4F7D79351D8B408D08E1F8D1F8C1F11
:103920008B6D000E8C238D238E238BC08BF08CC06F
:103930008CF08DC08DF08EC08EF01200000E000154
:10394000776F040E9FECA8F0910E0001A05D010EB0
:10395000A159D8A007D0F70E796FFF0E7A6F4AEC05
:10396000A8F054D00001A051A111D8A407D0F30EA3
:10397000796FFF0E7A6F4AECA8F048D0010E000173
:10398000776FA0C072F0A1C073F0000E756F0A0EC1
:10399000746F6CECA7F000017251300F9FECA8F02F
:1039A000010E0001A26FA15104E10A0EA05DD8A092
:1039B0002AD0A0C072F0A1C073F0000E756F0A0E7D
:1039C000746F13ECA6F072C0A0F073C0A1F0010EEA
:1039D0000001776FA0C072F0A1C073F0000E756F88
:1039E0000A0E746F6CECA7F000017251300F9FEC5F
:1039F000A8F00001A22BD7D7010E776F300E9FECF5
:103A0000A8F00001A22B020EA265F6D7000E00015D
:103A1000776F060E9FECA8F012003E343F34456EDF
:103A20004550D8A409D0000E3C6E000E3D6E000E2D
:103A30003E6E000E3F6E12003CC040F03DC041F0B3
:103A40003EC042F03FC043F0200E05D0D890433234
:103A5000423241324032E82EF9D74050446E3E8E19
:103A6000FF0E3C16FF0E3D16FF0E3E16000E3F16D3
:103A7000960E455E45AE16D04550800A970FD8B0D9
:103A800009D0000E3C6E000E3D6E000E3E6E000E24
:103A90003F6E1200D8903F323E323D323C32453EBE
:103AA000F9D715D01F0E45640FD0000E3C6E000EE6
:103AB0003D6E000E3E6E000E3F6E1200D8903C36FA
:103AC0003D363E363F3645064550D8A4F7D74450DC
:103AD000D8B408D03F1E3E1E3D1E3C6C000E3D2259
:103AE0003E223F223CC03CF03DC03DF03EC03EF097
:103AF0003FC03FF0120000018D51726F736B746B09
:103B0000756B000E766F2F0E776F3A0E786F000E82
:103B1000796FE7ECA5F0F40E000172257E6F010EBF
:103B200073217F6F000E7421806F000E7521816FED
:103B3000E80E826F030E836F000E846F000E856F98
:103B400039ECA3F07EC093F07FC094F080C095F074
:103B500081C096F093C08FF094C090F095C091F022
:103B600096C092F00001D8909233913390338F3306
:103B70008BC072F08CC073F0746B756B93C076F071
:103B800094C077F095C078F096C079F0E7ECA5F096
:103B900000018F5172257E6F905173217F6F91517B
:103BA0007421806F92517521816FE80E826F030E30
:103BB000836F000E846F000E856F39ECA3F07EC01A
:103BC0008BF07FC08CF080C08DF081C08EF0120031
:103BD000000120EE02F07251D9267351DA22DE5034
:103BE000DE10D8A402D0000E120072C0D9FF73C03C
:103BF000DAFFDE50E15DDE50E259D8B036D072C057
:103C0000D9FF73C0DAFFDECF74F0DDCF75F0741F1B
:103C1000751F744B752BFF0E7425786FFF0E752181
:103C2000796F72C0D9FF73C0DAFFDECF74F0DDCFD9
:103C300075F0741F751F744B752BE1517427E25199
:103C40007523785174277951752320EE02F0725153
:103C5000D9267351DA227451DE5C7551DE58D8B022
:103C600002D0010E1200000E120072C0D9FF73C004
:103C7000DAFFDECF74F0DDCF75F0741F751F744B63
:103C8000752BE1517427E251752320EE02F0725139
:103C9000D9267351DA227451DE5C7551DE58D8B0E2
:103CA00002D0010E1200000E1200CCC089F0CDC06F
:103CB0008AF0490E00018B6F010E8C6F4A0E8D6FDA
:103CC000010E8E6FDDEC93F00009D8B41200B00E37
:103CD00000017B6F430E7C6F010E7D6F060E7E6FC1
:103CE000CCC0D9FFCDC0DAFFDF501EECA2F0490EE8
:103CF00000018F6F010E906F4A0E916F010E926F4F
:103D0000430E936F010E946FCCC0D9FFCDC0DAFF84
:103D1000DF50F6EC98F0CCC0D9FFCDC0DAFFDF5011
:103D20002CEC88F0CCC0D9FFCDC0DAFFDF5026ECF8
:103D3000A7F0CCC09DF0CDC09EF03BEC96F000010A
:103D400020EE08F0CC51D926CD51DA229DC0DEFFFD
:103D50009EC0DEFF9FC0DEFFA0C0DEFF010E7B6FB6
:103D6000E80E7C6FCCC0D9FFCDC0DAFFDF5058EC35
:103D7000A5F0CCC0A2F0CDC0A3F0AAEC8FF0120049
:103D8000000E126E10AE0AD0101E0F1E0E1E0D6C0D
:103D9000000E0E220F221022010E126E0CAE0AD05F
:103DA0000C1E0B1E0A1E096C000E0A220B220C228E
:103DB000010E121A000E136E000E146E000E156E18
:103DC000000E166E0D500E100F101010D8B42AD021
:103DD000010E116E06D0D8900D360E360F36103605
:103DE000112A10AEF8D7D890133614361536163679
:103DF0000D50095C0E500A580F500B5810500C58BB
:103E0000D8A009D00D50095E0E500A5A0F500B5A17
:103E100010500C5A1380D89010320F320E320D32DF
:103E2000112EE1D71250D8B408D0161E151E141E3C
:103E3000136C000E14221522162213C009F014C0B0
:103E40000AF015C00BF016C00CF01200000E0001B5
:103E5000776F040E9FECA8F0010E0001776F79C018
:103E600072F07AC073F0000E756F0A0E746F6CEC0E
:103E7000A7F000017251300F9FECA8F0010E000175
:103E80007C6F2CD07B517C19D8A405D0010E776FA4
:103E90002E0E9FECA8F079C072F07AC073F0000E7D
:103EA0000001756F0A0E746F13ECA6F072C079F002
:103EB00073C07AF0010E0001776F79C072F07AC09A
:103EC00073F0000E756F0A0E746F6CECA7F00001B2
:103ED0007251300F9FECA8F000017C2B7C517B5D70
:103EE000D8B0D0D77A51CEE10A0E795DD8A008D0EB
:103EF000C9D7010E776F300E9FECA8F000017C2B24
:103F0000040E7C65F6D7000E776F060E9FECA8F0C6
:103F10001200800E00017B6F010E7C6F86C0D9FFFE
:103F200087C0DAFFDF5058ECA5F0FF0E00017B6F71
:103F3000010E7C6F86C0D9FF87C0DAFFDF5058ECD6
:103F4000A5F0000E00017B6F000E7C6F86C0D9FFCC
:103F500087C0DAFFDF5058ECA5F0910E00017B6FAF
:103F600020EE01F08651D9268751DA22DF507C6F8E
:103F700086C0D9FF87C0DAFFDF5058ECA5F0000EED
:103F800000017B6F010E7C6F86C0D9FF87C0DAFF0E
:103F9000DF5058ECA5F0FF0E00017B6F000E7C6F28
:103FA00086C0D9FF87C0DAFFDF5058ECA5F0800E3D
:103FB00000017B6F000E7C6F86C0D9FF87C0DAFFDF
:103FC000DF5058ECA5F012000001E451010D000E85
:103FD000F324D96E010EF420DA6E000EDF6E9DA47C
:103FE00016D0E451010D000EF324D96E010EF42019
:103FF000DA6E0101DF8201D80AD00500FA6E835122
:10400000FD6E8451FE6E8551FF6EFA5012009DA226
:1040100017D00001E451010D000EF324D96E010EFA
:10402000F420DA6E0101DF8401D80AD00500FA6EAF
:104030008051FD6E8151FE6E8251FF6EFA5012006A
:104040000001E451010D000EF324D96E010EF4209D
:10405000DA6EDF50D8B40DD001D812000500FA6E28
:1040600001017D51FD6E7E51FE6E7F51FF6EFA5053
:1040700012004DECAAF0120000018E6F020E00013A
:10408000916F7F0E726F000E736F7B0E746F000E58
:10409000756F010E766F8EC077F0786B49ECA7F0E4
:1040A000840E0001726F000E736F900E746F000E1D
:1040B000756F010E766F8EC077F0786B3DECA6F0D1
:1040C000890E0001726F000E736F8F0E746F000EF9
:1040D000756F010E766F8EC077F0786B3DECA6F0B1
:1040E00014D07F0E0001726F000E736F910E746F0B
:1040F000000E756F030EE7ECA0F0020E000191199F
:10410000D8B4FBD79151D8B404D000019105D8A4FC
:10411000E8D790517E6F7D6B8F517D137DC07BF012
:104120007EC07CF01200000E00017B6F8B510109F4
:104130007C6F89C0D9FF8AC0DAFFDF5058ECA5F048
:104140008D0E0001726F000E736F20EE03F0895127
:10415000D9268A51DA22DECF74F0DDCF75F0FEEC7D
:10416000A9F00CD08D0E0001726F000E736FE8EC99
:104170009DF00009D8B402D0000E1200130E000109
:104180007B6F89C0D9FF8AC0DAFFDF50FDECA3F056
:1041900000018C6F070E8C17D8B4E4D70B0E7B6F21
:1041A000010E7C6F89C0D9FF8AC0DAFFDF5058EC5E
:1041B000A5F0000E00017B6F000E7C6F89C0D9FF57
:1041C0008AC0DAFFDF5058ECA5F0010E12000001A2
:1041D000776F0001D2B139D074C0D9FF75C0DAFF52
:1041E000020EDF6E20EE01F0CE51D926CF51DA2239
:1041F00072C0DEFF73C0DDFFCEC0D9FFCFC0DAFFD3
:1042000077C0DFFF20EE03F0CE51D926CF51DA225E
:1042100074C0DEFF75C0DDFF050ECE27000ECF2374
:10422000430ECE1908E1010ECF19D8A404D03E0EDA
:10423000CE6F010ECF6FD293CE51D0190CE1CF517A
:10424000D119D8A408D0D28106D074C0D9FF75C0C6
:10425000DAFF010EDF6E74C0D9FF75C0DAFF020EFF
:10426000DE18D8A41200E8ECABF00E01CD811200EC
:10427000000E00017A6F000E7B6F000E7C6F000E47
:104280007D6F000E796F000E786F72517311D8B484
:1042900039D0FF0E746FFF0E756F72C076F073C069
:1042A00077F0745176277551772376C07AF077C00E
:1042B0007BF07C6B7D6B07D0D8907D337C337B3378
:1042C0007A33784B792B000E7A15746FFF0E7B15BD
:1042D000756FFF0E7C15766FFF0E7D15776F74512D
:1042E000751176117711D8A4E7D77A5178C074F098
:1042F00079C075F074C075F0746B7411726F75517C
:10430000736F1200000E736F000E726F12000E01B9
:10431000C59BC80E0001726F3F0E736F010E746F64
:10432000B6ECABF00E01C599720E0001726F520E21
:10433000736F010E746FAFECABF0080E9F6E900EB2
:104340009D6E240E9E6E8A0E9B6E000E9C6E180E45
:104350000001726F580E736F010E746FC4ECABF0F6
:10436000DE0E0001726F570E736F010E746FBDEC9D
:10437000ABF0E40E0001726F570E736F010E746F95
:10438000CBECABF0000E0001E36F000EE66F000E09
:10439000E56F080EED6F000EE46F000E556E000E17
:1043A000546E0E01C58B12000001836F020E0001D6
:1043B0008E6F7BC081F0840E726F000E736F810E62
:1043C000746F000E756F020E766F83C077F0786B96
:1043D00049ECA7F0890E0001726F000E736F7CC06C
:1043E00074F07DC075F07EC076F083C077F0786B96
:1043F00049ECA7F0000E0001806F000E7F6F1AD00D
:10440000840E726F000E736F8E0E746F000E756FD8
:10441000020EE7ECA0F0020E00018E19D8B4FBD713
:104420008E51D8B41200640E7F198011D8B41200D6
:104430007F4B802B8E05D8B41200E2D70001836F2A
:10444000020E00018E6F7BC081F0840E726F000E31
:10445000736F810E746F000E756F020E766F83C0DE
:1044600077F0786B49ECA7F0890E0001726F000EAF
:10447000736F7CC074F07DC075F07EC076F083C031
:1044800077F0786B3DECA6F0000E0001806F000E17
:104490007F6F1AD0840E726F000E736F8E0E746F62
:1044A000000E756F020EE7ECA0F0020E00018E19EF
:1044B000D8B4FBD78E51D8B41200640E7F19801186
:1044C000D8B412007F4B802B8E05D8B41200E2D7EF
:1044D0000001736F000173A103D0726B722B02D0C5
:1044E0000001726B7247724783507219FB0B72198D
:1044F000836E73A303D0726B722B02D00001726BB8
:1045000072477247724783507219F70B7219836EA4
:1045100073A503D0726B722B02D00001726B723BD9
:1045200083507219EF0B7219836E73A703D0726BED
:10453000722B02D00001726B87507219FE0B721938
:10454000876E8382E40E00D000D0E82EFCD700D026
:1045500000D08392E40E00D000D0E82EFCD700D02B
:1045600000D01200130E00017B6F92C0D9FF93C0E0
:10457000DAFFDF50FDECA3F00001946F070E9417F3
:10458000D8A415D0970E726F000E736FE8EC9DF0F3
:104590000009D8B40CD0000120EE05F09251D926C4
:1045A0009351DA22010EDF6E9269936912001E0E9A
:1045B00000017B6F92C0D9FF93C0DAFFDF503CEC63
:1045C000A0F07BC095F07CC096F00B0E00017B6FD5
:1045D000010E7C6F92C0D9FF93C0DAFFDF5058EC18
:1045E000A5F095C092F096C093F01200000E000165
:1045F000776F75AF06D0746D751FD8B0752B010E2F
:10460000776F73AF06D0726D731FD8B0732B010E26
:10461000771B000E796F000E786F74517511D8B446
:104620001CD0010E766F04D0D89074377537762B76
:1046300075AFFAD7D890783779377451725D755164
:104640007359D8A005D07451725F7551735B78812E
:10465000D89075337433762FEDD77751D8B404D012
:10466000786D791FD8B0792B78C072F079C073F06B
:104670001200000E0001866F000E876F000E886F1B
:10468000000E896F8251831184118511D8B42AD00C
:10469000010E8A6F06D0D8908237833784378537EA
:1046A0008A2B85AFF8D7D8908637873788378937F0
:1046B00082517E5D83517F59845180598551815942
:1046C000D8A009D082517E5F83517F5B8451805B8B
:1046D0008551815B8681D8908533843383338233DF
:1046E0008A2FE1D786C07EF087C07FF088C080F037
:1046F00089C081F01200010E00017B6F89C0D9FFD3
:104700008AC0DAFFDF50FDECA3F000018B6F20EED2
:104710000CF08951D9268A51DA228B390F0B010B03
:10472000DF6E20EE0EF08951D9268A51DA228B39BC
:10473000E8461F0B010BDF6E20EE0DF08951D926E4
:104740008A51DA228B41E8423F0B010BDF6E20EEEB
:104750000FF08951D9268A51DA228B45E846030B9E
:10476000010BDF6E20EE10F08951D9268A51DA2232
:104770008B45010BDF6E12000001A66F0001A5BF83
:104780001200B80E726FFE0E736FFF0E746F430E41
:10479000756FA2C076F0A3C077F0A4C078F0A5C072
:1047A00079F033EC9AF00001D8A01200440E956F16
:1047B000000E766F000E776F000E786F430E796FE4
:1047C000A2C072F0A3C073F0A4C074F0A5C075F0CD
:1047D000BBEC8AF072C08BF073C08CF074C08DF0AB
:1047E00075C08EF02FEC9CF08BC096F08CC097F0CB
:1047F0000001A65124ECA5F0120000017C6F020E0E
:104800000001886F7D0E726F000E736F7B0E746FE8
:10481000000E756F010E766F7CC077F0786B49ECF7
:10482000A7F0820E0001726F000E736F870E746F17
:10483000000E756F010E766F7CC077F0786B3DECE3
:10484000A6F014D07D0E0001726F000E736F880EFB
:10485000746F000E756F020EE7ECA0F0020E0001FF
:104860008819D8B4FBD78851D8B404D00001880582
:10487000D8A4E8D787511200F80E00017B6F92C0D0
:10488000D9FF93C0DAFFDF503CECA0F07BC098F07A
:104890007CC099F0000198519911D8B418D094C0F7
:1048A00072F095C073F096C074F097C075F098C020
:1048B00076F099C077F0786B796BE7ECA5F072C071
:1048C00094F073C095F074C096F075C097F0040E24
:1048D00000017B6F94C07CF095C07DF096C07EF0A7
:1048E00097C07FF092C0D9FF93C0DAFFDF50B7ECDA
:1048F000A4F01200010E00017B6F010E7C6F91C0CD
:10490000D9FF92C0DAFFDF5058ECA5F091C089F0D2
:1049100092C08AF0400E00018B6F93ECA0F000096A
:10492000D8B41200010E00017B6F020E7C6F91C0A3
:10493000D9FF92C0DAFFDF5058ECA5F091C089F0A2
:1049400092C08AF0000E00018B6F93ECA0F000097A
:10495000D8B41200010E00017B6FE80E7C6F91C08D
:10496000D9FF92C0DAFFDF5058ECA5F01200000129
:10497000806F020E00018B6F7BC081F07FC082F0E0
:104980007EC083F07DC084F07CC085F0860E726F9F
:10499000000E736F810E746F000E756F050E766FCB
:1049A00080C077F0786B49ECA7F014D0860E000138
:1049B000726F000E736F8B0E746F000E756F010EA9
:1049C000E7ECA0F0020E00018B19D8B4FBD78B5195
:1049D000D8B4120000018B05D8B41200E7D79AC0F2
:1049E00086F09BC087F089EC9FF000019C519D11DF
:1049F0009E119F11D8B41BD09AC092F09BC093F027
:104A00009CC094F09DC095F09EC096F09FC097F01A
:104A10003CECA4F0000E00017B6F040E7C6F9AC08A
:104A2000D9FF9BC0DAFFDF5058ECA5F01200000E52
:104A300000017B6F020E7C6F9AC0D9FF9BC0DAFF2A
:104A4000DF5058ECA5F012000001986F020E000133
:104A5000A16F95C099F097519A6F96C09BF09C0EEC
:104A6000726F000E736F990E746F000E756F030EE8
:104A7000766F98C077F0786B49ECA7F014D09C0E55
:104A80000001726F000E736FA10E746F000E756FD0
:104A9000010EE7ECA0F0020E0001A119D8B4FBD77B
:104AA000A151D8B412000001A105D8B41200E7D773
:104AB00000017D6F020E0001856F7BC07EF07CC01F
:104AC0007FF0800E726F000E736F7E0E746F000E9B
:104AD000756F020E766F7DC077F0786B49ECA7F0AA
:104AE00014D0800E0001726F000E736F850E746F0C
:104AF000000E756F010EE7ECA0F0020E00018519A3
:104B0000D8B4FBD78551D8B4120000018505D8B4BC
:104B10001200E7D7000120EE05F07251D92673513B
:104B2000DA22000EDF6E20EE03F07251D9267351A7
:104B3000DA22000EDE6E000EDD6E20EE08F07251FD
:104B4000D9267351DA22DE6ADE6ADE6ADD6A20EE79
:104B500001F07251D9267351DA22000EDF6E20EE79
:104B600006F07251D9267351DA22000EDE6E000E65
:104B7000DD6E1200B00EF66E570EF76E010EF86E77
:104B800001EE9BF010EE0BF00900F5CFEEFFE550C3
:104B9000E150FAE102EE00F0750EEE6AE806FDE182
:104BA00001EE00F0430EEE6AE806FDE100EECEF005
:104BB000190EEE6AE806FDE100EE4CF0100EEE6A0A
:104BC000E806FDE15C905C92000100EF80F0000ED1
:104BD00000017A6F000E7B6F000E7C6F000E7D6F00
:104BE00072A108D076517A2777517B2378517C23A4
:104BF00079517D23D8907637773778377937D890C1
:104C000075337433733372337251731174117511B8
:104C1000D8A4E6D77AC072F07BC073F07CC074F081
:104C20007DC075F01200000E0001776F000E766FE8
:104C300074517511D8B41CD0010E786F04D0D8907F
:104C400074377537782B75AFFAD7D89076377737B2
:104C50007451725D75517359D8A005D07451725F4B
:104C60007551735B7681D89075337433782FEDD797
:104C700076C072F077C073F0120077C079F078C018
:104C80007AF0D890000179377A3772C0D9FF73C0B3
:104C9000DAFF79C0DEFF7AC0DDFF72C0D9FF73C0D2
:104CA000DAFF000EDB8020EE02F07251D92673513C
:104CB000DA2276C0DFFF20EE03F07251D92673515D
:104CC000DA2274C0DEFF75C0DDFF120003ECACF029
:104CD000D80E096E530E0A6E010E0B6E000E0C6E8E
:104CE00082ECAAF001C00DF002C00EF00F6A106A4B
:104CF000C0EC9EF009C0DDF00AC0DEF090A005D047
:104D00000001DD6DDE1FD8B0DE2B000E026E000E3E
:104D1000016EDBECAAF005ECACF0120007ECACF095
:104D2000D80E096E530E0A6E010E0B6E000E0C6E3D
:104D300092ECAAF001C00DF002C00EF00F6A106AEA
:104D4000C0EC9EF009C0DFF00AC0E0F091B205D0DF
:104D50000001DF6DE01FD8B0E02B000E026E000EE8
:104D6000016EE9ECAAF009ECACF01200000E6A6EDC
:104D7000000E6B6E000E6C6E000E6D6E000E686E97
:104D8000000E696E000E666E000E0F015F6F000E62
:104D90005D6F000E596F000E5A6F000E5B6F000EB4
:104DA000656E000E586F000E566F330E576F840EEF
:104DB000606E000E5C6F1200000ECA6E000ECB6EAD
:104DC000010ECC6E000EC86E000EC76EC750C8CF65
:104DD00075F00001766B75C076F0756B7511E76F35
:104DE0007651E86F0E01CE95C6857E0E0001726F7A
:104DF000550E736F010E746F7EECABF0300EC96E02
:104E00001200000ED06E000ED16E010ED26E000E9A
:104E1000CE6E000ECD6ECD50CECF75F00001766B0C
:104E200075C076F0756B7511E96F7651EA6F0E01FA
:104E3000CE91C6819A0E0001726F550E736F010EEE
:104E4000746F85ECABF0300ECF6E120000018A6FEC
:104E50000A0E00017B6F040E7C6F8A5158ECA5F09E
:104E6000840E00017B6F8A51FDECA3F00001896F75
:104E7000840E7B6F8951EF0B7C6F8A5158ECA5F043
:104E80000B0E00017B6F010E7C6F8A5158ECA5F070
:104E9000120077C079F078C07AF0D89000017937A5
:104EA0007A3772C0D9FF73C0DAFF79C0DEFF7AC0EB
:104EB000DDFF20EE02F07251D9267351DA2276C05E
:104EC000DFFF20EE03F07251D9267351DA2274C04D
:104ED000DEFF75C0DDFF1200000174517511D8B4FA
:104EE00018D0010E766F04D0D89074377537762BB2
:104EF00075AFFAD77451725D75517359D8A004D04B
:104F00007451725F7551735BD89075337433762F1B
:104F1000F1D772C072F073C073F0120000018B6F92
:104F200000018951D8A40BD0500E7B6F8B51FDEC42
:104F3000A3F000018A6FD8908A35020F120089050C
:104F4000D8A40BD0700E7B6F8B51FDECA3F0000149
:104F50008A6FD8908A35020F1200FF0E1200400EA1
:104F6000D66EC10ED46E800ED36ED350D4CF75F0F2
:104F70000001766B75C076F0756B7511EB6F76512D
:104F8000EC6F0E01CA9BC28B780E0001726F560E39
:104F9000736F010E746F8CECABF0900ED56E120037
:104FA0000001726F12D08EA002D0010E1200000E0E
:104FB00012008EA202D0010E1200000E12008EA46A
:104FC00002D0010E1200000E120000017251000A00
:104FD000D8B4E9D7010AD8B4ECD7030AD8A4120090
:104FE000EED7036E978420EE03F05050D92651502F
:104FF000DA22DE50DE10D8B410D020EE03F050508C
:10500000D9265150DA22DECF01F0DDCF02F001C007
:10501000D9FF02C0DAFF03C0DFFF000E596E120095
:1050200092C094F093C095F095C094F00001956BF8
:10503000FF0E9215966F000E9315976F942B03D069
:10504000D89096379737942FFBD7010E00019625FD
:10505000926F000E9721936F120001ECACF0B1EC4F
:10506000AAF0C4EC9AF003ECABF084ECA8F026ECC8
:10507000ABF0B6ECA6F007ECA9F0A2ECAAF0AFEC0E
:10508000A7F031ECABF0DCECA6F001ECA7F087EC7C
:10509000A1F0120010D0010E0001776F79C0F6FF69
:1050A0007AC0F7FF000EF86E0800F5509FECA8F0EC
:1050B0000001794B7A2B79C0F6FF7AC0F7FF000E1A
:1050C000F86E0800F5500009D8B41200E4D72A0E93
:1050D000016E8E0EE82EFED7012EFCD78DAC90A26D
:1050E00004D00001DB4BDC2B07D08DAC90B204D098
:1050F0000001DB07D8A0DC072A0E016E8E0EE82E19
:10510000FED7012EFCD712003E0E0001D06F010E1B
:10511000D16F3E0ECE6F010ECF6FD283D291000EB3
:10512000D46F000E956E280E966E000E986E270EA8
:10513000936E0E01CD91CD93C581C5831200000100
:10514000786F00017751D8A402D0839001D083807A
:10515000E40E00D000D0E82EFCD700D000D0000133
:1051600078390F0B68ECA2F0000178510F0B68EC56
:10517000A2F012000E01CE95E7C001F0E8C002F0E7
:10518000DBECAAF00101745175117611D8B412004C
:1051900001D812000500FA6E7451FD6E7551FE6E55
:1051A0007651FF6EFA5012000E01CE91E9C001F067
:1051B000EAC002F0E9ECAAF0010177517811791107
:1051C000D8B4120001D812000500FA6E7751FD6EB6
:1051D0007851FE6E7951FF6EFA5012004BC172F099
:1051E0004CC173F08AECA5F04BC1A7F04CC1A8F0FC
:1051F00097EC99F04BC1CCF04CC1CDF055EC9EF042
:105200004BC191F04CC192F07AECA4F01200040E64
:10521000B96E000EB86E000EBA6E4D0EB66E000E70
:10522000B56E0E01CE97C6876E0E0001726F220E0C
:10523000736F010E746F77ECABF0A00EB76E1200B7
:105240000E01CA9B0001EC51D46EEBC0D3FF0101EB
:10525000865187118811D8B4120001D812000500B8
:10526000FA6E8651FD6E8751FE6E8851FF6EFA50C0
:105270001200080E0001ED6112D0E551010D100E73
:10528000F324D96E010EF420DA6EDF509A6EE52B0E
:10529000070EE56502D0000EE56FED2B12000E0142
:1052A000C599120000017A6F839000017A51D8A449
:1052B00007D0000E776F7951800F9FECA8F0120095
:1052C000000E0001776F7951C00F9FECA8F012001B
:1052D00000019D6F00019D51270D000EF324926F78
:1052E000020EF420936FB2ECA2F092C09EF093C035
:1052F0009FF09EC09BF09FC09CF01200FF0E011615
:10530000030E0216A8A80BD0060ED890013602365E
:10531000E82EFBD70250A76E01C0A6FF1200025074
:10532000A76E01C0A6FF1200FF0E0116030E0216A3
:10533000ACA80BD0060ED89001360236E82EFBD76B
:105340000250AB6E01C0AAFF12000250AB6E01C04A
:10535000AAFF1200010189518A118B11D8B40CD017
:1053600001D80AD00500FA6E8951FD6E8A51FE6E91
:105370008B51FF6EFA5012000F011A9112000101B9
:105380008C518D118E11D8B40CD001D80AD00500E3
:10539000FA6E8C51FD6E8D51FE6E8E51FF6EFA507D
:1053A00012000F010A9F120001018F5190119111FB
:1053B000D8B40CD001D80AD00500FA6E8F51FD6E1A
:1053C0009051FE6E9151FF6EFA5012000F010A9D2E
:1053D00012000101925193119411D8B40CD001D84C
:1053E0000AD00500FA6E9251FD6E9351FE6E9451F3
:1053F000FF6EFA5012000F010A9B1200000120EE0E
:1054000002F07251D9267351DA2274C0DEFF75C0E2
:10541000DDFF72C0D9FF73C0DAFFE1C0DEFFE2C07A
:10542000DDFF12000001766F76C05FFF608E609C2A
:10543000608060B0FED764500001756F746B63507C
:105440007425726F000E7521736F12000E01CE97D6
:1054500001017A517B117C11D8B4120001D81200DD
:105460000500FA6E7A51FD6E7B51FE6E7C51FF6E27
:10547000FA5012000001796F00017951D8B406D0BA
:10548000010E776F310E9FECA8F01200010E0001A3
:10549000776F300E9FECA8F012000001E451010D6F
:1054A000080EF324D96E010EF420DA6E99CFDFFFD7
:1054B000E42B070EE46502D0000EE46F542A1200BC
:1054C0000F010ABBE9ECA9F00F010ABDD4ECA9F069
:1054D0000F010ABFBFECA9F00F011AA11200AAEC3C
:1054E000A9F01200000E0001776F010E9FECA8F0EA
:1054F0002A0E0001796F8D0EE82EFED7792FFCD78A
:1055000000D01200C982C7CF08F0C8CF07F00750FB
:10551000036E0850056E03C006F005C001F006C01A
:1055200002F01200CF82CDCF08F0CECF07F00750A7
:10553000036E0850056E03C006F005C001F006C0FA
:1055400002F01200010EBF6E000EBE6E000EC06EA5
:10555000C70EBC6E000EBB6E0E01CE93A00EBD6ECC
:105560001200000E0E01E16F000EE26F000EE36FFD
:10557000000EE46F000EE56F000EE66F120003EC04
:10558000ACF0000E0001DE6F000EDD6F000E026E4B
:10559000000E016EDBECAAF0120007ECACF0000E7E
:1055A0000001E06F000EDF6F000E026E000E016E54
:1055B000E9ECAAF01200C9A407D0C9900250C86E45
:1055C00001C0C7FFC98012000250C86E01C0C7FFEA
:1055D0001200CFA407D0CF900250CE6E01C0CDFFF5
:1055E000CF8012000250CE6E01C0CDFF120000012C
:1055F00020EE03F07251D9267351DA2274C0DEFF17
:1056000075C0DDFF1200600E0E01D86F000EDA6F5C
:10561000000EDC6F080EDE6F000EDD6F1200050E4F
:105620005226000E5322582E03D0040E596E12003B
:10563000010E596E12000001866F8A0E00017B6F09
:1056400086C07CF0290E58ECA5F012008C0EA86ED6
:10565000010EA76E8F0EA66EAE50F30B0409AE6E50
:1056600012008C0EAC6E010EAB6E8F0EAA6EAE5099
:10567000FC0B0109AE6E12000001E14BE22B010EA2
:1056800001012827000E29232A232B2312000001C1
:10569000726F00017251D8B402D0878412008794CF
:1056A00012000001726F00017251D8B402D08686D8
:1056B0001200869612000001726F00017251D8B478
:1056C00002D0848812008498120028C172F029C187
:1056D00073F02AC174F02BC175F0120072C032F160
:1056E00073C033F174C030F175C031F1120072C073
:1056F0007AF173C07BF174C07CF1120072C074F156
:1057000073C075F174C076F1120072C077F173C086
:1057100078F174C079F1120072C086F173C087F11C
:1057200074C088F1120072C089F173C08AF174C02C
:105730008BF1120072C08CF173C08DF174C08EF1C8
:10574000120072C08FF173C090F174C091F1120019
:1057500072C092F173C093F174C094F1120072C0E0
:1057600098F173C099F174C09AF1120072C095F16A
:1057700073C096F174C097F1120072C080F173C0CB
:1057800081F174C082F1120072C083F173C084F1A0
:1057900074C085F1120072C07DF173C07EF174C0D7
:1057A0007FF112008DAE02D0010E1200000E120029
:0B57B000292A2B90019001900190012C
:1057BC00DBC072F0DCC073F0120072C0DBF073C09F
:1057CC00DCF012005950D8B41200FCD70E01CD9366
:1057DC0012009D989D8812004DECAAF01200859A3B
:1057EC001200858A12008496120084861200849A14
:1057FC001200848A1200F29A1200C9901200C98019
:0E580C001200CF901200CF8012001200120086
:020000040020DA
:10000000FF0FFF0FFF0FFF0FFF0FFF0FFF0FFF0F80
:020000040030CA
:0C0000008CFFFFFF9FFFFFDFFFFFFFFFF3
:00000001FF
